{
  "_format": "hh-sol-artifact-1",
  "contractName": "YieldAggregator",
  "sourceName": "contracts/YieldAggregator.sol",
  "abi": [
    {
      "inputs": [],
      "stateMutability": "nonpayable",
      "type": "constructor"
    },
    {
      "anonymous": false,
      "inputs": [
        {
          "indexed": false,
          "internalType": "address",
          "name": "user",
          "type": "address"
        },
        {
          "indexed": false,
          "internalType": "uint256",
          "name": "when",
          "type": "uint256"
        }
      ],
      "name": "suppliedAsset",
      "type": "event"
    },
    {
      "inputs": [
        {
          "internalType": "address",
          "name": "asset",
          "type": "address"
        },
        {
          "internalType": "uint256",
          "name": "amount",
          "type": "uint256"
        }
      ],
      "name": "depositAsset",
      "outputs": [],
      "stateMutability": "nonpayable",
      "type": "function"
    }
  ],
  "bytecode": "0x6080604052735343b5ba672ae99d627a1c87866b8e53f47db2e66000806101000a81548173ffffffffffffffffffffffffffffffffffffffff021916908373ffffffffffffffffffffffffffffffffffffffff16021790555060008054906101000a900473ffffffffffffffffffffffffffffffffffffffff1673ffffffffffffffffffffffffffffffffffffffff1663026b1d5f6040518163ffffffff1660e01b8152600401602060405180830381865afa1580156100c3573d6000803e3d6000fd5b505050506040513d601f19601f820116820180604052508101906100e79190610240565b600160006101000a81548173ffffffffffffffffffffffffffffffffffffffff021916908373ffffffffffffffffffffffffffffffffffffffff160217905550600160009054906101000a900473ffffffffffffffffffffffffffffffffffffffff16600260006101000a81548173ffffffffffffffffffffffffffffffffffffffff021916908373ffffffffffffffffffffffffffffffffffffffff16021790555034801561019657600080fd5b5033600360006101000a81548173ffffffffffffffffffffffffffffffffffffffff021916908373ffffffffffffffffffffffffffffffffffffffff16021790555061026d565b600080fd5b600073ffffffffffffffffffffffffffffffffffffffff82169050919050565b600061020d826101e2565b9050919050565b61021d81610202565b811461022857600080fd5b50565b60008151905061023a81610214565b92915050565b600060208284031215610256576102556101dd565b5b60006102648482850161022b565b91505092915050565b610b478061027c6000396000f3fe608060405234801561001057600080fd5b506004361061002b5760003560e01c806346a5d04314610030575b600080fd5b61004a600480360381019061004591906105e7565b61004c565b005b610099600260009054906101000a900473ffffffffffffffffffffffffffffffffffffffff16828473ffffffffffffffffffffffffffffffffffffffff1661016a9092919063ffffffff16565b600260009054906101000a900473ffffffffffffffffffffffffffffffffffffffff1673ffffffffffffffffffffffffffffffffffffffff1663617ba03783833360006040518563ffffffff1660e01b81526004016100fb9493929190610698565b600060405180830381600087803b15801561011557600080fd5b505af1158015610129573d6000803e3d6000fd5b505050507fec7c0e4fcc70eeac8e4737f553a119a9ebcdd56519beb168e28af0f269324c55334260405161015e9291906106dd565b60405180910390a15050565b60008114806101f4575060008373ffffffffffffffffffffffffffffffffffffffff1663dd62ed3e30856040518363ffffffff1660e01b81526004016101b1929190610706565b602060405180830381865afa1580156101ce573d6000803e3d6000fd5b505050506040513d601f19601f820116820180604052508101906101f29190610744565b145b610233576040517f08c379a000000000000000000000000000000000000000000000000000000000815260040161022a906107f4565b60405180910390fd5b6102b48363095ea7b360e01b84846040516024016102529291906106dd565b604051602081830303815290604052907bffffffffffffffffffffffffffffffffffffffffffffffffffffffff19166020820180517bffffffffffffffffffffffffffffffffffffffffffffffffffffffff83818316178352505050506102b9565b505050565b600061031b826040518060400160405280602081526020017f5361666545524332303a206c6f772d6c6576656c2063616c6c206661696c65648152508573ffffffffffffffffffffffffffffffffffffffff166103809092919063ffffffff16565b905060008151111561037b578080602001905181019061033b919061084c565b61037a576040517f08c379a0000000000000000000000000000000000000000000000000000000008152600401610371906108eb565b60405180910390fd5b5b505050565b606061038f8484600085610398565b90509392505050565b6060824710156103dd576040517f08c379a00000000000000000000000000000000000000000000000000000000081526004016103d49061097d565b60405180910390fd5b6000808673ffffffffffffffffffffffffffffffffffffffff1685876040516104069190610a17565b60006040518083038185875af1925050503d8060008114610443576040519150601f19603f3d011682016040523d82523d6000602084013e610448565b606091505b509150915061045987838387610465565b92505050949350505050565b606083156104c8576000835114156104c057610480856104db565b6104bf576040517f08c379a00000000000000000000000000000000000000000000000000000000081526004016104b690610a7a565b60405180910390fd5b5b8290506104d3565b6104d283836104fe565b5b949350505050565b6000808273ffffffffffffffffffffffffffffffffffffffff163b119050919050565b6000825111156105115781518083602001fd5b806040517f08c379a00000000000000000000000000000000000000000000000000000000081526004016105459190610aef565b60405180910390fd5b600080fd5b600073ffffffffffffffffffffffffffffffffffffffff82169050919050565b600061057e82610553565b9050919050565b61058e81610573565b811461059957600080fd5b50565b6000813590506105ab81610585565b92915050565b6000819050919050565b6105c4816105b1565b81146105cf57600080fd5b50565b6000813590506105e1816105bb565b92915050565b600080604083850312156105fe576105fd61054e565b5b600061060c8582860161059c565b925050602061061d858286016105d2565b9150509250929050565b61063081610573565b82525050565b61063f816105b1565b82525050565b6000819050919050565b600061ffff82169050919050565b6000819050919050565b600061068261067d61067884610645565b61065d565b61064f565b9050919050565b61069281610667565b82525050565b60006080820190506106ad6000830187610627565b6106ba6020830186610636565b6106c76040830185610627565b6106d46060830184610689565b95945050505050565b60006040820190506106f26000830185610627565b6106ff6020830184610636565b9392505050565b600060408201905061071b6000830185610627565b6107286020830184610627565b9392505050565b60008151905061073e816105bb565b92915050565b60006020828403121561075a5761075961054e565b5b60006107688482850161072f565b91505092915050565b600082825260208201905092915050565b7f5361666545524332303a20617070726f76652066726f6d206e6f6e2d7a65726f60008201527f20746f206e6f6e2d7a65726f20616c6c6f77616e636500000000000000000000602082015250565b60006107de603683610771565b91506107e982610782565b604082019050919050565b6000602082019050818103600083015261080d816107d1565b9050919050565b60008115159050919050565b61082981610814565b811461083457600080fd5b50565b60008151905061084681610820565b92915050565b6000602082840312156108625761086161054e565b5b600061087084828501610837565b91505092915050565b7f5361666545524332303a204552433230206f7065726174696f6e20646964206e60008201527f6f74207375636365656400000000000000000000000000000000000000000000602082015250565b60006108d5602a83610771565b91506108e082610879565b604082019050919050565b60006020820190508181036000830152610904816108c8565b9050919050565b7f416464726573733a20696e73756666696369656e742062616c616e636520666f60008201527f722063616c6c0000000000000000000000000000000000000000000000000000602082015250565b6000610967602683610771565b91506109728261090b565b604082019050919050565b600060208201905081810360008301526109968161095a565b9050919050565b600081519050919050565b600081905092915050565b60005b838110156109d15780820151818401526020810190506109b6565b838111156109e0576000848401525b50505050565b60006109f18261099d565b6109fb81856109a8565b9350610a0b8185602086016109b3565b80840191505092915050565b6000610a2382846109e6565b915081905092915050565b7f416464726573733a2063616c6c20746f206e6f6e2d636f6e7472616374000000600082015250565b6000610a64601d83610771565b9150610a6f82610a2e565b602082019050919050565b60006020820190508181036000830152610a9381610a57565b9050919050565b600081519050919050565b6000601f19601f8301169050919050565b6000610ac182610a9a565b610acb8185610771565b9350610adb8185602086016109b3565b610ae481610aa5565b840191505092915050565b60006020820190508181036000830152610b098184610ab6565b90509291505056fea2646970667358221220d047f40a3dc2941db0e0ed0148b2b024ed8251c5f4d13a4e4ff2a15d9afff10764736f6c634300080a0033",
  "linkReferences": {},
  "deployedLinkReferences": {}
}