{
  "_format": "hh-sol-artifact-1",
  "contractName": "YieldAggregator",
  "sourceName": "contracts/YieldAggregator.sol",
  "abi": [
    {
      "inputs": [],
      "stateMutability": "nonpayable",
      "type": "constructor"
    },
    {
      "anonymous": false,
      "inputs": [
        {
          "indexed": false,
          "internalType": "address",
          "name": "spender",
          "type": "address"
        },
        {
          "indexed": false,
          "internalType": "uint256",
          "name": "amount",
          "type": "uint256"
        }
      ],
      "name": "approvedMatic",
      "type": "event"
    },
    {
      "anonymous": false,
      "inputs": [
        {
          "indexed": false,
          "internalType": "address",
          "name": "user",
          "type": "address"
        },
        {
          "indexed": false,
          "internalType": "uint256",
          "name": "when",
          "type": "uint256"
        }
      ],
      "name": "suppliedMatic",
      "type": "event"
    },
    {
      "anonymous": false,
      "inputs": [
        {
          "indexed": false,
          "internalType": "address",
          "name": "user",
          "type": "address"
        },
        {
          "indexed": false,
          "internalType": "uint256",
          "name": "when",
          "type": "uint256"
        }
      ],
      "name": "withdrawnMatic",
      "type": "event"
    },
    {
      "inputs": [
        {
          "internalType": "uint256",
          "name": "amount",
          "type": "uint256"
        }
      ],
      "name": "depositMatic",
      "outputs": [],
      "stateMutability": "nonpayable",
      "type": "function"
    },
    {
      "inputs": [
        {
          "internalType": "uint256",
          "name": "amount",
          "type": "uint256"
        },
        {
          "internalType": "address",
          "name": "kin",
          "type": "address"
        }
      ],
      "name": "withdrawMatic",
      "outputs": [],
      "stateMutability": "nonpayable",
      "type": "function"
    }
  ],
  "bytecode": "0x60806040527389a6ae840b3f8f489418933a220315eea36d11ff6000806101000a81548173ffffffffffffffffffffffffffffffffffffffff021916908373ffffffffffffffffffffffffffffffffffffffff16021790555060008054906101000a900473ffffffffffffffffffffffffffffffffffffffff16600160006101000a81548173ffffffffffffffffffffffffffffffffffffffff021916908373ffffffffffffffffffffffffffffffffffffffff160217905550732a58e9bbb5434fda7ff78051a4b82cb0ef669c17600260006101000a81548173ffffffffffffffffffffffffffffffffffffffff021916908373ffffffffffffffffffffffffffffffffffffffff160217905550600260009054906101000a900473ffffffffffffffffffffffffffffffffffffffff16600360006101000a81548173ffffffffffffffffffffffffffffffffffffffff021916908373ffffffffffffffffffffffffffffffffffffffff160217905550735343b5ba672ae99d627a1c87866b8e53f47db2e6600460006101000a81548173ffffffffffffffffffffffffffffffffffffffff021916908373ffffffffffffffffffffffffffffffffffffffff1602179055503480156101d257600080fd5b50600460009054906101000a900473ffffffffffffffffffffffffffffffffffffffff1673ffffffffffffffffffffffffffffffffffffffff1663026b1d5f6040518163ffffffff1660e01b8152600401602060405180830381865afa158015610240573d6000803e3d6000fd5b505050506040513d601f19601f82011682018060405250810190610264919061030c565b600560006101000a81548173ffffffffffffffffffffffffffffffffffffffff021916908373ffffffffffffffffffffffffffffffffffffffff160217905550610339565b600080fd5b600073ffffffffffffffffffffffffffffffffffffffff82169050919050565b60006102d9826102ae565b9050919050565b6102e9816102ce565b81146102f457600080fd5b50565b600081519050610306816102e0565b92915050565b600060208284031215610322576103216102a9565b5b6000610330848285016102f7565b91505092915050565b6106dc806103486000396000f3fe608060405234801561001057600080fd5b50600436106100365760003560e01c80635082566a1461003b57806376bf384b14610057575b600080fd5b610055600480360381019061005091906103f1565b610073565b005b610071600480360381019061006c919061047c565b610164565b005b600360009054906101000a900473ffffffffffffffffffffffffffffffffffffffff1673ffffffffffffffffffffffffffffffffffffffff1663474cf53d82600560009054906101000a900473ffffffffffffffffffffffffffffffffffffffff163360006040518563ffffffff1660e01b81526004016100f69392919061051e565b6000604051808303818588803b15801561010f57600080fd5b505af1158015610123573d6000803e3d6000fd5b50505050507f217794e6bdf0f51e3c1497aaa311d34599b9d701c794e143cf9afd53a69af5e03342604051610159929190610564565b60405180910390a150565b6000600160009054906101000a900473ffffffffffffffffffffffffffffffffffffffff1673ffffffffffffffffffffffffffffffffffffffff1663095ea7b3600260009054906101000a900473ffffffffffffffffffffffffffffffffffffffff16856040518363ffffffff1660e01b81526004016101e5929190610564565b6020604051808303816000875af1158015610204573d6000803e3d6000fd5b505050506040513d601f19601f8201168201806040525081019061022891906105c5565b90508061026a576040517f08c379a00000000000000000000000000000000000000000000000000000000081526004016102619061064f565b60405180910390fd5b7ff55ab26082eeae6c0a58cd94b9abbc963077676e334e1980e949d66d0632997b600260009054906101000a900473ffffffffffffffffffffffffffffffffffffffff16846040516102bd929190610564565b60405180910390a1600360009054906101000a900473ffffffffffffffffffffffffffffffffffffffff1673ffffffffffffffffffffffffffffffffffffffff166380500d20600560009054906101000a900473ffffffffffffffffffffffffffffffffffffffff1685856040518463ffffffff1660e01b81526004016103469392919061066f565b600060405180830381600087803b15801561036057600080fd5b505af1158015610374573d6000803e3d6000fd5b505050507fbd51083cb7d0069935600787f3baf8d13f18d0431a3ecbaccb7b22864a14462682426040516103a9929190610564565b60405180910390a1505050565b600080fd5b6000819050919050565b6103ce816103bb565b81146103d957600080fd5b50565b6000813590506103eb816103c5565b92915050565b600060208284031215610407576104066103b6565b5b6000610415848285016103dc565b91505092915050565b600073ffffffffffffffffffffffffffffffffffffffff82169050919050565b60006104498261041e565b9050919050565b6104598161043e565b811461046457600080fd5b50565b60008135905061047681610450565b92915050565b60008060408385031215610493576104926103b6565b5b60006104a1858286016103dc565b92505060206104b285828601610467565b9150509250929050565b6104c58161043e565b82525050565b6000819050919050565b600061ffff82169050919050565b6000819050919050565b60006105086105036104fe846104cb565b6104e3565b6104d5565b9050919050565b610518816104ed565b82525050565b600060608201905061053360008301866104bc565b61054060208301856104bc565b61054d604083018461050f565b949350505050565b61055e816103bb565b82525050565b600060408201905061057960008301856104bc565b6105866020830184610555565b9392505050565b60008115159050919050565b6105a28161058d565b81146105ad57600080fd5b50565b6000815190506105bf81610599565b92915050565b6000602082840312156105db576105da6103b6565b5b60006105e9848285016105b0565b91505092915050565b600082825260208201905092915050565b7f436f756c64206e6f7420617070726f76652e0000000000000000000000000000600082015250565b60006106396012836105f2565b915061064482610603565b602082019050919050565b600060208201905081810360008301526106688161062c565b9050919050565b600060608201905061068460008301866104bc565b6106916020830185610555565b61069e60408301846104bc565b94935050505056fea2646970667358221220883bf04cbca2acfff97cfb757509a9b085abacc457b0f6f673d7ea671264c24964736f6c634300080a0033",
  "linkReferences": {},
  "deployedLinkReferences": {}
}