{
  "_format": "hh-sol-artifact-1",
  "contractName": "AlwaysAlive",
  "sourceName": "contracts/AlwaysAlive.sol",
  "abi": [
    {
      "inputs": [
        {
          "internalType": "uint64",
          "name": "_subscriptionId",
          "type": "uint64"
        }
      ],
      "stateMutability": "payable",
      "type": "constructor"
    },
    {
      "anonymous": false,
      "inputs": [
        {
          "indexed": false,
          "internalType": "address",
          "name": "kin",
          "type": "address"
        },
        {
          "indexed": false,
          "internalType": "uint256",
          "name": "amount",
          "type": "uint256"
        },
        {
          "indexed": false,
          "internalType": "uint256",
          "name": "when",
          "type": "uint256"
        }
      ],
      "name": "blessed",
      "type": "event"
    },
    {
      "anonymous": false,
      "inputs": [
        {
          "indexed": false,
          "internalType": "uint256",
          "name": "when",
          "type": "uint256"
        }
      ],
      "name": "incrementedConfirmations",
      "type": "event"
    },
    {
      "anonymous": false,
      "inputs": [
        {
          "indexed": false,
          "internalType": "address",
          "name": "kin",
          "type": "address"
        },
        {
          "indexed": false,
          "internalType": "uint256",
          "name": "when",
          "type": "uint256"
        }
      ],
      "name": "inheritered",
      "type": "event"
    },
    {
      "anonymous": false,
      "inputs": [
        {
          "indexed": false,
          "internalType": "address",
          "name": "user",
          "type": "address"
        },
        {
          "indexed": false,
          "internalType": "uint256",
          "name": "when",
          "type": "uint256"
        }
      ],
      "name": "registered",
      "type": "event"
    },
    {
      "stateMutability": "payable",
      "type": "fallback"
    },
    {
      "inputs": [],
      "name": "MAX_AMOUNT",
      "outputs": [
        {
          "internalType": "uint256",
          "name": "",
          "type": "uint256"
        }
      ],
      "stateMutability": "view",
      "type": "function"
    },
    {
      "inputs": [],
      "name": "MAX_NUMBER_OF_CONFIRMATIONS",
      "outputs": [
        {
          "internalType": "int8",
          "name": "",
          "type": "int8"
        }
      ],
      "stateMutability": "view",
      "type": "function"
    },
    {
      "inputs": [],
      "name": "MIN_AMOUNT",
      "outputs": [
        {
          "internalType": "uint256",
          "name": "",
          "type": "uint256"
        }
      ],
      "stateMutability": "view",
      "type": "function"
    },
    {
      "inputs": [],
      "name": "bless",
      "outputs": [],
      "stateMutability": "payable",
      "type": "function"
    },
    {
      "inputs": [],
      "name": "getAggregatorAddress",
      "outputs": [
        {
          "internalType": "address",
          "name": "",
          "type": "address"
        }
      ],
      "stateMutability": "view",
      "type": "function"
    },
    {
      "inputs": [],
      "name": "getConsumerAddress",
      "outputs": [
        {
          "internalType": "address",
          "name": "",
          "type": "address"
        }
      ],
      "stateMutability": "view",
      "type": "function"
    },
    {
      "inputs": [
        {
          "internalType": "address",
          "name": "_user",
          "type": "address"
        }
      ],
      "name": "getCurrentConfirmations",
      "outputs": [
        {
          "internalType": "int8",
          "name": "",
          "type": "int8"
        }
      ],
      "stateMutability": "view",
      "type": "function"
    },
    {
      "inputs": [],
      "name": "getLastBlessedKin",
      "outputs": [
        {
          "internalType": "address",
          "name": "",
          "type": "address"
        }
      ],
      "stateMutability": "view",
      "type": "function"
    },
    {
      "inputs": [],
      "name": "getLastPayout",
      "outputs": [
        {
          "internalType": "uint256",
          "name": "",
          "type": "uint256"
        }
      ],
      "stateMutability": "view",
      "type": "function"
    },
    {
      "inputs": [],
      "name": "getVerifierAddress",
      "outputs": [
        {
          "internalType": "address",
          "name": "",
          "type": "address"
        }
      ],
      "stateMutability": "view",
      "type": "function"
    },
    {
      "inputs": [],
      "name": "incrementConfirmations",
      "outputs": [],
      "stateMutability": "nonpayable",
      "type": "function"
    },
    {
      "inputs": [],
      "name": "inherit",
      "outputs": [],
      "stateMutability": "nonpayable",
      "type": "function"
    },
    {
      "inputs": [],
      "name": "lastBlessPayout",
      "outputs": [
        {
          "internalType": "uint256",
          "name": "",
          "type": "uint256"
        }
      ],
      "stateMutability": "view",
      "type": "function"
    },
    {
      "inputs": [],
      "name": "lastBlessedKin",
      "outputs": [
        {
          "internalType": "address",
          "name": "",
          "type": "address"
        }
      ],
      "stateMutability": "view",
      "type": "function"
    },
    {
      "inputs": [
        {
          "internalType": "address payable",
          "name": "_kinAddress",
          "type": "address"
        },
        {
          "internalType": "bytes",
          "name": "signature",
          "type": "bytes"
        }
      ],
      "name": "register",
      "outputs": [],
      "stateMutability": "payable",
      "type": "function"
    },
    {
      "inputs": [],
      "name": "requestRandomness",
      "outputs": [],
      "stateMutability": "nonpayable",
      "type": "function"
    },
    {
      "inputs": [
        {
          "internalType": "uint256",
          "name": "",
          "type": "uint256"
        }
      ],
      "name": "users",
      "outputs": [
        {
          "internalType": "address",
          "name": "",
          "type": "address"
        }
      ],
      "stateMutability": "view",
      "type": "function"
    },
    {
      "inputs": [],
      "name": "validateLife",
      "outputs": [],
      "stateMutability": "nonpayable",
      "type": "function"
    },
    {
      "stateMutability": "payable",
      "type": "receive"
    }
  ],
  "bytecode": "0x608060405260056000806101000a81548160ff021916908360000b60ff16021790555066038d7ea4c68000600155670de0b6b3a7640000600255612a30600360006101000a81548167ffffffffffffffff021916908367ffffffffffffffff160217905550615460600360086101000a81548167ffffffffffffffff021916908367ffffffffffffffff16021790555061a8c0600360106101000a81548167ffffffffffffffff021916908367ffffffffffffffff160217905550615460600360186101000a81548167ffffffffffffffff021916908367ffffffffffffffff16021790555060405162005a0838038062005a0883398181016040528101906200010a9190620002f2565b8060405162000119906200027e565b62000125919062000335565b604051809103906000f08015801562000142573d6000803e3d6000fd5b50600460006101000a81548173ffffffffffffffffffffffffffffffffffffffff021916908373ffffffffffffffffffffffffffffffffffffffff16021790555060405162000191906200028c565b604051809103906000f080158015620001ae573d6000803e3d6000fd5b50600660006101000a81548173ffffffffffffffffffffffffffffffffffffffff021916908373ffffffffffffffffffffffffffffffffffffffff160217905550604051620001fd906200029a565b604051809103906000f0801580156200021a573d6000803e3d6000fd5b50600560006101000a81548173ffffffffffffffffffffffffffffffffffffffff021916908373ffffffffffffffffffffffffffffffffffffffff160217905550426008819055504260098190555042600a8190555042600d819055505062000352565b6118998062002c8b83390190565b610cf3806200452483390190565b6107f1806200521783390190565b600080fd5b600067ffffffffffffffff82169050919050565b620002cc81620002ad565b8114620002d857600080fd5b50565b600081519050620002ec81620002c1565b92915050565b6000602082840312156200030b576200030a620002a8565b5b60006200031b84828501620002db565b91505092915050565b6200032f81620002ad565b82525050565b60006020820190506200034c600083018462000324565b92915050565b61292980620003626000396000f3fe60806040526004361061010d5760003560e01c8063aabc5b9711610095578063d8a3211411610064578063d8a32114146102fd578063ddbcb5fa14610328578063e82c580814610353578063e8d6e0de1461037e578063f8413b07146103a957610114565b8063aabc5b9714610253578063b0ddccec1461027e578063c20fb04614610295578063d40dc870146102d257610114565b8063401c8a53116100dc578063401c8a53146101b157806353ae8717146101bb5780636d85e450146101e65780639535afc314610211578063a225e6c11461022857610114565b806308cfaa4a1461011657806324b8fbf6146101415780632b445d781461015d578063365b98b21461017457610114565b3661011457005b005b34801561012257600080fd5b5061012b6103c0565b6040516101389190611bbe565b60405180910390f35b61015b60048036038101906101569190611d91565b6103ca565b005b34801561016957600080fd5b50610172610905565b005b34801561018057600080fd5b5061019b60048036038101906101969190611e19565b610ec2565b6040516101a89190611e67565b60405180910390f35b6101b9610f01565b005b3480156101c757600080fd5b506101d0611337565b6040516101dd9190611e67565b60405180910390f35b3480156101f257600080fd5b506101fb611361565b6040516102089190611e67565b60405180910390f35b34801561021d57600080fd5b50610226611387565b005b34801561023457600080fd5b5061023d6116f8565b60405161024a9190611e67565b60405180910390f35b34801561025f57600080fd5b50610268611722565b6040516102759190611bbe565b60405180910390f35b34801561028a57600080fd5b50610293611728565b005b3480156102a157600080fd5b506102bc60048036038101906102b79190611eae565b61186e565b6040516102c99190611ef7565b60405180910390f35b3480156102de57600080fd5b506102e7611a2a565b6040516102f49190611bbe565b60405180910390f35b34801561030957600080fd5b50610312611a30565b60405161031f9190611ef7565b60405180910390f35b34801561033457600080fd5b5061033d611a41565b60405161034a9190611bbe565b60405180910390f35b34801561035f57600080fd5b50610368611a47565b6040516103759190611e67565b60405180910390f35b34801561038a57600080fd5b50610393611a71565b6040516103a09190611e67565b60405180910390f35b3480156103b557600080fd5b506103be611a9b565b005b6000600b54905090565b336000805b6010805490508160ff16101561046c578273ffffffffffffffffffffffffffffffffffffffff1660108260ff168154811061040d5761040c611f12565b5b9060005260206000200160009054906101000a900473ffffffffffffffffffffffffffffffffffffffff1673ffffffffffffffffffffffffffffffffffffffff16141561045957600191505b808061046490611f7d565b9150506103cf565b5080156104ae576040517f08c379a00000000000000000000000000000000000000000000000000000000081526004016104a590612004565b60405180910390fd5b836000813b9050600081146104f8576040517f08c379a00000000000000000000000000000000000000000000000000000000081526004016104ef90612096565b60405180910390fd5b60015434101561053d576040517f08c379a000000000000000000000000000000000000000000000000000000000815260040161053490612128565b60405180910390fd5b600254341115610582576040517f08c379a0000000000000000000000000000000000000000000000000000000008152600401610579906121ba565b60405180910390fd5b6000600f60003373ffffffffffffffffffffffffffffffffffffffff1673ffffffffffffffffffffffffffffffffffffffff16815260200190815260200160002060020160036101000a81548160ff021916908360000b60ff16021790555085600f60003373ffffffffffffffffffffffffffffffffffffffff1673ffffffffffffffffffffffffffffffffffffffff16815260200190815260200160002060000160006101000a81548173ffffffffffffffffffffffffffffffffffffffff021916908373ffffffffffffffffffffffffffffffffffffffff1602179055506001600f60003373ffffffffffffffffffffffffffffffffffffffff1673ffffffffffffffffffffffffffffffffffffffff16815260200190815260200160002060020160016101000a81548160ff02191690831515021790555034600f60003373ffffffffffffffffffffffffffffffffffffffff1673ffffffffffffffffffffffffffffffffffffffff168152602001908152602001600020600101819055506000600f60003373ffffffffffffffffffffffffffffffffffffffff1673ffffffffffffffffffffffffffffffffffffffff16815260200190815260200160002060020160006101000a81548160ff0219169083151502179055506001600f60003373ffffffffffffffffffffffffffffffffffffffff1673ffffffffffffffffffffffffffffffffffffffff16815260200190815260200160002060020160026101000a81548160ff021916908315150217905550600560009054906101000a900473ffffffffffffffffffffffffffffffffffffffff1673ffffffffffffffffffffffffffffffffffffffff16635082566a34346040518363ffffffff1660e01b81526004016108169190611bbe565b6000604051808303818588803b15801561082f57600080fd5b505af1158015610843573d6000803e3d6000fd5b5050505050346007600082825461085a91906121da565b925050819055506010339080600181540180825580915050600190039060005260206000200160009091909190916101000a81548173ffffffffffffffffffffffffffffffffffffffff021916908373ffffffffffffffffffffffffffffffffffffffff1602179055507f75dffe0fb61ff2c8945116ae986d8a0a87751d4addbdf798e256d7415aa4162d33426040516108f5929190612230565b60405180910390a1505050505050565b600360109054906101000a900467ffffffffffffffff1667ffffffffffffffff16600954426109349190612259565b11610974576040517f08c379a000000000000000000000000000000000000000000000000000000000815260040161096b906122d9565b60405180910390fd5b60005b6010805490508160ff161015610ebf5760001515600f600060108460ff16815481106109a6576109a5611f12565b5b9060005260206000200160009054906101000a900473ffffffffffffffffffffffffffffffffffffffff1673ffffffffffffffffffffffffffffffffffffffff1673ffffffffffffffffffffffffffffffffffffffff16815260200190815260200160002060020160019054906101000a900460ff161515148015610abf575060001515600f600060108460ff1681548110610a4557610a44611f12565b5b9060005260206000200160009054906101000a900473ffffffffffffffffffffffffffffffffffffffff1673ffffffffffffffffffffffffffffffffffffffff1673ffffffffffffffffffffffffffffffffffffffff16815260200190815260200160002060020160009054906101000a900460ff161515145b15610eac576000600f600060108460ff1681548110610ae157610ae0611f12565b5b9060005260206000200160009054906101000a900473ffffffffffffffffffffffffffffffffffffffff1673ffffffffffffffffffffffffffffffffffffffff1673ffffffffffffffffffffffffffffffffffffffff16815260200190815260200160002060000160009054906101000a900473ffffffffffffffffffffffffffffffffffffffff1673ffffffffffffffffffffffffffffffffffffffff16600f600060108560ff1681548110610b9b57610b9a611f12565b5b9060005260206000200160009054906101000a900473ffffffffffffffffffffffffffffffffffffffff1673ffffffffffffffffffffffffffffffffffffffff1673ffffffffffffffffffffffffffffffffffffffff16815260200190815260200160002060010154604051610c109061232a565b60006040518083038185875af1925050503d8060008114610c4d576040519150601f19603f3d011682016040523d82523d6000602084013e610c52565b606091505b5050905080610c96576040517f08c379a0000000000000000000000000000000000000000000000000000000008152600401610c8d906123b1565b60405180910390fd5b600f600060108460ff1681548110610cb157610cb0611f12565b5b9060005260206000200160009054906101000a900473ffffffffffffffffffffffffffffffffffffffff1673ffffffffffffffffffffffffffffffffffffffff1673ffffffffffffffffffffffffffffffffffffffff1681526020019081526020016000206001015460076000828254610d2b9190612259565b925050819055506001600f600060108560ff1681548110610d4f57610d4e611f12565b5b9060005260206000200160009054906101000a900473ffffffffffffffffffffffffffffffffffffffff1673ffffffffffffffffffffffffffffffffffffffff1673ffffffffffffffffffffffffffffffffffffffff16815260200190815260200160002060020160006101000a81548160ff0219169083151502179055507f1b21905e26e2a9ba69b27c5f747c514d5cc18b441276ca90063b707d7c94b7d7600f600060108560ff1681548110610e0a57610e09611f12565b5b9060005260206000200160009054906101000a900473ffffffffffffffffffffffffffffffffffffffff1673ffffffffffffffffffffffffffffffffffffffff1673ffffffffffffffffffffffffffffffffffffffff16815260200190815260200160002060000160009054906101000a900473ffffffffffffffffffffffffffffffffffffffff1642604051610ea2929190612430565b60405180910390a1505b8080610eb790611f7d565b915050610977565b50565b60108181548110610ed257600080fd5b906000526020600020016000915054906101000a900473ffffffffffffffffffffffffffffffffffffffff1681565b600360189054906101000a900467ffffffffffffffff1667ffffffffffffffff16600a5442610f309190612259565b11610f70576040517f08c379a0000000000000000000000000000000000000000000000000000000008152600401610f67906124a5565b60405180910390fd5b600080600460009054906101000a900473ffffffffffffffffffffffffffffffffffffffff1673ffffffffffffffffffffffffffffffffffffffff1663d8a4676f600e546040518263ffffffff1660e01b8152600401610fd09190611bbe565b600060405180830381865afa158015610fed573d6000803e3d6000fd5b505050506040513d6000823e3d601f19601f8201168201806040525081019061101691906125da565b915091508161105a576040517f08c379a000000000000000000000000000000000000000000000000000000000815260040161105190612682565b60405180910390fd5b600081514261106991906126d1565b9050600060108054905083838151811061108657611085611f12565b5b602002602001015161109891906126d1565b90506000600f6000601084815481106110b4576110b3611f12565b5b9060005260206000200160009054906101000a900473ffffffffffffffffffffffffffffffffffffffff1673ffffffffffffffffffffffffffffffffffffffff1673ffffffffffffffffffffffffffffffffffffffff16815260200190815260200160002060000160009054906101000a900473ffffffffffffffffffffffffffffffffffffffff1690506000600560009054906101000a900473ffffffffffffffffffffffffffffffffffffffff1673ffffffffffffffffffffffffffffffffffffffff1663a4c3050a6007546040518263ffffffff1660e01b815260040161119e9190611bbe565b602060405180830381865afa1580156111bb573d6000803e3d6000fd5b505050506040513d601f19601f820116820180604052508101906111df9190612702565b90506000600a6009836111f2919061272f565b6111fc9190612789565b905060008373ffffffffffffffffffffffffffffffffffffffff16826040516112249061232a565b60006040518083038185875af1925050503d8060008114611261576040519150601f19603f3d011682016040523d82523d6000602084013e611266565b606091505b50509050806112aa576040517f08c379a00000000000000000000000000000000000000000000000000000000081526004016112a190612806565b60405180910390fd5b81600b8190555083600c60006101000a81548173ffffffffffffffffffffffffffffffffffffffff021916908373ffffffffffffffffffffffffffffffffffffffff1602179055507facb1c6bbc8309d4395ac4513e93d0f98a91c1914159bc434bf46f03923ce5a5384834260405161132593929190612826565b60405180910390a15050505050505050565b6000600660009054906101000a900473ffffffffffffffffffffffffffffffffffffffff16905090565b600c60009054906101000a900473ffffffffffffffffffffffffffffffffffffffff1681565b600360009054906101000a900467ffffffffffffffff1667ffffffffffffffff16600854426113b69190612259565b116113f6576040517f08c379a00000000000000000000000000000000000000000000000000000000081526004016113ed906122d9565b60405180910390fd5b4260088190555060005b6010805490508160ff1610156116be57600f600060108360ff168154811061142b5761142a611f12565b5b9060005260206000200160009054906101000a900473ffffffffffffffffffffffffffffffffffffffff1673ffffffffffffffffffffffffffffffffffffffff1673ffffffffffffffffffffffffffffffffffffffff16815260200190815260200160002060020160019054906101000a900460ff161561156357600f600060108360ff16815481106114c1576114c0611f12565b5b9060005260206000200160009054906101000a900473ffffffffffffffffffffffffffffffffffffffff1673ffffffffffffffffffffffffffffffffffffffff1673ffffffffffffffffffffffffffffffffffffffff168152602001908152602001600020600201600381819054906101000a900460000b809291906115469061285d565b91906101000a81548160ff021916908360000b60ff160217905550505b60008054906101000a900460000b60000b600f600060108460ff168154811061158f5761158e611f12565b5b9060005260206000200160009054906101000a900473ffffffffffffffffffffffffffffffffffffffff1673ffffffffffffffffffffffffffffffffffffffff1673ffffffffffffffffffffffffffffffffffffffff16815260200190815260200160002060020160039054906101000a900460000b60000b13156116ab576000600f600060108460ff168154811061162b5761162a611f12565b5b9060005260206000200160009054906101000a900473ffffffffffffffffffffffffffffffffffffffff1673ffffffffffffffffffffffffffffffffffffffff1673ffffffffffffffffffffffffffffffffffffffff16815260200190815260200160002060020160016101000a81548160ff0219169083151502179055505b80806116b690611f7d565b915050611400565b507fd5a689c847ea8c5e0d3431889f2d9262f839825775f1ac53541cba01d4b6780e426040516116ee9190611bbe565b60405180910390a1565b6000600460009054906101000a900473ffffffffffffffffffffffffffffffffffffffff16905090565b600b5481565b336000805b6010805490508160ff1610156117ca578273ffffffffffffffffffffffffffffffffffffffff1660108260ff168154811061176b5761176a611f12565b5b9060005260206000200160009054906101000a900473ffffffffffffffffffffffffffffffffffffffff1673ffffffffffffffffffffffffffffffffffffffff1614156117b757600191505b80806117c290611f7d565b91505061172d565b508061180b576040517f08c379a0000000000000000000000000000000000000000000000000000000008152600401611802906128d3565b60405180910390fd5b6000600f60003373ffffffffffffffffffffffffffffffffffffffff1673ffffffffffffffffffffffffffffffffffffffff16815260200190815260200160002060020160036101000a81548160ff021916908360000b60ff1602179055505050565b6000816000805b6010805490508160ff161015611912578273ffffffffffffffffffffffffffffffffffffffff1660108260ff16815481106118b3576118b2611f12565b5b9060005260206000200160009054906101000a900473ffffffffffffffffffffffffffffffffffffffff1673ffffffffffffffffffffffffffffffffffffffff1614156118ff57600191505b808061190a90611f7d565b915050611875565b5080611953576040517f08c379a000000000000000000000000000000000000000000000000000000000815260040161194a906128d3565b60405180910390fd5b600f60008573ffffffffffffffffffffffffffffffffffffffff1673ffffffffffffffffffffffffffffffffffffffff16815260200190815260200160002060020160019054906101000a900460ff16156119ff57600f60008573ffffffffffffffffffffffffffffffffffffffff1673ffffffffffffffffffffffffffffffffffffffff16815260200190815260200160002060020160039054906101000a900460000b9250611a23565b7fffffffffffffffffffffffffffffffffffffffffffffffffffffffffffffffff92505b5050919050565b60025481565b60008054906101000a900460000b81565b60015481565b6000600c60009054906101000a900473ffffffffffffffffffffffffffffffffffffffff16905090565b6000600560009054906101000a900473ffffffffffffffffffffffffffffffffffffffff16905090565b600360089054906101000a900467ffffffffffffffff1667ffffffffffffffff16600d5442611aca9190612259565b11611b0a576040517f08c379a0000000000000000000000000000000000000000000000000000000008152600401611b01906124a5565b60405180910390fd5b600460009054906101000a900473ffffffffffffffffffffffffffffffffffffffff1673ffffffffffffffffffffffffffffffffffffffff1663e0c862896040518163ffffffff1660e01b81526004016020604051808303816000875af1158015611b79573d6000803e3d6000fd5b505050506040513d601f19601f82011682018060405250810190611b9d9190612702565b600e81905550565b6000819050919050565b611bb881611ba5565b82525050565b6000602082019050611bd36000830184611baf565b92915050565b6000604051905090565b600080fd5b600080fd5b600073ffffffffffffffffffffffffffffffffffffffff82169050919050565b6000611c1882611bed565b9050919050565b611c2881611c0d565b8114611c3357600080fd5b50565b600081359050611c4581611c1f565b92915050565b600080fd5b600080fd5b6000601f19601f8301169050919050565b7f4e487b7100000000000000000000000000000000000000000000000000000000600052604160045260246000fd5b611c9e82611c55565b810181811067ffffffffffffffff82111715611cbd57611cbc611c66565b5b80604052505050565b6000611cd0611bd9565b9050611cdc8282611c95565b919050565b600067ffffffffffffffff821115611cfc57611cfb611c66565b5b611d0582611c55565b9050602081019050919050565b82818337600083830152505050565b6000611d34611d2f84611ce1565b611cc6565b905082815260208101848484011115611d5057611d4f611c50565b5b611d5b848285611d12565b509392505050565b600082601f830112611d7857611d77611c4b565b5b8135611d88848260208601611d21565b91505092915050565b60008060408385031215611da857611da7611be3565b5b6000611db685828601611c36565b925050602083013567ffffffffffffffff811115611dd757611dd6611be8565b5b611de385828601611d63565b9150509250929050565b611df681611ba5565b8114611e0157600080fd5b50565b600081359050611e1381611ded565b92915050565b600060208284031215611e2f57611e2e611be3565b5b6000611e3d84828501611e04565b91505092915050565b6000611e5182611bed565b9050919050565b611e6181611e46565b82525050565b6000602082019050611e7c6000830184611e58565b92915050565b611e8b81611e46565b8114611e9657600080fd5b50565b600081359050611ea881611e82565b92915050565b600060208284031215611ec457611ec3611be3565b5b6000611ed284828501611e99565b91505092915050565b60008160000b9050919050565b611ef181611edb565b82525050565b6000602082019050611f0c6000830184611ee8565b92915050565b7f4e487b7100000000000000000000000000000000000000000000000000000000600052603260045260246000fd5b7f4e487b7100000000000000000000000000000000000000000000000000000000600052601160045260246000fd5b600060ff82169050919050565b6000611f8882611f70565b915060ff821415611f9c57611f9b611f41565b5b600182019050919050565b600082825260208201905092915050565b7f416c726561647920726567697374657265642100000000000000000000000000600082015250565b6000611fee601383611fa7565b9150611ff982611fb8565b602082019050919050565b6000602082019050818103600083015261201d81611fe1565b9050919050565b7f4b696e20416464726573732063616e6e6f74206265206120736d61727420636f60008201527f6e74726163742100000000000000000000000000000000000000000000000000602082015250565b6000612080602783611fa7565b915061208b82612024565b604082019050919050565b600060208201905081810360008301526120af81612073565b9050919050565b7f4d696e696d756d20526567697374726174696f6e20697320302e303031204d4160008201527f5449430000000000000000000000000000000000000000000000000000000000602082015250565b6000612112602383611fa7565b915061211d826120b6565b604082019050919050565b6000602082019050818103600083015261214181612105565b9050919050565b7f43616e6e6f742072656769737465722077697468206d6f7265207468616e203160008201527f204d415449430000000000000000000000000000000000000000000000000000602082015250565b60006121a4602683611fa7565b91506121af82612148565b604082019050919050565b600060208201905081810360008301526121d381612197565b9050919050565b60006121e582611ba5565b91506121f083611ba5565b9250827fffffffffffffffffffffffffffffffffffffffffffffffffffffffffffffffff0382111561222557612224611f41565b5b828201905092915050565b60006040820190506122456000830185611e58565b6122526020830184611baf565b9392505050565b600061226482611ba5565b915061226f83611ba5565b92508282101561228257612281611f41565b5b828203905092915050565b7f4e6f7420757020746f203620686f757273210000000000000000000000000000600082015250565b60006122c3601283611fa7565b91506122ce8261228d565b602082019050919050565b600060208201905081810360008301526122f2816122b6565b9050919050565b600081905092915050565b50565b60006123146000836122f9565b915061231f82612304565b600082019050919050565b600061233582612307565b9150819050919050565b7f4661696c656420746f2073656e6420496e6865726974616e636520746f206b6960008201527f6e2e000000000000000000000000000000000000000000000000000000000000602082015250565b600061239b602283611fa7565b91506123a68261233f565b604082019050919050565b600060208201905081810360008301526123ca8161238e565b9050919050565b6000819050919050565b60006123f66123f16123ec84611bed565b6123d1565b611bed565b9050919050565b6000612408826123db565b9050919050565b600061241a826123fd565b9050919050565b61242a8161240f565b82525050565b60006040820190506124456000830185612421565b6124526020830184611baf565b9392505050565b7f4e6f7420757020746f2061204461792100000000000000000000000000000000600082015250565b600061248f601083611fa7565b915061249a82612459565b602082019050919050565b600060208201905081810360008301526124be81612482565b9050919050565b60008115159050919050565b6124da816124c5565b81146124e557600080fd5b50565b6000815190506124f7816124d1565b92915050565b600067ffffffffffffffff82111561251857612517611c66565b5b602082029050602081019050919050565b600080fd5b60008151905061253d81611ded565b92915050565b6000612556612551846124fd565b611cc6565b9050808382526020820190506020840283018581111561257957612578612529565b5b835b818110156125a2578061258e888261252e565b84526020840193505060208101905061257b565b5050509392505050565b600082601f8301126125c1576125c0611c4b565b5b81516125d1848260208601612543565b91505092915050565b600080604083850312156125f1576125f0611be3565b5b60006125ff858286016124e8565b925050602083015167ffffffffffffffff8111156126205761261f611be8565b5b61262c858286016125ac565b9150509250929050565b7f52616e646f6d20576f726473206e6f7420726563656976656421000000000000600082015250565b600061266c601a83611fa7565b915061267782612636565b602082019050919050565b6000602082019050818103600083015261269b8161265f565b9050919050565b7f4e487b7100000000000000000000000000000000000000000000000000000000600052601260045260246000fd5b60006126dc82611ba5565b91506126e783611ba5565b9250826126f7576126f66126a2565b5b828206905092915050565b60006020828403121561271857612717611be3565b5b60006127268482850161252e565b91505092915050565b600061273a82611ba5565b915061274583611ba5565b9250817fffffffffffffffffffffffffffffffffffffffffffffffffffffffffffffffff048311821515161561277e5761277d611f41565b5b828202905092915050565b600061279482611ba5565b915061279f83611ba5565b9250826127af576127ae6126a2565b5b828204905092915050565b7f4661696c656420746f20626c657373206b696e2e000000000000000000000000600082015250565b60006127f0601483611fa7565b91506127fb826127ba565b602082019050919050565b6000602082019050818103600083015261281f816127e3565b9050919050565b600060608201905061283b6000830186611e58565b6128486020830185611baf565b6128556040830184611baf565b949350505050565b600061286882611edb565b9150607f82141561287c5761287b611f41565b5b600182019050919050565b7f55736572206973206e6f74207265676973746572656421000000000000000000600082015250565b60006128bd601783611fa7565b91506128c882612887565b602082019050919050565b600060208201905081810360008301526128ec816128b0565b905091905056fea264697066735822122016aac20a96ae8607b687df675e1e06a9fa493b53363aaf3aeb57f7b55781363464736f6c634300080a003360a06040527f4b09e658ed251bcafeebbc69400383d49f344ace09b9576fe248bb02c003fe9f60001b600655621e8480600760006101000a81548163ffffffff021916908363ffffffff1602179055506003600760046101000a81548161ffff021916908361ffff1602179055506005600760066101000a81548163ffffffff021916908363ffffffff16021790555060006007600a6101000a81548160ff021916908315150217905550348015620000b757600080fd5b5060405162001899380380620018998339818101604052810190620000dd919062000427565b33806000737a1bac17ccc5b313516c5e16fb24f7659aa5ebed8073ffffffffffffffffffffffffffffffffffffffff1660808173ffffffffffffffffffffffffffffffffffffffff168152505050600073ffffffffffffffffffffffffffffffffffffffff168273ffffffffffffffffffffffffffffffffffffffff1614156200019e576040517f08c379a00000000000000000000000000000000000000000000000000000000081526004016200019590620004ba565b60405180910390fd5b816000806101000a81548173ffffffffffffffffffffffffffffffffffffffff021916908373ffffffffffffffffffffffffffffffffffffffff160217905550600073ffffffffffffffffffffffffffffffffffffffff168173ffffffffffffffffffffffffffffffffffffffff161462000225576200022481620002ad60201b60201c565b5b505050737a1bac17ccc5b313516c5e16fb24f7659aa5ebed600360006101000a81548173ffffffffffffffffffffffffffffffffffffffff021916908373ffffffffffffffffffffffffffffffffffffffff16021790555080600360146101000a81548167ffffffffffffffff021916908367ffffffffffffffff160217905550506200054e565b3373ffffffffffffffffffffffffffffffffffffffff168173ffffffffffffffffffffffffffffffffffffffff1614156200031f576040517f08c379a000000000000000000000000000000000000000000000000000000000815260040162000316906200052c565b60405180910390fd5b80600160006101000a81548173ffffffffffffffffffffffffffffffffffffffff021916908373ffffffffffffffffffffffffffffffffffffffff1602179055508073ffffffffffffffffffffffffffffffffffffffff1660008054906101000a900473ffffffffffffffffffffffffffffffffffffffff1673ffffffffffffffffffffffffffffffffffffffff167fed8889f560326eb138920d842192f0eb3dd22b4f139c87a2c57538e05bae127860405160405180910390a350565b600080fd5b600067ffffffffffffffff82169050919050565b6200040181620003e2565b81146200040d57600080fd5b50565b6000815190506200042181620003f6565b92915050565b60006020828403121562000440576200043f620003dd565b5b6000620004508482850162000410565b91505092915050565b600082825260208201905092915050565b7f43616e6e6f7420736574206f776e657220746f207a65726f0000000000000000600082015250565b6000620004a260188362000459565b9150620004af826200046a565b602082019050919050565b60006020820190508181036000830152620004d58162000493565b9050919050565b7f43616e6e6f74207472616e7366657220746f2073656c66000000000000000000600082015250565b60006200051460178362000459565b91506200052182620004dc565b602082019050919050565b60006020820190508181036000830152620005478162000505565b9050919050565b60805161132862000571600039600081816101c8015261021c01526113286000f3fe608060405234801561001057600080fd5b50600436106100935760003560e01c80638da5cb5b116100665780638da5cb5b1461011f578063d8a4676f1461013d578063e0c862891461016e578063f2fde38b1461018c578063fc2a88c3146101a857610093565b80631fe543e31461009857806379ba5097146100b457806381d12c58146100be5780638796ba8c146100ef575b600080fd5b6100b260048036038101906100ad9190610d08565b6101c6565b005b6100bc610286565b005b6100d860048036038101906100d39190610d64565b61041b565b6040516100e6929190610dac565b60405180910390f35b61010960048036038101906101049190610d64565b610459565b6040516101169190610de4565b60405180910390f35b61012761047d565b6040516101349190610e40565b60405180910390f35b61015760048036038101906101529190610d64565b6104a6565b604051610165929190610f19565b60405180910390f35b6101766105d1565b6040516101839190610de4565b60405180910390f35b6101a660048036038101906101a19190610f75565b61082a565b005b6101b061083e565b6040516101bd9190610de4565b60405180910390f35b7f000000000000000000000000000000000000000000000000000000000000000073ffffffffffffffffffffffffffffffffffffffff163373ffffffffffffffffffffffffffffffffffffffff161461027857337f00000000000000000000000000000000000000000000000000000000000000006040517f1cf993f400000000000000000000000000000000000000000000000000000000815260040161026f929190610fa2565b60405180910390fd5b6102828282610844565b5050565b600160009054906101000a900473ffffffffffffffffffffffffffffffffffffffff1673ffffffffffffffffffffffffffffffffffffffff163373ffffffffffffffffffffffffffffffffffffffff1614610316576040517f08c379a000000000000000000000000000000000000000000000000000000000815260040161030d90611028565b60405180910390fd5b60008060009054906101000a900473ffffffffffffffffffffffffffffffffffffffff169050336000806101000a81548173ffffffffffffffffffffffffffffffffffffffff021916908373ffffffffffffffffffffffffffffffffffffffff1602179055506000600160006101000a81548173ffffffffffffffffffffffffffffffffffffffff021916908373ffffffffffffffffffffffffffffffffffffffff1602179055503373ffffffffffffffffffffffffffffffffffffffff168173ffffffffffffffffffffffffffffffffffffffff167f8be0079c531659141344cd1fd0a4f28419497f9722a3daafe3b4186f6b6457e060405160405180910390a350565b60026020528060005260406000206000915090508060000160009054906101000a900460ff16908060000160019054906101000a900460ff16905082565b6004818154811061046957600080fd5b906000526020600020016000915090505481565b60008060009054906101000a900473ffffffffffffffffffffffffffffffffffffffff16905090565b600060606002600084815260200190815260200160002060000160019054906101000a900460ff1661050d576040517f08c379a000000000000000000000000000000000000000000000000000000000815260040161050490611094565b60405180910390fd5b6000600260008581526020019081526020016000206040518060600160405290816000820160009054906101000a900460ff161515151581526020016000820160019054906101000a900460ff16151515158152602001600182018054806020026020016040519081016040528092919081815260200182805480156105b257602002820191906000526020600020905b81548152602001906001019080831161059e575b5050505050815250509050806000015181604001519250925050915091565b60006105db61093e565b600360009054906101000a900473ffffffffffffffffffffffffffffffffffffffff1673ffffffffffffffffffffffffffffffffffffffff16635d3b1d30600654600360149054906101000a900467ffffffffffffffff16600760049054906101000a900461ffff16600760009054906101000a900463ffffffff16600760069054906101000a900463ffffffff166040518663ffffffff1660e01b815260040161068a95949392919061112c565b6020604051808303816000875af11580156106a9573d6000803e3d6000fd5b505050506040513d601f19601f820116820180604052508101906106cd9190611194565b90506040518060600160405280600015158152602001600115158152602001600067ffffffffffffffff81111561070757610706610bc5565b5b6040519080825280602002602001820160405280156107355781602001602082028036833780820191505090505b508152506002600083815260200190815260200160002060008201518160000160006101000a81548160ff02191690831515021790555060208201518160000160016101000a81548160ff02191690831515021790555060408201518160010190805190602001906107a8929190610afb565b509050506004819080600181540180825580915050600190039060005260206000200160009091909190915055806005819055507fcc58b13ad3eab50626c6a6300b1d139cd6ebb1688a7cced9461c2f7e762665ee81600760069054906101000a900463ffffffff1660405161081f9291906111c1565b60405180910390a190565b61083261093e565b61083b816109ce565b50565b60055481565b6002600083815260200190815260200160002060000160019054906101000a900460ff166108a7576040517f08c379a000000000000000000000000000000000000000000000000000000000815260040161089e90611094565b60405180910390fd5b60016002600084815260200190815260200160002060000160006101000a81548160ff02191690831515021790555080600260008481526020019081526020016000206001019080519060200190610900929190610afb565b507ffe2e2d779dba245964d4e3ef9b994be63856fd568bf7d3ca9e224755cb1bd54d82826040516109329291906111ea565b60405180910390a15050565b60008054906101000a900473ffffffffffffffffffffffffffffffffffffffff1673ffffffffffffffffffffffffffffffffffffffff163373ffffffffffffffffffffffffffffffffffffffff16146109cc576040517f08c379a00000000000000000000000000000000000000000000000000000000081526004016109c390611266565b60405180910390fd5b565b3373ffffffffffffffffffffffffffffffffffffffff168173ffffffffffffffffffffffffffffffffffffffff161415610a3d576040517f08c379a0000000000000000000000000000000000000000000000000000000008152600401610a34906112d2565b60405180910390fd5b80600160006101000a81548173ffffffffffffffffffffffffffffffffffffffff021916908373ffffffffffffffffffffffffffffffffffffffff1602179055508073ffffffffffffffffffffffffffffffffffffffff1660008054906101000a900473ffffffffffffffffffffffffffffffffffffffff1673ffffffffffffffffffffffffffffffffffffffff167fed8889f560326eb138920d842192f0eb3dd22b4f139c87a2c57538e05bae127860405160405180910390a350565b828054828255906000526020600020908101928215610b37579160200282015b82811115610b36578251825591602001919060010190610b1b565b5b509050610b449190610b48565b5090565b5b80821115610b61576000816000905550600101610b49565b5090565b6000604051905090565b600080fd5b600080fd5b6000819050919050565b610b8c81610b79565b8114610b9757600080fd5b50565b600081359050610ba981610b83565b92915050565b600080fd5b6000601f19601f8301169050919050565b7f4e487b7100000000000000000000000000000000000000000000000000000000600052604160045260246000fd5b610bfd82610bb4565b810181811067ffffffffffffffff82111715610c1c57610c1b610bc5565b5b80604052505050565b6000610c2f610b65565b9050610c3b8282610bf4565b919050565b600067ffffffffffffffff821115610c5b57610c5a610bc5565b5b602082029050602081019050919050565b600080fd5b6000610c84610c7f84610c40565b610c25565b90508083825260208201905060208402830185811115610ca757610ca6610c6c565b5b835b81811015610cd05780610cbc8882610b9a565b845260208401935050602081019050610ca9565b5050509392505050565b600082601f830112610cef57610cee610baf565b5b8135610cff848260208601610c71565b91505092915050565b60008060408385031215610d1f57610d1e610b6f565b5b6000610d2d85828601610b9a565b925050602083013567ffffffffffffffff811115610d4e57610d4d610b74565b5b610d5a85828601610cda565b9150509250929050565b600060208284031215610d7a57610d79610b6f565b5b6000610d8884828501610b9a565b91505092915050565b60008115159050919050565b610da681610d91565b82525050565b6000604082019050610dc16000830185610d9d565b610dce6020830184610d9d565b9392505050565b610dde81610b79565b82525050565b6000602082019050610df96000830184610dd5565b92915050565b600073ffffffffffffffffffffffffffffffffffffffff82169050919050565b6000610e2a82610dff565b9050919050565b610e3a81610e1f565b82525050565b6000602082019050610e556000830184610e31565b92915050565b600081519050919050565b600082825260208201905092915050565b6000819050602082019050919050565b610e9081610b79565b82525050565b6000610ea28383610e87565b60208301905092915050565b6000602082019050919050565b6000610ec682610e5b565b610ed08185610e66565b9350610edb83610e77565b8060005b83811015610f0c578151610ef38882610e96565b9750610efe83610eae565b925050600181019050610edf565b5085935050505092915050565b6000604082019050610f2e6000830185610d9d565b8181036020830152610f408184610ebb565b90509392505050565b610f5281610e1f565b8114610f5d57600080fd5b50565b600081359050610f6f81610f49565b92915050565b600060208284031215610f8b57610f8a610b6f565b5b6000610f9984828501610f60565b91505092915050565b6000604082019050610fb76000830185610e31565b610fc46020830184610e31565b9392505050565b600082825260208201905092915050565b7f4d7573742062652070726f706f736564206f776e657200000000000000000000600082015250565b6000611012601683610fcb565b915061101d82610fdc565b602082019050919050565b6000602082019050818103600083015261104181611005565b9050919050565b7f72657175657374206e6f7420666f756e64000000000000000000000000000000600082015250565b600061107e601183610fcb565b915061108982611048565b602082019050919050565b600060208201905081810360008301526110ad81611071565b9050919050565b6000819050919050565b6110c7816110b4565b82525050565b600067ffffffffffffffff82169050919050565b6110ea816110cd565b82525050565b600061ffff82169050919050565b611107816110f0565b82525050565b600063ffffffff82169050919050565b6111268161110d565b82525050565b600060a08201905061114160008301886110be565b61114e60208301876110e1565b61115b60408301866110fe565b611168606083018561111d565b611175608083018461111d565b9695505050505050565b60008151905061118e81610b83565b92915050565b6000602082840312156111aa576111a9610b6f565b5b60006111b88482850161117f565b91505092915050565b60006040820190506111d66000830185610dd5565b6111e3602083018461111d565b9392505050565b60006040820190506111ff6000830185610dd5565b81810360208301526112118184610ebb565b90509392505050565b7f4f6e6c792063616c6c61626c65206279206f776e657200000000000000000000600082015250565b6000611250601683610fcb565b915061125b8261121a565b602082019050919050565b6000602082019050818103600083015261127f81611243565b9050919050565b7f43616e6e6f74207472616e7366657220746f2073656c66000000000000000000600082015250565b60006112bc601783610fcb565b91506112c782611286565b602082019050919050565b600060208201905081810360008301526112eb816112af565b905091905056fea26469706673582212209c6a81876c12e571c14bcfa03a0a475d42b36ec0fafa594266f02e36bf3d4a8264736f6c634300080a0033608060405260405180610100016040528060ce8152602001610c2560ce913960009080519060200190610033929190610046565b5034801561004057600080fd5b5061014a565b82805461005290610118565b90600052602060002090601f01602090048101928261007457600085556100bb565b82601f1061008d57805160ff19168380011785556100bb565b828001600101855582156100bb579182015b828111156100ba57825182559160200191906001019061009f565b5b5090506100c891906100cc565b5090565b5b808211156100e55760008160009055506001016100cd565b5090565b7f4e487b7100000000000000000000000000000000000000000000000000000000600052602260045260246000fd5b6000600282049050600182168061013057607f821691505b60208210811415610144576101436100e9565b5b50919050565b610acc806101596000396000f3fe608060405234801561001057600080fd5b50600436106100575760003560e01c80634a41d1ac1461005c57806397aba7f91461008c578063a7bb5803146100bc578063b446f3b2146100ee578063fa5408011461011e575b600080fd5b61007660048036038101906100719190610524565b61014e565b604051610083919061059b565b60405180910390f35b6100a660048036038101906100a191906105ec565b610235565b6040516100b39190610657565b60405180910390f35b6100d660048036038101906100d19190610672565b6102a4565b6040516100e5939291906106e6565b60405180910390f35b610108600480360381019061010391906107be565b61030c565b6040516101159190610807565b60405180910390f35b61013860048036038101906101339190610822565b61033c565b6040516101459190610807565b60405180910390f35b6000806101e4600080546101619061087e565b80601f016020809104026020016040519081016040528092919081815260200182805461018d9061087e565b80156101da5780601f106101af576101008083540402835291602001916101da565b820191906000526020600020905b8154815290600101906020018083116101bd57829003601f168201915b505050505061030c565b905060006101f18261033c565b90508473ffffffffffffffffffffffffffffffffffffffff166102148286610235565b73ffffffffffffffffffffffffffffffffffffffff16149250505092915050565b600080600080610244856102a4565b9250925092506001868285856040516000815260200160405260405161026d94939291906108b0565b6020604051602081039080840390855afa15801561028f573d6000803e3d6000fd5b50505060206040510351935050505092915050565b600080600060418451146102ed576040517f08c379a00000000000000000000000000000000000000000000000000000000081526004016102e490610952565b60405180910390fd5b6020840151925060408401519150606084015160001a90509193909250565b60008160405160200161031f91906109ec565b604051602081830303815290604052805190602001209050919050565b60008160405160200161034f9190610a70565b604051602081830303815290604052805190602001209050919050565b6000604051905090565b600080fd5b600080fd5b600073ffffffffffffffffffffffffffffffffffffffff82169050919050565b60006103ab82610380565b9050919050565b6103bb816103a0565b81146103c657600080fd5b50565b6000813590506103d8816103b2565b92915050565b600080fd5b600080fd5b6000601f19601f8301169050919050565b7f4e487b7100000000000000000000000000000000000000000000000000000000600052604160045260246000fd5b610431826103e8565b810181811067ffffffffffffffff821117156104505761044f6103f9565b5b80604052505050565b600061046361036c565b905061046f8282610428565b919050565b600067ffffffffffffffff82111561048f5761048e6103f9565b5b610498826103e8565b9050602081019050919050565b82818337600083830152505050565b60006104c76104c284610474565b610459565b9050828152602081018484840111156104e3576104e26103e3565b5b6104ee8482856104a5565b509392505050565b600082601f83011261050b5761050a6103de565b5b813561051b8482602086016104b4565b91505092915050565b6000806040838503121561053b5761053a610376565b5b6000610549858286016103c9565b925050602083013567ffffffffffffffff81111561056a5761056961037b565b5b610576858286016104f6565b9150509250929050565b60008115159050919050565b61059581610580565b82525050565b60006020820190506105b0600083018461058c565b92915050565b6000819050919050565b6105c9816105b6565b81146105d457600080fd5b50565b6000813590506105e6816105c0565b92915050565b6000806040838503121561060357610602610376565b5b6000610611858286016105d7565b925050602083013567ffffffffffffffff8111156106325761063161037b565b5b61063e858286016104f6565b9150509250929050565b610651816103a0565b82525050565b600060208201905061066c6000830184610648565b92915050565b60006020828403121561068857610687610376565b5b600082013567ffffffffffffffff8111156106a6576106a561037b565b5b6106b2848285016104f6565b91505092915050565b6106c4816105b6565b82525050565b600060ff82169050919050565b6106e0816106ca565b82525050565b60006060820190506106fb60008301866106bb565b61070860208301856106bb565b61071560408301846106d7565b949350505050565b600067ffffffffffffffff821115610738576107376103f9565b5b610741826103e8565b9050602081019050919050565b600061076161075c8461071d565b610459565b90508281526020810184848401111561077d5761077c6103e3565b5b6107888482856104a5565b509392505050565b600082601f8301126107a5576107a46103de565b5b81356107b584826020860161074e565b91505092915050565b6000602082840312156107d4576107d3610376565b5b600082013567ffffffffffffffff8111156107f2576107f161037b565b5b6107fe84828501610790565b91505092915050565b600060208201905061081c60008301846106bb565b92915050565b60006020828403121561083857610837610376565b5b6000610846848285016105d7565b91505092915050565b7f4e487b7100000000000000000000000000000000000000000000000000000000600052602260045260246000fd5b6000600282049050600182168061089657607f821691505b602082108114156108aa576108a961084f565b5b50919050565b60006080820190506108c560008301876106bb565b6108d260208301866106d7565b6108df60408301856106bb565b6108ec60608301846106bb565b95945050505050565b600082825260208201905092915050565b7f696e76616c6964207369676e6174757265206c656e6774680000000000000000600082015250565b600061093c6018836108f5565b915061094782610906565b602082019050919050565b6000602082019050818103600083015261096b8161092f565b9050919050565b600081519050919050565b600081905092915050565b60005b838110156109a657808201518184015260208101905061098b565b838111156109b5576000848401525b50505050565b60006109c682610972565b6109d0818561097d565b93506109e0818560208601610988565b80840191505092915050565b60006109f882846109bb565b915081905092915050565b7f19457468657265756d205369676e6564204d6573736167653a0a333200000000600082015250565b6000610a39601c8361097d565b9150610a4482610a03565b601c82019050919050565b6000819050919050565b610a6a610a65826105b6565b610a4f565b82525050565b6000610a7b82610a2c565b9150610a878284610a59565b6020820191508190509291505056fea2646970667358221220ff879c0df7d35934a8eb173344959d69ef7f3d074bc630c69da0aa0a2dcf3ad664736f6c634300080a0033492068657265627920617574686f72697a65207468697320736d61727420636f6e747261637420746f2068617665206f776e657273686970206f766572206d79206465706f73697465642066756e647320616e64206772616e7420697420617574686f72697a6174696f6e20746f2073656e6420697420746f204f4e4c59206d792070726f7669646564204e657874206f66204b696e2061646472657373206966204920616d20756e61626c6520746f2070726f7669646520612076616c69646174696f6e206f66204c6966652e60806040527389a6ae840b3f8f489418933a220315eea36d11ff6000806101000a81548173ffffffffffffffffffffffffffffffffffffffff021916908373ffffffffffffffffffffffffffffffffffffffff16021790555060008054906101000a900473ffffffffffffffffffffffffffffffffffffffff16600160006101000a81548173ffffffffffffffffffffffffffffffffffffffff021916908373ffffffffffffffffffffffffffffffffffffffff160217905550732a58e9bbb5434fda7ff78051a4b82cb0ef669c17600260006101000a81548173ffffffffffffffffffffffffffffffffffffffff021916908373ffffffffffffffffffffffffffffffffffffffff160217905550600260009054906101000a900473ffffffffffffffffffffffffffffffffffffffff16600360006101000a81548173ffffffffffffffffffffffffffffffffffffffff021916908373ffffffffffffffffffffffffffffffffffffffff160217905550735343b5ba672ae99d627a1c87866b8e53f47db2e6600460006101000a81548173ffffffffffffffffffffffffffffffffffffffff021916908373ffffffffffffffffffffffffffffffffffffffff1602179055503480156101d257600080fd5b50600460009054906101000a900473ffffffffffffffffffffffffffffffffffffffff1673ffffffffffffffffffffffffffffffffffffffff1663026b1d5f6040518163ffffffff1660e01b8152600401602060405180830381865afa158015610240573d6000803e3d6000fd5b505050506040513d601f19601f82011682018060405250810190610264919061030c565b600560006101000a81548173ffffffffffffffffffffffffffffffffffffffff021916908373ffffffffffffffffffffffffffffffffffffffff160217905550610339565b600080fd5b600073ffffffffffffffffffffffffffffffffffffffff82169050919050565b60006102d9826102ae565b9050919050565b6102e9816102ce565b81146102f457600080fd5b50565b600081519050610306816102e0565b92915050565b600060208284031215610322576103216102a9565b5b6000610330848285016102f7565b91505092915050565b6104a9806103486000396000f3fe6080604052600436106100295760003560e01c80635082566a1461002e578063a4c3050a1461004a575b600080fd5b61004860048036038101906100439190610268565b610087565b005b34801561005657600080fd5b50610071600480360381019061006c9190610268565b610178565b60405161007e91906102a4565b60405180910390f35b600360009054906101000a900473ffffffffffffffffffffffffffffffffffffffff1673ffffffffffffffffffffffffffffffffffffffff1663474cf53d82600560009054906101000a900473ffffffffffffffffffffffffffffffffffffffff163360006040518563ffffffff1660e01b815260040161010a93929190610353565b6000604051808303818588803b15801561012357600080fd5b505af1158015610137573d6000803e3d6000fd5b50505050507f217794e6bdf0f51e3c1497aaa311d34599b9d701c794e143cf9afd53a69af5e0334260405161016d92919061038a565b60405180910390a150565b60008082600160009054906101000a900473ffffffffffffffffffffffffffffffffffffffff1673ffffffffffffffffffffffffffffffffffffffff166370a08231336040518263ffffffff1660e01b81526004016101d791906103b3565b602060405180830381865afa1580156101f4573d6000803e3d6000fd5b505050506040513d601f19601f8201168201806040525081019061021891906103e3565b610222919061043f565b905080915050919050565b600080fd5b6000819050919050565b61024581610232565b811461025057600080fd5b50565b6000813590506102628161023c565b92915050565b60006020828403121561027e5761027d61022d565b5b600061028c84828501610253565b91505092915050565b61029e81610232565b82525050565b60006020820190506102b96000830184610295565b92915050565b600073ffffffffffffffffffffffffffffffffffffffff82169050919050565b60006102ea826102bf565b9050919050565b6102fa816102df565b82525050565b6000819050919050565b600061ffff82169050919050565b6000819050919050565b600061033d61033861033384610300565b610318565b61030a565b9050919050565b61034d81610322565b82525050565b600060608201905061036860008301866102f1565b61037560208301856102f1565b6103826040830184610344565b949350505050565b600060408201905061039f60008301856102f1565b6103ac6020830184610295565b9392505050565b60006020820190506103c860008301846102f1565b92915050565b6000815190506103dd8161023c565b92915050565b6000602082840312156103f9576103f861022d565b5b6000610407848285016103ce565b91505092915050565b7f4e487b7100000000000000000000000000000000000000000000000000000000600052601160045260246000fd5b600061044a82610232565b915061045583610232565b92508282101561046857610467610410565b5b82820390509291505056fea2646970667358221220462eb64d1761c915c763b75e1d2e816a92124314f6c696c9d4f8b51eaf33044564736f6c634300080a0033",
  "linkReferences": {},
  "deployedLinkReferences": {}
}