{
  "_format": "hh-sol-artifact-1",
  "contractName": "AlwaysAlive",
  "sourceName": "contracts/AlwaysAlive.sol",
  "abi": [
    {
      "inputs": [
        {
          "internalType": "uint64",
          "name": "_subscriptionId",
          "type": "uint64"
        }
      ],
      "stateMutability": "payable",
      "type": "constructor"
    },
    {
      "inputs": [
        {
          "internalType": "address",
          "name": "have",
          "type": "address"
        },
        {
          "internalType": "address",
          "name": "want",
          "type": "address"
        }
      ],
      "name": "OnlyCoordinatorCanFulfill",
      "type": "error"
    },
    {
      "anonymous": false,
      "inputs": [
        {
          "indexed": true,
          "internalType": "address",
          "name": "from",
          "type": "address"
        },
        {
          "indexed": true,
          "internalType": "address",
          "name": "to",
          "type": "address"
        }
      ],
      "name": "OwnershipTransferRequested",
      "type": "event"
    },
    {
      "anonymous": false,
      "inputs": [
        {
          "indexed": true,
          "internalType": "address",
          "name": "from",
          "type": "address"
        },
        {
          "indexed": true,
          "internalType": "address",
          "name": "to",
          "type": "address"
        }
      ],
      "name": "OwnershipTransferred",
      "type": "event"
    },
    {
      "anonymous": false,
      "inputs": [
        {
          "indexed": false,
          "internalType": "uint256",
          "name": "requestId",
          "type": "uint256"
        },
        {
          "indexed": false,
          "internalType": "uint256[]",
          "name": "randomWords",
          "type": "uint256[]"
        }
      ],
      "name": "RequestFulfilled",
      "type": "event"
    },
    {
      "anonymous": false,
      "inputs": [
        {
          "indexed": false,
          "internalType": "uint256",
          "name": "requestId",
          "type": "uint256"
        },
        {
          "indexed": false,
          "internalType": "uint32",
          "name": "numWords",
          "type": "uint32"
        }
      ],
      "name": "RequestSent",
      "type": "event"
    },
    {
      "anonymous": false,
      "inputs": [
        {
          "indexed": false,
          "internalType": "address",
          "name": "kin",
          "type": "address"
        },
        {
          "indexed": false,
          "internalType": "uint256",
          "name": "when",
          "type": "uint256"
        }
      ],
      "name": "blessed",
      "type": "event"
    },
    {
      "anonymous": false,
      "inputs": [
        {
          "indexed": false,
          "internalType": "address",
          "name": "payer",
          "type": "address"
        },
        {
          "indexed": false,
          "internalType": "uint256",
          "name": "amount",
          "type": "uint256"
        }
      ],
      "name": "deposited",
      "type": "event"
    },
    {
      "anonymous": false,
      "inputs": [
        {
          "indexed": false,
          "internalType": "uint256",
          "name": "when",
          "type": "uint256"
        }
      ],
      "name": "incrementedConfirmations",
      "type": "event"
    },
    {
      "anonymous": false,
      "inputs": [
        {
          "indexed": false,
          "internalType": "address",
          "name": "kin",
          "type": "address"
        },
        {
          "indexed": false,
          "internalType": "uint256",
          "name": "when",
          "type": "uint256"
        }
      ],
      "name": "inheritered",
      "type": "event"
    },
    {
      "anonymous": false,
      "inputs": [
        {
          "indexed": false,
          "internalType": "address",
          "name": "kin",
          "type": "address"
        },
        {
          "indexed": false,
          "internalType": "uint256",
          "name": "when",
          "type": "uint256"
        }
      ],
      "name": "paidDailyProfits",
      "type": "event"
    },
    {
      "anonymous": false,
      "inputs": [
        {
          "indexed": false,
          "internalType": "address",
          "name": "user",
          "type": "address"
        },
        {
          "indexed": false,
          "internalType": "uint256",
          "name": "when",
          "type": "uint256"
        }
      ],
      "name": "registered",
      "type": "event"
    },
    {
      "stateMutability": "payable",
      "type": "fallback"
    },
    {
      "inputs": [],
      "name": "MAX_NUMBER_OF_CONFIRMATIONS",
      "outputs": [
        {
          "internalType": "uint8",
          "name": "",
          "type": "uint8"
        }
      ],
      "stateMutability": "view",
      "type": "function"
    },
    {
      "inputs": [],
      "name": "MIN_AMOUNT",
      "outputs": [
        {
          "internalType": "uint256",
          "name": "",
          "type": "uint256"
        }
      ],
      "stateMutability": "view",
      "type": "function"
    },
    {
      "inputs": [],
      "name": "acceptOwnership",
      "outputs": [],
      "stateMutability": "nonpayable",
      "type": "function"
    },
    {
      "inputs": [],
      "name": "bless",
      "outputs": [],
      "stateMutability": "view",
      "type": "function"
    },
    {
      "inputs": [
        {
          "internalType": "address",
          "name": "_user",
          "type": "address"
        }
      ],
      "name": "getCurrentConfirmations",
      "outputs": [
        {
          "internalType": "uint8",
          "name": "",
          "type": "uint8"
        }
      ],
      "stateMutability": "view",
      "type": "function"
    },
    {
      "inputs": [],
      "name": "getLastBlessedKin",
      "outputs": [
        {
          "internalType": "address",
          "name": "",
          "type": "address"
        }
      ],
      "stateMutability": "view",
      "type": "function"
    },
    {
      "inputs": [
        {
          "internalType": "uint256",
          "name": "_requestId",
          "type": "uint256"
        }
      ],
      "name": "getRequestStatus",
      "outputs": [
        {
          "internalType": "bool",
          "name": "fulfilled",
          "type": "bool"
        },
        {
          "internalType": "uint256[]",
          "name": "randomWords",
          "type": "uint256[]"
        }
      ],
      "stateMutability": "view",
      "type": "function"
    },
    {
      "inputs": [],
      "name": "incrementConfirmations",
      "outputs": [],
      "stateMutability": "nonpayable",
      "type": "function"
    },
    {
      "inputs": [],
      "name": "inherit",
      "outputs": [],
      "stateMutability": "nonpayable",
      "type": "function"
    },
    {
      "inputs": [],
      "name": "lastBlessedKin",
      "outputs": [
        {
          "internalType": "address",
          "name": "",
          "type": "address"
        }
      ],
      "stateMutability": "view",
      "type": "function"
    },
    {
      "inputs": [],
      "name": "lastRequestId",
      "outputs": [
        {
          "internalType": "uint256",
          "name": "",
          "type": "uint256"
        }
      ],
      "stateMutability": "view",
      "type": "function"
    },
    {
      "inputs": [],
      "name": "owner",
      "outputs": [
        {
          "internalType": "address",
          "name": "",
          "type": "address"
        }
      ],
      "stateMutability": "view",
      "type": "function"
    },
    {
      "inputs": [
        {
          "internalType": "uint256",
          "name": "requestId",
          "type": "uint256"
        },
        {
          "internalType": "uint256[]",
          "name": "randomWords",
          "type": "uint256[]"
        }
      ],
      "name": "rawFulfillRandomWords",
      "outputs": [],
      "stateMutability": "nonpayable",
      "type": "function"
    },
    {
      "inputs": [
        {
          "internalType": "address payable",
          "name": "_kinAddress",
          "type": "address"
        }
      ],
      "name": "register",
      "outputs": [],
      "stateMutability": "payable",
      "type": "function"
    },
    {
      "inputs": [
        {
          "internalType": "uint256",
          "name": "",
          "type": "uint256"
        }
      ],
      "name": "requestIds",
      "outputs": [
        {
          "internalType": "uint256",
          "name": "",
          "type": "uint256"
        }
      ],
      "stateMutability": "view",
      "type": "function"
    },
    {
      "inputs": [],
      "name": "requestRandomWords",
      "outputs": [
        {
          "internalType": "uint256",
          "name": "requestId",
          "type": "uint256"
        }
      ],
      "stateMutability": "nonpayable",
      "type": "function"
    },
    {
      "inputs": [
        {
          "internalType": "uint256",
          "name": "",
          "type": "uint256"
        }
      ],
      "name": "requests",
      "outputs": [
        {
          "internalType": "bool",
          "name": "fulfilled",
          "type": "bool"
        },
        {
          "internalType": "bool",
          "name": "exists",
          "type": "bool"
        }
      ],
      "stateMutability": "view",
      "type": "function"
    },
    {
      "inputs": [
        {
          "internalType": "address",
          "name": "to",
          "type": "address"
        }
      ],
      "name": "transferOwnership",
      "outputs": [],
      "stateMutability": "nonpayable",
      "type": "function"
    },
    {
      "inputs": [
        {
          "internalType": "uint256",
          "name": "",
          "type": "uint256"
        }
      ],
      "name": "users",
      "outputs": [
        {
          "internalType": "address",
          "name": "",
          "type": "address"
        }
      ],
      "stateMutability": "view",
      "type": "function"
    },
    {
      "inputs": [],
      "name": "validateLife",
      "outputs": [],
      "stateMutability": "nonpayable",
      "type": "function"
    },
    {
      "stateMutability": "payable",
      "type": "receive"
    }
  ],
  "bytecode": "0x60a06040527f4b09e658ed251bcafeebbc69400383d49f344ace09b9576fe248bb02c003fe9f60001b600655621e8480600760006101000a81548163ffffffff021916908363ffffffff1602179055506003600760046101000a81548161ffff021916908361ffff1602179055506003600760066101000a81548163ffffffff021916908363ffffffff16021790555060006007600a6101000a81548160ff02191690831515021790555066038d7ea4c68000600b556005600c60006101000a81548160ff021916908360ff160217905550610e10600c60016101000a81548161ffff021916908361ffff16021790555062015180600c60036101000a81548163ffffffff021916908363ffffffff16021790555062093a80600c60076101000a81548167ffffffffffffffff021916908367ffffffffffffffff16021790555060405162003278380380620032788339818101604052810190620001659190620004c4565b8033806000737a1bac17ccc5b313516c5e16fb24f7659aa5ebed8073ffffffffffffffffffffffffffffffffffffffff1660808173ffffffffffffffffffffffffffffffffffffffff168152505050600073ffffffffffffffffffffffffffffffffffffffff168273ffffffffffffffffffffffffffffffffffffffff160362000226576040517f08c379a00000000000000000000000000000000000000000000000000000000081526004016200021d9062000557565b60405180910390fd5b816000806101000a81548173ffffffffffffffffffffffffffffffffffffffff021916908373ffffffffffffffffffffffffffffffffffffffff160217905550600073ffffffffffffffffffffffffffffffffffffffff168173ffffffffffffffffffffffffffffffffffffffff1614620002ad57620002ac816200034b60201b60201c565b5b505050737a1bac17ccc5b313516c5e16fb24f7659aa5ebed600360006101000a81548173ffffffffffffffffffffffffffffffffffffffff021916908373ffffffffffffffffffffffffffffffffffffffff16021790555080600360146101000a81548167ffffffffffffffff021916908367ffffffffffffffff16021790555050426008819055504260098190555042600a8190555050620005eb565b3373ffffffffffffffffffffffffffffffffffffffff168173ffffffffffffffffffffffffffffffffffffffff1603620003bc576040517f08c379a0000000000000000000000000000000000000000000000000000000008152600401620003b390620005c9565b60405180910390fd5b80600160006101000a81548173ffffffffffffffffffffffffffffffffffffffff021916908373ffffffffffffffffffffffffffffffffffffffff1602179055508073ffffffffffffffffffffffffffffffffffffffff1660008054906101000a900473ffffffffffffffffffffffffffffffffffffffff1673ffffffffffffffffffffffffffffffffffffffff167fed8889f560326eb138920d842192f0eb3dd22b4f139c87a2c57538e05bae127860405160405180910390a350565b600080fd5b600067ffffffffffffffff82169050919050565b6200049e816200047f565b8114620004aa57600080fd5b50565b600081519050620004be8162000493565b92915050565b600060208284031215620004dd57620004dc6200047a565b5b6000620004ed84828501620004ad565b91505092915050565b600082825260208201905092915050565b7f43616e6e6f7420736574206f776e657220746f207a65726f0000000000000000600082015250565b60006200053f601883620004f6565b91506200054c8262000507565b602082019050919050565b60006020820190508181036000830152620005728162000530565b9050919050565b7f43616e6e6f74207472616e7366657220746f2073656c66000000000000000000600082015250565b6000620005b1601783620004f6565b9150620005be8262000579565b602082019050919050565b60006020820190508181036000830152620005e481620005a2565b9050919050565b608051612c6a6200060e600039600081816104e101526105350152612c6a6000f3fe6080604052600436106101235760003560e01c80639535afc3116100a0578063ddbcb5fa11610064578063ddbcb5fa1461040a578063e0c8628914610435578063e82c580814610460578063f2fde38b1461048b578063fc2a88c3146104b457610163565b80639535afc314610336578063b0ddccec1461034d578063c20fb04614610364578063d8a32114146103a1578063d8a4676f146103cc57610163565b80636d85e450116100e75780636d85e4501461024e57806379ba50971461027957806381d12c58146102905780638796ba8c146102ce5780638da5cb5b1461030b57610163565b80631fe543e31461019e5780632b445d78146101c7578063365b98b2146101de578063401c8a531461021b5780634420e4861461023257610163565b36610163577f688e89c1496876b0d792df75671fbe827183660b170bb8983d82511a6a4b7d1b3334604051610159929190611edb565b60405180910390a1005b7f688e89c1496876b0d792df75671fbe827183660b170bb8983d82511a6a4b7d1b3334604051610194929190611edb565b60405180910390a1005b3480156101aa57600080fd5b506101c560048036038101906101c0919061209d565b6104df565b005b3480156101d357600080fd5b506101dc61059f565b005b3480156101ea57600080fd5b50610205600480360381019061020091906120f9565b610ab8565b6040516102129190612126565b60405180910390f35b34801561022757600080fd5b50610230610af7565b005b61024c6004803603810190610247919061217f565b610b68565b005b34801561025a57600080fd5b50610263610f57565b6040516102709190612126565b60405180910390f35b34801561028557600080fd5b5061028e610f7d565b005b34801561029c57600080fd5b506102b760048036038101906102b291906120f9565b611112565b6040516102c59291906121c7565b60405180910390f35b3480156102da57600080fd5b506102f560048036038101906102f091906120f9565b611150565b60405161030291906121f0565b60405180910390f35b34801561031757600080fd5b50610320611174565b60405161032d9190612126565b60405180910390f35b34801561034257600080fd5b5061034b61119d565b005b34801561035957600080fd5b50610362611501565b005b34801561037057600080fd5b5061038b60048036038101906103869190612237565b611643565b6040516103989190612280565b60405180910390f35b3480156103ad57600080fd5b506103b6611780565b6040516103c39190612280565b60405180910390f35b3480156103d857600080fd5b506103f360048036038101906103ee91906120f9565b611793565b604051610401929190612359565b60405180910390f35b34801561041657600080fd5b5061041f6118be565b60405161042c91906121f0565b60405180910390f35b34801561044157600080fd5b5061044a6118c4565b60405161045791906121f0565b60405180910390f35b34801561046c57600080fd5b50610475611b1d565b6040516104829190612126565b60405180910390f35b34801561049757600080fd5b506104b260048036038101906104ad9190612237565b611b47565b005b3480156104c057600080fd5b506104c9611b5b565b6040516104d691906121f0565b60405180910390f35b7f000000000000000000000000000000000000000000000000000000000000000073ffffffffffffffffffffffffffffffffffffffff163373ffffffffffffffffffffffffffffffffffffffff161461059157337f00000000000000000000000000000000000000000000000000000000000000006040517f1cf993f4000000000000000000000000000000000000000000000000000000008152600401610588929190612389565b60405180910390fd5b61059b8282611b61565b5050565b600c60039054906101000a900463ffffffff1663ffffffff16600954426105c691906123e1565b11610606576040517f08c379a00000000000000000000000000000000000000000000000000000000081526004016105fd90612472565b60405180910390fd5b60005b600e805490508160ff161015610ab55760001515600d6000600e8460ff168154811061063857610637612492565b5b9060005260206000200160009054906101000a900473ffffffffffffffffffffffffffffffffffffffff1673ffffffffffffffffffffffffffffffffffffffff1673ffffffffffffffffffffffffffffffffffffffff16815260200190815260200160002060020160019054906101000a900460ff161515148015610751575060001515600d6000600e8460ff16815481106106d7576106d6612492565b5b9060005260206000200160009054906101000a900473ffffffffffffffffffffffffffffffffffffffff1673ffffffffffffffffffffffffffffffffffffffff1673ffffffffffffffffffffffffffffffffffffffff16815260200190815260200160002060020160009054906101000a900460ff161515145b15610aa2576000600d6000600e8460ff168154811061077357610772612492565b5b9060005260206000200160009054906101000a900473ffffffffffffffffffffffffffffffffffffffff1673ffffffffffffffffffffffffffffffffffffffff1673ffffffffffffffffffffffffffffffffffffffff16815260200190815260200160002060000160009054906101000a900473ffffffffffffffffffffffffffffffffffffffff1673ffffffffffffffffffffffffffffffffffffffff16600d6000600e8560ff168154811061082d5761082c612492565b5b9060005260206000200160009054906101000a900473ffffffffffffffffffffffffffffffffffffffff1673ffffffffffffffffffffffffffffffffffffffff1673ffffffffffffffffffffffffffffffffffffffff168152602001908152602001600020600101546040516108a2906124f2565b60006040518083038185875af1925050503d80600081146108df576040519150601f19603f3d011682016040523d82523d6000602084013e6108e4565b606091505b5050905080610928576040517f08c379a000000000000000000000000000000000000000000000000000000000815260040161091f90612579565b60405180910390fd5b6001600d6000600e8560ff168154811061094557610944612492565b5b9060005260206000200160009054906101000a900473ffffffffffffffffffffffffffffffffffffffff1673ffffffffffffffffffffffffffffffffffffffff1673ffffffffffffffffffffffffffffffffffffffff16815260200190815260200160002060020160006101000a81548160ff0219169083151502179055507f1b21905e26e2a9ba69b27c5f747c514d5cc18b441276ca90063b707d7c94b7d7600d6000600e8560ff1681548110610a00576109ff612492565b5b9060005260206000200160009054906101000a900473ffffffffffffffffffffffffffffffffffffffff1673ffffffffffffffffffffffffffffffffffffffff1673ffffffffffffffffffffffffffffffffffffffff16815260200190815260200160002060000160009054906101000a900473ffffffffffffffffffffffffffffffffffffffff1642604051610a989291906125f8565b60405180910390a1505b8080610aad90612621565b915050610609565b50565b600e8181548110610ac857600080fd5b906000526020600020016000915054906101000a900473ffffffffffffffffffffffffffffffffffffffff1681565b600c60079054906101000a900467ffffffffffffffff1667ffffffffffffffff16600a5442610b2691906123e1565b11610b66576040517f08c379a0000000000000000000000000000000000000000000000000000000008152600401610b5d90612696565b60405180910390fd5b565b336000805b600e805490508160ff161015610c09578273ffffffffffffffffffffffffffffffffffffffff16600e8260ff1681548110610bab57610baa612492565b5b9060005260206000200160009054906101000a900473ffffffffffffffffffffffffffffffffffffffff1673ffffffffffffffffffffffffffffffffffffffff1603610bf657600191505b8080610c0190612621565b915050610b6d565b508015610c4b576040517f08c379a0000000000000000000000000000000000000000000000000000000008152600401610c4290612702565b60405180910390fd5b826000813b905060008114610c95576040517f08c379a0000000000000000000000000000000000000000000000000000000008152600401610c8c90612794565b60405180910390fd5b600b54341015610cda576040517f08c379a0000000000000000000000000000000000000000000000000000000008152600401610cd190612826565b60405180910390fd5b6000600d60003373ffffffffffffffffffffffffffffffffffffffff1673ffffffffffffffffffffffffffffffffffffffff16815260200190815260200160002060020160026101000a81548160ff021916908360ff16021790555084600d60003373ffffffffffffffffffffffffffffffffffffffff1673ffffffffffffffffffffffffffffffffffffffff16815260200190815260200160002060000160006101000a81548173ffffffffffffffffffffffffffffffffffffffff021916908373ffffffffffffffffffffffffffffffffffffffff1602179055506000600d60003373ffffffffffffffffffffffffffffffffffffffff1673ffffffffffffffffffffffffffffffffffffffff16815260200190815260200160002060020160006101000a81548160ff0219169083151502179055506001600d60003373ffffffffffffffffffffffffffffffffffffffff1673ffffffffffffffffffffffffffffffffffffffff16815260200190815260200160002060020160016101000a81548160ff02191690831515021790555034600d60003373ffffffffffffffffffffffffffffffffffffffff1673ffffffffffffffffffffffffffffffffffffffff16815260200190815260200160002060010181905550600e339080600181540180825580915050600190039060005260206000200160009091909190916101000a81548173ffffffffffffffffffffffffffffffffffffffff021916908373ffffffffffffffffffffffffffffffffffffffff1602179055507f75dffe0fb61ff2c8945116ae986d8a0a87751d4addbdf798e256d7415aa4162d3342604051610f48929190611edb565b60405180910390a15050505050565b6007600b9054906101000a900473ffffffffffffffffffffffffffffffffffffffff1681565b600160009054906101000a900473ffffffffffffffffffffffffffffffffffffffff1673ffffffffffffffffffffffffffffffffffffffff163373ffffffffffffffffffffffffffffffffffffffff161461100d576040517f08c379a000000000000000000000000000000000000000000000000000000000815260040161100490612892565b60405180910390fd5b60008060009054906101000a900473ffffffffffffffffffffffffffffffffffffffff169050336000806101000a81548173ffffffffffffffffffffffffffffffffffffffff021916908373ffffffffffffffffffffffffffffffffffffffff1602179055506000600160006101000a81548173ffffffffffffffffffffffffffffffffffffffff021916908373ffffffffffffffffffffffffffffffffffffffff1602179055503373ffffffffffffffffffffffffffffffffffffffff168173ffffffffffffffffffffffffffffffffffffffff167f8be0079c531659141344cd1fd0a4f28419497f9722a3daafe3b4186f6b6457e060405160405180910390a350565b60026020528060005260406000206000915090508060000160009054906101000a900460ff16908060000160019054906101000a900460ff16905082565b6004818154811061116057600080fd5b906000526020600020016000915090505481565b60008060009054906101000a900473ffffffffffffffffffffffffffffffffffffffff16905090565b600c60019054906101000a900461ffff1661ffff16600854426111c091906123e1565b11611200576040517f08c379a00000000000000000000000000000000000000000000000000000000081526004016111f7906128fe565b60405180910390fd5b4260088190555060005b600e805490508160ff1610156114c757600d6000600e8360ff168154811061123557611234612492565b5b9060005260206000200160009054906101000a900473ffffffffffffffffffffffffffffffffffffffff1673ffffffffffffffffffffffffffffffffffffffff1673ffffffffffffffffffffffffffffffffffffffff16815260200190815260200160002060020160019054906101000a900460ff161561136a57600d6000600e8360ff16815481106112cb576112ca612492565b5b9060005260206000200160009054906101000a900473ffffffffffffffffffffffffffffffffffffffff1673ffffffffffffffffffffffffffffffffffffffff1673ffffffffffffffffffffffffffffffffffffffff168152602001908152602001600020600201600281819054906101000a900460ff168092919061135090612621565b91906101000a81548160ff021916908360ff160217905550505b600c60009054906101000a900460ff1660ff16600d6000600e8460ff168154811061139857611397612492565b5b9060005260206000200160009054906101000a900473ffffffffffffffffffffffffffffffffffffffff1673ffffffffffffffffffffffffffffffffffffffff1673ffffffffffffffffffffffffffffffffffffffff16815260200190815260200160002060020160029054906101000a900460ff1660ff1611156114b4576000600d6000600e8460ff168154811061143457611433612492565b5b9060005260206000200160009054906101000a900473ffffffffffffffffffffffffffffffffffffffff1673ffffffffffffffffffffffffffffffffffffffff1673ffffffffffffffffffffffffffffffffffffffff16815260200190815260200160002060020160016101000a81548160ff0219169083151502179055505b80806114bf90612621565b91505061120a565b507fd5a689c847ea8c5e0d3431889f2d9262f839825775f1ac53541cba01d4b6780e426040516114f791906121f0565b60405180910390a1565b336000805b600e805490508160ff1610156115a2578273ffffffffffffffffffffffffffffffffffffffff16600e8260ff168154811061154457611543612492565b5b9060005260206000200160009054906101000a900473ffffffffffffffffffffffffffffffffffffffff1673ffffffffffffffffffffffffffffffffffffffff160361158f57600191505b808061159a90612621565b915050611506565b50806115e3576040517f08c379a00000000000000000000000000000000000000000000000000000000081526004016115da9061296a565b60405180910390fd5b6000600d60003373ffffffffffffffffffffffffffffffffffffffff1673ffffffffffffffffffffffffffffffffffffffff16815260200190815260200160002060020160026101000a81548160ff021916908360ff1602179055505050565b6000816000805b600e805490508160ff1610156116e6578273ffffffffffffffffffffffffffffffffffffffff16600e8260ff168154811061168857611687612492565b5b9060005260206000200160009054906101000a900473ffffffffffffffffffffffffffffffffffffffff1673ffffffffffffffffffffffffffffffffffffffff16036116d357600191505b80806116de90612621565b91505061164a565b5080611727576040517f08c379a000000000000000000000000000000000000000000000000000000000815260040161171e9061296a565b60405180910390fd5b600d60008573ffffffffffffffffffffffffffffffffffffffff1673ffffffffffffffffffffffffffffffffffffffff16815260200190815260200160002060020160029054906101000a900460ff1692505050919050565b600c60009054906101000a900460ff1681565b600060606002600084815260200190815260200160002060000160019054906101000a900460ff166117fa576040517f08c379a00000000000000000000000000000000000000000000000000000000081526004016117f1906129d6565b60405180910390fd5b6000600260008581526020019081526020016000206040518060600160405290816000820160009054906101000a900460ff161515151581526020016000820160019054906101000a900460ff161515151581526020016001820180548060200260200160405190810160405280929190818152602001828054801561189f57602002820191906000526020600020905b81548152602001906001019080831161188b575b5050505050815250509050806000015181604001519250925050915091565b600b5481565b60006118ce611c5b565b600360009054906101000a900473ffffffffffffffffffffffffffffffffffffffff1673ffffffffffffffffffffffffffffffffffffffff16635d3b1d30600654600360149054906101000a900467ffffffffffffffff16600760049054906101000a900461ffff16600760009054906101000a900463ffffffff16600760069054906101000a900463ffffffff166040518663ffffffff1660e01b815260040161197d959493929190612a6e565b6020604051808303816000875af115801561199c573d6000803e3d6000fd5b505050506040513d601f19601f820116820180604052508101906119c09190612ad6565b90506040518060600160405280600015158152602001600115158152602001600067ffffffffffffffff8111156119fa576119f9611f5a565b5b604051908082528060200260200182016040528015611a285781602001602082028036833780820191505090505b508152506002600083815260200190815260200160002060008201518160000160006101000a81548160ff02191690831515021790555060208201518160000160016101000a81548160ff0219169083151502179055506040820151816001019080519060200190611a9b929190611e17565b509050506004819080600181540180825580915050600190039060005260206000200160009091909190915055806005819055507fcc58b13ad3eab50626c6a6300b1d139cd6ebb1688a7cced9461c2f7e762665ee81600760069054906101000a900463ffffffff16604051611b12929190612b03565b60405180910390a190565b60006007600b9054906101000a900473ffffffffffffffffffffffffffffffffffffffff16905090565b611b4f611c5b565b611b5881611ceb565b50565b60055481565b6002600083815260200190815260200160002060000160019054906101000a900460ff16611bc4576040517f08c379a0000000000000000000000000000000000000000000000000000000008152600401611bbb906129d6565b60405180910390fd5b60016002600084815260200190815260200160002060000160006101000a81548160ff02191690831515021790555080600260008481526020019081526020016000206001019080519060200190611c1d929190611e17565b507ffe2e2d779dba245964d4e3ef9b994be63856fd568bf7d3ca9e224755cb1bd54d8282604051611c4f929190612b2c565b60405180910390a15050565b60008054906101000a900473ffffffffffffffffffffffffffffffffffffffff1673ffffffffffffffffffffffffffffffffffffffff163373ffffffffffffffffffffffffffffffffffffffff1614611ce9576040517f08c379a0000000000000000000000000000000000000000000000000000000008152600401611ce090612ba8565b60405180910390fd5b565b3373ffffffffffffffffffffffffffffffffffffffff168173ffffffffffffffffffffffffffffffffffffffff1603611d59576040517f08c379a0000000000000000000000000000000000000000000000000000000008152600401611d5090612c14565b60405180910390fd5b80600160006101000a81548173ffffffffffffffffffffffffffffffffffffffff021916908373ffffffffffffffffffffffffffffffffffffffff1602179055508073ffffffffffffffffffffffffffffffffffffffff1660008054906101000a900473ffffffffffffffffffffffffffffffffffffffff1673ffffffffffffffffffffffffffffffffffffffff167fed8889f560326eb138920d842192f0eb3dd22b4f139c87a2c57538e05bae127860405160405180910390a350565b828054828255906000526020600020908101928215611e53579160200282015b82811115611e52578251825591602001919060010190611e37565b5b509050611e609190611e64565b5090565b5b80821115611e7d576000816000905550600101611e65565b5090565b600073ffffffffffffffffffffffffffffffffffffffff82169050919050565b6000611eac82611e81565b9050919050565b611ebc81611ea1565b82525050565b6000819050919050565b611ed581611ec2565b82525050565b6000604082019050611ef06000830185611eb3565b611efd6020830184611ecc565b9392505050565b6000604051905090565b600080fd5b600080fd5b611f2181611ec2565b8114611f2c57600080fd5b50565b600081359050611f3e81611f18565b92915050565b600080fd5b6000601f19601f8301169050919050565b7f4e487b7100000000000000000000000000000000000000000000000000000000600052604160045260246000fd5b611f9282611f49565b810181811067ffffffffffffffff82111715611fb157611fb0611f5a565b5b80604052505050565b6000611fc4611f04565b9050611fd08282611f89565b919050565b600067ffffffffffffffff821115611ff057611fef611f5a565b5b602082029050602081019050919050565b600080fd5b600061201961201484611fd5565b611fba565b9050808382526020820190506020840283018581111561203c5761203b612001565b5b835b8181101561206557806120518882611f2f565b84526020840193505060208101905061203e565b5050509392505050565b600082601f83011261208457612083611f44565b5b8135612094848260208601612006565b91505092915050565b600080604083850312156120b4576120b3611f0e565b5b60006120c285828601611f2f565b925050602083013567ffffffffffffffff8111156120e3576120e2611f13565b5b6120ef8582860161206f565b9150509250929050565b60006020828403121561210f5761210e611f0e565b5b600061211d84828501611f2f565b91505092915050565b600060208201905061213b6000830184611eb3565b92915050565b600061214c82611e81565b9050919050565b61215c81612141565b811461216757600080fd5b50565b60008135905061217981612153565b92915050565b60006020828403121561219557612194611f0e565b5b60006121a38482850161216a565b91505092915050565b60008115159050919050565b6121c1816121ac565b82525050565b60006040820190506121dc60008301856121b8565b6121e960208301846121b8565b9392505050565b60006020820190506122056000830184611ecc565b92915050565b61221481611ea1565b811461221f57600080fd5b50565b6000813590506122318161220b565b92915050565b60006020828403121561224d5761224c611f0e565b5b600061225b84828501612222565b91505092915050565b600060ff82169050919050565b61227a81612264565b82525050565b60006020820190506122956000830184612271565b92915050565b600081519050919050565b600082825260208201905092915050565b6000819050602082019050919050565b6122d081611ec2565b82525050565b60006122e283836122c7565b60208301905092915050565b6000602082019050919050565b60006123068261229b565b61231081856122a6565b935061231b836122b7565b8060005b8381101561234c57815161233388826122d6565b975061233e836122ee565b92505060018101905061231f565b5085935050505092915050565b600060408201905061236e60008301856121b8565b818103602083015261238081846122fb565b90509392505050565b600060408201905061239e6000830185611eb3565b6123ab6020830184611eb3565b9392505050565b7f4e487b7100000000000000000000000000000000000000000000000000000000600052601160045260246000fd5b60006123ec82611ec2565b91506123f783611ec2565b925082820390508181111561240f5761240e6123b2565b5b92915050565b600082825260208201905092915050565b7f4e6f7420757020746f2061204461792100000000000000000000000000000000600082015250565b600061245c601083612415565b915061246782612426565b602082019050919050565b6000602082019050818103600083015261248b8161244f565b9050919050565b7f4e487b7100000000000000000000000000000000000000000000000000000000600052603260045260246000fd5b600081905092915050565b50565b60006124dc6000836124c1565b91506124e7826124cc565b600082019050919050565b60006124fd826124cf565b9150819050919050565b7f4661696c656420746f2073656e6420496e6865726974616e636520746f206b6960008201527f6e2e000000000000000000000000000000000000000000000000000000000000602082015250565b6000612563602283612415565b915061256e82612507565b604082019050919050565b6000602082019050818103600083015261259281612556565b9050919050565b6000819050919050565b60006125be6125b96125b484611e81565b612599565b611e81565b9050919050565b60006125d0826125a3565b9050919050565b60006125e2826125c5565b9050919050565b6125f2816125d7565b82525050565b600060408201905061260d60008301856125e9565b61261a6020830184611ecc565b9392505050565b600061262c82612264565b915060ff820361263f5761263e6123b2565b5b600182019050919050565b7f4e6f7420757020746f2061205765656b21000000000000000000000000000000600082015250565b6000612680601183612415565b915061268b8261264a565b602082019050919050565b600060208201905081810360008301526126af81612673565b9050919050565b7f416c726561647920726567697374657265642100000000000000000000000000600082015250565b60006126ec601383612415565b91506126f7826126b6565b602082019050919050565b6000602082019050818103600083015261271b816126df565b9050919050565b7f4b696e20416464726573732063616e6e6f74206265206120736d61727420636f60008201527f6e74726163742100000000000000000000000000000000000000000000000000602082015250565b600061277e602783612415565b915061278982612722565b604082019050919050565b600060208201905081810360008301526127ad81612771565b9050919050565b7f4d696e696d756d20526567697374726174696f6e20697320302e303031204d4160008201527f5449430000000000000000000000000000000000000000000000000000000000602082015250565b6000612810602383612415565b915061281b826127b4565b604082019050919050565b6000602082019050818103600083015261283f81612803565b9050919050565b7f4d7573742062652070726f706f736564206f776e657200000000000000000000600082015250565b600061287c601683612415565b915061288782612846565b602082019050919050565b600060208201905081810360008301526128ab8161286f565b9050919050565b7f4e6f7420757020746f20616e20686f7572210000000000000000000000000000600082015250565b60006128e8601283612415565b91506128f3826128b2565b602082019050919050565b60006020820190508181036000830152612917816128db565b9050919050565b7f55736572206973206e6f74207265676973746572656421000000000000000000600082015250565b6000612954601783612415565b915061295f8261291e565b602082019050919050565b6000602082019050818103600083015261298381612947565b9050919050565b7f72657175657374206e6f7420666f756e64000000000000000000000000000000600082015250565b60006129c0601183612415565b91506129cb8261298a565b602082019050919050565b600060208201905081810360008301526129ef816129b3565b9050919050565b6000819050919050565b612a09816129f6565b82525050565b600067ffffffffffffffff82169050919050565b612a2c81612a0f565b82525050565b600061ffff82169050919050565b612a4981612a32565b82525050565b600063ffffffff82169050919050565b612a6881612a4f565b82525050565b600060a082019050612a836000830188612a00565b612a906020830187612a23565b612a9d6040830186612a40565b612aaa6060830185612a5f565b612ab76080830184612a5f565b9695505050505050565b600081519050612ad081611f18565b92915050565b600060208284031215612aec57612aeb611f0e565b5b6000612afa84828501612ac1565b91505092915050565b6000604082019050612b186000830185611ecc565b612b256020830184612a5f565b9392505050565b6000604082019050612b416000830185611ecc565b8181036020830152612b5381846122fb565b90509392505050565b7f4f6e6c792063616c6c61626c65206279206f776e657200000000000000000000600082015250565b6000612b92601683612415565b9150612b9d82612b5c565b602082019050919050565b60006020820190508181036000830152612bc181612b85565b9050919050565b7f43616e6e6f74207472616e7366657220746f2073656c66000000000000000000600082015250565b6000612bfe601783612415565b9150612c0982612bc8565b602082019050919050565b60006020820190508181036000830152612c2d81612bf1565b905091905056fea2646970667358221220be79667e966f2849696b6e53501801c797dc9dc58d8fb2f5dfee9dac23d71a1f64736f6c63430008110033",
  "linkReferences": {},
  "deployedLinkReferences": {}
}