{
  "_format": "hh-sol-artifact-1",
  "contractName": "AlwaysAlive",
  "sourceName": "contracts/AlwaysAlive.sol",
  "abi": [
    {
      "inputs": [
        {
          "internalType": "uint64",
          "name": "_subscriptionId",
          "type": "uint64"
        }
      ],
      "stateMutability": "payable",
      "type": "constructor"
    },
    {
      "inputs": [
        {
          "internalType": "address",
          "name": "have",
          "type": "address"
        },
        {
          "internalType": "address",
          "name": "want",
          "type": "address"
        }
      ],
      "name": "OnlyCoordinatorCanFulfill",
      "type": "error"
    },
    {
      "anonymous": false,
      "inputs": [
        {
          "indexed": true,
          "internalType": "address",
          "name": "from",
          "type": "address"
        },
        {
          "indexed": true,
          "internalType": "address",
          "name": "to",
          "type": "address"
        }
      ],
      "name": "OwnershipTransferRequested",
      "type": "event"
    },
    {
      "anonymous": false,
      "inputs": [
        {
          "indexed": true,
          "internalType": "address",
          "name": "from",
          "type": "address"
        },
        {
          "indexed": true,
          "internalType": "address",
          "name": "to",
          "type": "address"
        }
      ],
      "name": "OwnershipTransferred",
      "type": "event"
    },
    {
      "anonymous": false,
      "inputs": [
        {
          "indexed": false,
          "internalType": "uint256",
          "name": "requestId",
          "type": "uint256"
        },
        {
          "indexed": false,
          "internalType": "uint256[]",
          "name": "randomWords",
          "type": "uint256[]"
        }
      ],
      "name": "RequestFulfilled",
      "type": "event"
    },
    {
      "anonymous": false,
      "inputs": [
        {
          "indexed": false,
          "internalType": "uint256",
          "name": "requestId",
          "type": "uint256"
        },
        {
          "indexed": false,
          "internalType": "uint32",
          "name": "numWords",
          "type": "uint32"
        }
      ],
      "name": "RequestSent",
      "type": "event"
    },
    {
      "anonymous": false,
      "inputs": [
        {
          "indexed": false,
          "internalType": "address",
          "name": "spender",
          "type": "address"
        },
        {
          "indexed": false,
          "internalType": "uint256",
          "name": "amount",
          "type": "uint256"
        }
      ],
      "name": "approvedMatic",
      "type": "event"
    },
    {
      "anonymous": false,
      "inputs": [
        {
          "indexed": false,
          "internalType": "address",
          "name": "kin",
          "type": "address"
        },
        {
          "indexed": false,
          "internalType": "uint256",
          "name": "amount",
          "type": "uint256"
        },
        {
          "indexed": false,
          "internalType": "uint256",
          "name": "when",
          "type": "uint256"
        }
      ],
      "name": "blessed",
      "type": "event"
    },
    {
      "anonymous": false,
      "inputs": [
        {
          "indexed": false,
          "internalType": "uint256",
          "name": "when",
          "type": "uint256"
        }
      ],
      "name": "incrementedConfirmations",
      "type": "event"
    },
    {
      "anonymous": false,
      "inputs": [
        {
          "indexed": false,
          "internalType": "address",
          "name": "kin",
          "type": "address"
        },
        {
          "indexed": false,
          "internalType": "uint256",
          "name": "when",
          "type": "uint256"
        }
      ],
      "name": "inheritered",
      "type": "event"
    },
    {
      "anonymous": false,
      "inputs": [
        {
          "indexed": false,
          "internalType": "address",
          "name": "user",
          "type": "address"
        },
        {
          "indexed": false,
          "internalType": "uint256",
          "name": "when",
          "type": "uint256"
        }
      ],
      "name": "registered",
      "type": "event"
    },
    {
      "anonymous": false,
      "inputs": [
        {
          "indexed": false,
          "internalType": "address",
          "name": "user",
          "type": "address"
        },
        {
          "indexed": false,
          "internalType": "uint256",
          "name": "when",
          "type": "uint256"
        }
      ],
      "name": "suppliedMatic",
      "type": "event"
    },
    {
      "anonymous": false,
      "inputs": [
        {
          "indexed": false,
          "internalType": "address",
          "name": "user",
          "type": "address"
        },
        {
          "indexed": false,
          "internalType": "uint256",
          "name": "when",
          "type": "uint256"
        }
      ],
      "name": "withdrawnMatic",
      "type": "event"
    },
    {
      "stateMutability": "payable",
      "type": "fallback"
    },
    {
      "inputs": [],
      "name": "MAX_NUMBER_OF_CONFIRMATIONS",
      "outputs": [
        {
          "internalType": "int8",
          "name": "",
          "type": "int8"
        }
      ],
      "stateMutability": "view",
      "type": "function"
    },
    {
      "inputs": [],
      "name": "MIN_AMOUNT",
      "outputs": [
        {
          "internalType": "uint256",
          "name": "",
          "type": "uint256"
        }
      ],
      "stateMutability": "view",
      "type": "function"
    },
    {
      "inputs": [],
      "name": "acceptOwnership",
      "outputs": [],
      "stateMutability": "nonpayable",
      "type": "function"
    },
    {
      "inputs": [],
      "name": "bless",
      "outputs": [],
      "stateMutability": "view",
      "type": "function"
    },
    {
      "inputs": [
        {
          "internalType": "uint256",
          "name": "amount",
          "type": "uint256"
        }
      ],
      "name": "depositMatic",
      "outputs": [],
      "stateMutability": "payable",
      "type": "function"
    },
    {
      "inputs": [
        {
          "internalType": "address",
          "name": "_user",
          "type": "address"
        }
      ],
      "name": "getCurrentConfirmations",
      "outputs": [
        {
          "internalType": "int8",
          "name": "",
          "type": "int8"
        }
      ],
      "stateMutability": "view",
      "type": "function"
    },
    {
      "inputs": [
        {
          "internalType": "bytes32",
          "name": "_messageHash",
          "type": "bytes32"
        }
      ],
      "name": "getEthSignedMessageHash",
      "outputs": [
        {
          "internalType": "bytes32",
          "name": "",
          "type": "bytes32"
        }
      ],
      "stateMutability": "pure",
      "type": "function"
    },
    {
      "inputs": [],
      "name": "getLastBlessedKin",
      "outputs": [
        {
          "internalType": "address",
          "name": "",
          "type": "address"
        }
      ],
      "stateMutability": "view",
      "type": "function"
    },
    {
      "inputs": [],
      "name": "getLastPayout",
      "outputs": [
        {
          "internalType": "uint256",
          "name": "",
          "type": "uint256"
        }
      ],
      "stateMutability": "view",
      "type": "function"
    },
    {
      "inputs": [
        {
          "internalType": "string",
          "name": "_message",
          "type": "string"
        }
      ],
      "name": "getMessageHash",
      "outputs": [
        {
          "internalType": "bytes32",
          "name": "",
          "type": "bytes32"
        }
      ],
      "stateMutability": "pure",
      "type": "function"
    },
    {
      "inputs": [
        {
          "internalType": "uint256",
          "name": "_requestId",
          "type": "uint256"
        }
      ],
      "name": "getRequestStatus",
      "outputs": [
        {
          "internalType": "bool",
          "name": "fulfilled",
          "type": "bool"
        },
        {
          "internalType": "uint256[]",
          "name": "randomWords",
          "type": "uint256[]"
        }
      ],
      "stateMutability": "view",
      "type": "function"
    },
    {
      "inputs": [],
      "name": "incrementConfirmations",
      "outputs": [],
      "stateMutability": "nonpayable",
      "type": "function"
    },
    {
      "inputs": [],
      "name": "inherit",
      "outputs": [],
      "stateMutability": "nonpayable",
      "type": "function"
    },
    {
      "inputs": [],
      "name": "lastBlessPayout",
      "outputs": [
        {
          "internalType": "uint256",
          "name": "",
          "type": "uint256"
        }
      ],
      "stateMutability": "view",
      "type": "function"
    },
    {
      "inputs": [],
      "name": "lastBlessedKin",
      "outputs": [
        {
          "internalType": "address",
          "name": "",
          "type": "address"
        }
      ],
      "stateMutability": "view",
      "type": "function"
    },
    {
      "inputs": [],
      "name": "lastRequestId",
      "outputs": [
        {
          "internalType": "uint256",
          "name": "",
          "type": "uint256"
        }
      ],
      "stateMutability": "view",
      "type": "function"
    },
    {
      "inputs": [],
      "name": "owner",
      "outputs": [
        {
          "internalType": "address",
          "name": "",
          "type": "address"
        }
      ],
      "stateMutability": "view",
      "type": "function"
    },
    {
      "inputs": [
        {
          "internalType": "uint256",
          "name": "requestId",
          "type": "uint256"
        },
        {
          "internalType": "uint256[]",
          "name": "randomWords",
          "type": "uint256[]"
        }
      ],
      "name": "rawFulfillRandomWords",
      "outputs": [],
      "stateMutability": "nonpayable",
      "type": "function"
    },
    {
      "inputs": [
        {
          "internalType": "bytes32",
          "name": "_ethSignedMessageHash",
          "type": "bytes32"
        },
        {
          "internalType": "bytes",
          "name": "_signature",
          "type": "bytes"
        }
      ],
      "name": "recoverSigner",
      "outputs": [
        {
          "internalType": "address",
          "name": "",
          "type": "address"
        }
      ],
      "stateMutability": "pure",
      "type": "function"
    },
    {
      "inputs": [
        {
          "internalType": "address payable",
          "name": "_kinAddress",
          "type": "address"
        },
        {
          "internalType": "bytes",
          "name": "signature",
          "type": "bytes"
        }
      ],
      "name": "register",
      "outputs": [],
      "stateMutability": "payable",
      "type": "function"
    },
    {
      "inputs": [
        {
          "internalType": "uint256",
          "name": "",
          "type": "uint256"
        }
      ],
      "name": "requestIds",
      "outputs": [
        {
          "internalType": "uint256",
          "name": "",
          "type": "uint256"
        }
      ],
      "stateMutability": "view",
      "type": "function"
    },
    {
      "inputs": [],
      "name": "requestRandomWords",
      "outputs": [
        {
          "internalType": "uint256",
          "name": "requestId",
          "type": "uint256"
        }
      ],
      "stateMutability": "nonpayable",
      "type": "function"
    },
    {
      "inputs": [
        {
          "internalType": "uint256",
          "name": "",
          "type": "uint256"
        }
      ],
      "name": "requests",
      "outputs": [
        {
          "internalType": "bool",
          "name": "fulfilled",
          "type": "bool"
        },
        {
          "internalType": "bool",
          "name": "exists",
          "type": "bool"
        }
      ],
      "stateMutability": "view",
      "type": "function"
    },
    {
      "inputs": [
        {
          "internalType": "bytes",
          "name": "sig",
          "type": "bytes"
        }
      ],
      "name": "splitSignature",
      "outputs": [
        {
          "internalType": "bytes32",
          "name": "r",
          "type": "bytes32"
        },
        {
          "internalType": "bytes32",
          "name": "s",
          "type": "bytes32"
        },
        {
          "internalType": "uint8",
          "name": "v",
          "type": "uint8"
        }
      ],
      "stateMutability": "pure",
      "type": "function"
    },
    {
      "inputs": [
        {
          "internalType": "address",
          "name": "to",
          "type": "address"
        }
      ],
      "name": "transferOwnership",
      "outputs": [],
      "stateMutability": "nonpayable",
      "type": "function"
    },
    {
      "inputs": [
        {
          "internalType": "uint256",
          "name": "",
          "type": "uint256"
        }
      ],
      "name": "users",
      "outputs": [
        {
          "internalType": "address",
          "name": "",
          "type": "address"
        }
      ],
      "stateMutability": "view",
      "type": "function"
    },
    {
      "inputs": [],
      "name": "validateLife",
      "outputs": [],
      "stateMutability": "nonpayable",
      "type": "function"
    },
    {
      "inputs": [
        {
          "internalType": "address",
          "name": "_signer",
          "type": "address"
        },
        {
          "internalType": "bytes",
          "name": "signature",
          "type": "bytes"
        }
      ],
      "name": "verify",
      "outputs": [
        {
          "internalType": "bool",
          "name": "",
          "type": "bool"
        }
      ],
      "stateMutability": "view",
      "type": "function"
    },
    {
      "inputs": [
        {
          "internalType": "uint256",
          "name": "amount",
          "type": "uint256"
        },
        {
          "internalType": "address",
          "name": "kin",
          "type": "address"
        }
      ],
      "name": "withdrawMatic",
      "outputs": [],
      "stateMutability": "payable",
      "type": "function"
    },
    {
      "stateMutability": "payable",
      "type": "receive"
    }
  ],
  "bytecode": "0x60a06040527f4b09e658ed251bcafeebbc69400383d49f344ace09b9576fe248bb02c003fe9f60001b600655621e8480600760006101000a81548163ffffffff021916908363ffffffff1602179055506003600760046101000a81548161ffff021916908361ffff1602179055506005600760066101000a81548163ffffffff021916908363ffffffff16021790555060006007600a6101000a81548160ff0219169083151502179055507389a6ae840b3f8f489418933a220315eea36d11ff6007600b6101000a81548173ffffffffffffffffffffffffffffffffffffffff021916908373ffffffffffffffffffffffffffffffffffffffff1602179055506007600b9054906101000a900473ffffffffffffffffffffffffffffffffffffffff16600860006101000a81548173ffffffffffffffffffffffffffffffffffffffff021916908373ffffffffffffffffffffffffffffffffffffffff160217905550732a58e9bbb5434fda7ff78051a4b82cb0ef669c17600960006101000a81548173ffffffffffffffffffffffffffffffffffffffff021916908373ffffffffffffffffffffffffffffffffffffffff160217905550600960009054906101000a900473ffffffffffffffffffffffffffffffffffffffff16600a60006101000a81548173ffffffffffffffffffffffffffffffffffffffff021916908373ffffffffffffffffffffffffffffffffffffffff160217905550735343b5ba672ae99d627a1c87866b8e53f47db2e6600b60006101000a81548173ffffffffffffffffffffffffffffffffffffffff021916908373ffffffffffffffffffffffffffffffffffffffff16021790555060405180610100016040528060ce8152602001620047a060ce9139600d9080519060200190620002a192919062000791565b506005600e60006101000a81548160ff021916908360000b60ff16021790555066038d7ea4c68000600f55615460601060006101000a81548167ffffffffffffffff021916908367ffffffffffffffff16021790555062015180601060086101000a81548167ffffffffffffffff021916908367ffffffffffffffff1602179055506203f4806010806101000a81548167ffffffffffffffff021916908367ffffffffffffffff16021790555062015180601060186101000a81548167ffffffffffffffff021916908367ffffffffffffffff1602179055506040516200486e3803806200486e83398181016040528101906200039f91906200088b565b8033806000737a1bac17ccc5b313516c5e16fb24f7659aa5ebed8073ffffffffffffffffffffffffffffffffffffffff1660808173ffffffffffffffffffffffffffffffffffffffff168152505050600073ffffffffffffffffffffffffffffffffffffffff168273ffffffffffffffffffffffffffffffffffffffff16141562000461576040517f08c379a000000000000000000000000000000000000000000000000000000000815260040162000458906200091e565b60405180910390fd5b816000806101000a81548173ffffffffffffffffffffffffffffffffffffffff021916908373ffffffffffffffffffffffffffffffffffffffff160217905550600073ffffffffffffffffffffffffffffffffffffffff168173ffffffffffffffffffffffffffffffffffffffff1614620004e857620004e7816200066160201b60201c565b5b505050737a1bac17ccc5b313516c5e16fb24f7659aa5ebed600360006101000a81548173ffffffffffffffffffffffffffffffffffffffff021916908373ffffffffffffffffffffffffffffffffffffffff16021790555080600360146101000a81548167ffffffffffffffff021916908367ffffffffffffffff16021790555050600b60009054906101000a900473ffffffffffffffffffffffffffffffffffffffff1673ffffffffffffffffffffffffffffffffffffffff1663026b1d5f6040518163ffffffff1660e01b8152600401602060405180830381865afa158015620005d8573d6000803e3d6000fd5b505050506040513d601f19601f82011682018060405250810190620005fe9190620009a5565b600c60006101000a81548173ffffffffffffffffffffffffffffffffffffffff021916908373ffffffffffffffffffffffffffffffffffffffff160217905550426011819055504260128190555042601381905550426015819055505062000aae565b3373ffffffffffffffffffffffffffffffffffffffff168173ffffffffffffffffffffffffffffffffffffffff161415620006d3576040517f08c379a0000000000000000000000000000000000000000000000000000000008152600401620006ca9062000a27565b60405180910390fd5b80600160006101000a81548173ffffffffffffffffffffffffffffffffffffffff021916908373ffffffffffffffffffffffffffffffffffffffff1602179055508073ffffffffffffffffffffffffffffffffffffffff1660008054906101000a900473ffffffffffffffffffffffffffffffffffffffff1673ffffffffffffffffffffffffffffffffffffffff167fed8889f560326eb138920d842192f0eb3dd22b4f139c87a2c57538e05bae127860405160405180910390a350565b8280546200079f9062000a78565b90600052602060002090601f016020900481019282620007c357600085556200080f565b82601f10620007de57805160ff19168380011785556200080f565b828001600101855582156200080f579182015b828111156200080e578251825591602001919060010190620007f1565b5b5090506200081e919062000822565b5090565b5b808211156200083d57600081600090555060010162000823565b5090565b600080fd5b600067ffffffffffffffff82169050919050565b620008658162000846565b81146200087157600080fd5b50565b60008151905062000885816200085a565b92915050565b600060208284031215620008a457620008a362000841565b5b6000620008b48482850162000874565b91505092915050565b600082825260208201905092915050565b7f43616e6e6f7420736574206f776e657220746f207a65726f0000000000000000600082015250565b600062000906601883620008bd565b91506200091382620008ce565b602082019050919050565b600060208201905081810360008301526200093981620008f7565b9050919050565b600073ffffffffffffffffffffffffffffffffffffffff82169050919050565b60006200096d8262000940565b9050919050565b6200097f8162000960565b81146200098b57600080fd5b50565b6000815190506200099f8162000974565b92915050565b600060208284031215620009be57620009bd62000841565b5b6000620009ce848285016200098e565b91505092915050565b7f43616e6e6f74207472616e7366657220746f2073656c66000000000000000000600082015250565b600062000a0f601783620008bd565b915062000a1c82620009d7565b602082019050919050565b6000602082019050818103600083015262000a428162000a00565b9050919050565b7f4e487b7100000000000000000000000000000000000000000000000000000000600052602260045260246000fd5b6000600282049050600182168062000a9157607f821691505b6020821081141562000aa85762000aa762000a49565b5b50919050565b608051613ccf62000ad1600039600081816106dd01526107310152613ccf6000f3fe6080604052600436106101c65760003560e01c80639535afc3116100f7578063d8a3211411610095578063e82c580811610064578063e82c580814610615578063f2fde38b14610640578063fa54080114610669578063fc2a88c3146106a6576101cd565b8063d8a3211414610556578063d8a4676f14610581578063ddbcb5fa146105bf578063e0c86289146105ea576101cd565b8063aabc5b97116100d1578063aabc5b971461049a578063b0ddccec146104c5578063b446f3b2146104dc578063c20fb04614610519576101cd565b80639535afc31461040757806397aba7f91461041e578063a7bb58031461045b576101cd565b80635082566a1161016457806379ba50971161013e57806379ba50971461034a57806381d12c58146103615780638796ba8c1461039f5780638da5cb5b146103dc576101cd565b80635082566a146102e75780636d85e4501461030357806376bf384b1461032e576101cd565b80632b445d78116101a05780632b445d781461023f578063365b98b214610256578063401c8a53146102935780634a41d1ac146102aa576101cd565b806308cfaa4a146101cf5780631fe543e3146101fa57806324b8fbf614610223576101cd565b366101cd57005b005b3480156101db57600080fd5b506101e46106d1565b6040516101f1919061273f565b60405180910390f35b34801561020657600080fd5b50610221600480360381019061021c91906128f3565b6106db565b005b61023d60048036038101906102389190612a62565b61079b565b005b34801561024b57600080fd5b50610254610c33565b005b34801561026257600080fd5b5061027d60048036038101906102789190612abe565b611152565b60405161028a9190612b0c565b60405180910390f35b34801561029f57600080fd5b506102a8611191565b005b3480156102b657600080fd5b506102d160048036038101906102cc9190612b53565b611202565b6040516102de9190612bca565b60405180910390f35b61030160048036038101906102fc9190612abe565b6112e9565b005b34801561030f57600080fd5b506103186113da565b6040516103259190612b0c565b60405180910390f35b61034860048036038101906103439190612be5565b611400565b005b34801561035657600080fd5b5061035f611652565b005b34801561036d57600080fd5b5061038860048036038101906103839190612abe565b6117e7565b604051610396929190612c25565b60405180910390f35b3480156103ab57600080fd5b506103c660048036038101906103c19190612abe565b611825565b6040516103d3919061273f565b60405180910390f35b3480156103e857600080fd5b506103f1611849565b6040516103fe9190612b0c565b60405180910390f35b34801561041357600080fd5b5061041c611872565b005b34801561042a57600080fd5b5061044560048036038101906104409190612c84565b611be5565b6040516104529190612b0c565b60405180910390f35b34801561046757600080fd5b50610482600480360381019061047d9190612ce0565b611c54565b60405161049193929190612d54565b60405180910390f35b3480156104a657600080fd5b506104af611cbc565b6040516104bc919061273f565b60405180910390f35b3480156104d157600080fd5b506104da611cc2565b005b3480156104e857600080fd5b5061050360048036038101906104fe9190612e2c565b611e08565b6040516105109190612e75565b60405180910390f35b34801561052557600080fd5b50610540600480360381019061053b9190612e90565b611e38565b60405161054d9190612ed9565b60405180910390f35b34801561056257600080fd5b5061056b611ff4565b6040516105789190612ed9565b60405180910390f35b34801561058d57600080fd5b506105a860048036038101906105a39190612abe565b612007565b6040516105b6929190612fb2565b60405180910390f35b3480156105cb57600080fd5b506105d4612132565b6040516105e1919061273f565b60405180910390f35b3480156105f657600080fd5b506105ff612138565b60405161060c919061273f565b60405180910390f35b34801561062157600080fd5b5061062a612391565b6040516106379190612b0c565b60405180910390f35b34801561064c57600080fd5b5061066760048036038101906106629190612e90565b6123bb565b005b34801561067557600080fd5b50610690600480360381019061068b9190612fe2565b6123cf565b60405161069d9190612e75565b60405180910390f35b3480156106b257600080fd5b506106bb6123ff565b6040516106c8919061273f565b60405180910390f35b6000601654905090565b7f000000000000000000000000000000000000000000000000000000000000000073ffffffffffffffffffffffffffffffffffffffff163373ffffffffffffffffffffffffffffffffffffffff161461078d57337f00000000000000000000000000000000000000000000000000000000000000006040517f1cf993f400000000000000000000000000000000000000000000000000000000815260040161078492919061300f565b60405180910390fd5b6107978282612405565b5050565b336000805b6018805490508160ff16101561083d578273ffffffffffffffffffffffffffffffffffffffff1660188260ff16815481106107de576107dd613038565b5b9060005260206000200160009054906101000a900473ffffffffffffffffffffffffffffffffffffffff1673ffffffffffffffffffffffffffffffffffffffff16141561082a57600191505b808061083590613096565b9150506107a0565b50801561087f576040517f08c379a00000000000000000000000000000000000000000000000000000000081526004016108769061311d565b60405180910390fd5b836000813b9050600081146108c9576040517f08c379a00000000000000000000000000000000000000000000000000000000081526004016108c0906131af565b60405180910390fd5b600f5434101561090e576040517f08c379a000000000000000000000000000000000000000000000000000000000815260040161090590613241565b60405180910390fd5b6109183386611202565b610957576040517f08c379a000000000000000000000000000000000000000000000000000000000815260040161094e906132ad565b60405180910390fd5b6000601760003373ffffffffffffffffffffffffffffffffffffffff1673ffffffffffffffffffffffffffffffffffffffff16815260200190815260200160002060020160036101000a81548160ff021916908360000b60ff16021790555085601760003373ffffffffffffffffffffffffffffffffffffffff1673ffffffffffffffffffffffffffffffffffffffff16815260200190815260200160002060000160006101000a81548173ffffffffffffffffffffffffffffffffffffffff021916908373ffffffffffffffffffffffffffffffffffffffff1602179055506001601760003373ffffffffffffffffffffffffffffffffffffffff1673ffffffffffffffffffffffffffffffffffffffff16815260200190815260200160002060020160016101000a81548160ff02191690831515021790555034601760003373ffffffffffffffffffffffffffffffffffffffff1673ffffffffffffffffffffffffffffffffffffffff168152602001908152602001600020600101819055506000601760003373ffffffffffffffffffffffffffffffffffffffff1673ffffffffffffffffffffffffffffffffffffffff16815260200190815260200160002060020160006101000a81548160ff0219169083151502179055506001601760003373ffffffffffffffffffffffffffffffffffffffff1673ffffffffffffffffffffffffffffffffffffffff16815260200190815260200160002060020160026101000a81548160ff0219169083151502179055506018339080600181540180825580915050600190039060005260206000200160009091909190916101000a81548173ffffffffffffffffffffffffffffffffffffffff021916908373ffffffffffffffffffffffffffffffffffffffff1602179055507f75dffe0fb61ff2c8945116ae986d8a0a87751d4addbdf798e256d7415aa4162d3342604051610c239291906132cd565b60405180910390a1505050505050565b60108054906101000a900467ffffffffffffffff1667ffffffffffffffff1660125442610c6091906132f6565b11610ca0576040517f08c379a0000000000000000000000000000000000000000000000000000000008152600401610c9790613376565b60405180910390fd5b60005b6018805490508160ff16101561114f57600015156017600060188460ff1681548110610cd257610cd1613038565b5b9060005260206000200160009054906101000a900473ffffffffffffffffffffffffffffffffffffffff1673ffffffffffffffffffffffffffffffffffffffff1673ffffffffffffffffffffffffffffffffffffffff16815260200190815260200160002060020160019054906101000a900460ff161515148015610deb5750600015156017600060188460ff1681548110610d7157610d70613038565b5b9060005260206000200160009054906101000a900473ffffffffffffffffffffffffffffffffffffffff1673ffffffffffffffffffffffffffffffffffffffff1673ffffffffffffffffffffffffffffffffffffffff16815260200190815260200160002060020160009054906101000a900460ff161515145b1561113c5760006017600060188460ff1681548110610e0d57610e0c613038565b5b9060005260206000200160009054906101000a900473ffffffffffffffffffffffffffffffffffffffff1673ffffffffffffffffffffffffffffffffffffffff1673ffffffffffffffffffffffffffffffffffffffff16815260200190815260200160002060000160009054906101000a900473ffffffffffffffffffffffffffffffffffffffff1673ffffffffffffffffffffffffffffffffffffffff166017600060188560ff1681548110610ec757610ec6613038565b5b9060005260206000200160009054906101000a900473ffffffffffffffffffffffffffffffffffffffff1673ffffffffffffffffffffffffffffffffffffffff1673ffffffffffffffffffffffffffffffffffffffff16815260200190815260200160002060010154604051610f3c906133c7565b60006040518083038185875af1925050503d8060008114610f79576040519150601f19603f3d011682016040523d82523d6000602084013e610f7e565b606091505b5050905080610fc2576040517f08c379a0000000000000000000000000000000000000000000000000000000008152600401610fb99061344e565b60405180910390fd5b60016017600060188560ff1681548110610fdf57610fde613038565b5b9060005260206000200160009054906101000a900473ffffffffffffffffffffffffffffffffffffffff1673ffffffffffffffffffffffffffffffffffffffff1673ffffffffffffffffffffffffffffffffffffffff16815260200190815260200160002060020160006101000a81548160ff0219169083151502179055507f1b21905e26e2a9ba69b27c5f747c514d5cc18b441276ca90063b707d7c94b7d76017600060188560ff168154811061109a57611099613038565b5b9060005260206000200160009054906101000a900473ffffffffffffffffffffffffffffffffffffffff1673ffffffffffffffffffffffffffffffffffffffff1673ffffffffffffffffffffffffffffffffffffffff16815260200190815260200160002060000160009054906101000a900473ffffffffffffffffffffffffffffffffffffffff16426040516111329291906134cd565b60405180910390a1505b808061114790613096565b915050610ca3565b50565b6018818154811061116257600080fd5b906000526020600020016000915054906101000a900473ffffffffffffffffffffffffffffffffffffffff1681565b601060189054906101000a900467ffffffffffffffff1667ffffffffffffffff16601354426111c091906132f6565b11611200576040517f08c379a00000000000000000000000000000000000000000000000000000000081526004016111f790613542565b60405180910390fd5b565b600080611298600d805461121590613591565b80601f016020809104026020016040519081016040528092919081815260200182805461124190613591565b801561128e5780601f106112635761010080835404028352916020019161128e565b820191906000526020600020905b81548152906001019060200180831161127157829003601f168201915b5050505050611e08565b905060006112a5826123cf565b90508473ffffffffffffffffffffffffffffffffffffffff166112c88286611be5565b73ffffffffffffffffffffffffffffffffffffffff16149250505092915050565b600a60009054906101000a900473ffffffffffffffffffffffffffffffffffffffff1673ffffffffffffffffffffffffffffffffffffffff1663474cf53d82600c60009054906101000a900473ffffffffffffffffffffffffffffffffffffffff163360006040518563ffffffff1660e01b815260040161136c9392919061360c565b6000604051808303818588803b15801561138557600080fd5b505af1158015611399573d6000803e3d6000fd5b50505050507f217794e6bdf0f51e3c1497aaa311d34599b9d701c794e143cf9afd53a69af5e033426040516113cf9291906132cd565b60405180910390a150565b601460009054906101000a900473ffffffffffffffffffffffffffffffffffffffff1681565b6000600860009054906101000a900473ffffffffffffffffffffffffffffffffffffffff1673ffffffffffffffffffffffffffffffffffffffff1663095ea7b3600960009054906101000a900473ffffffffffffffffffffffffffffffffffffffff16856040518363ffffffff1660e01b81526004016114819291906132cd565b6020604051808303816000875af11580156114a0573d6000803e3d6000fd5b505050506040513d601f19601f820116820180604052508101906114c4919061366f565b905080611506576040517f08c379a00000000000000000000000000000000000000000000000000000000081526004016114fd906136e8565b60405180910390fd5b7ff55ab26082eeae6c0a58cd94b9abbc963077676e334e1980e949d66d0632997b600960009054906101000a900473ffffffffffffffffffffffffffffffffffffffff16846040516115599291906132cd565b60405180910390a1600a60009054906101000a900473ffffffffffffffffffffffffffffffffffffffff1673ffffffffffffffffffffffffffffffffffffffff166380500d20600c60009054906101000a900473ffffffffffffffffffffffffffffffffffffffff1685856040518463ffffffff1660e01b81526004016115e293929190613708565b600060405180830381600087803b1580156115fc57600080fd5b505af1158015611610573d6000803e3d6000fd5b505050507fbd51083cb7d0069935600787f3baf8d13f18d0431a3ecbaccb7b22864a14462682426040516116459291906132cd565b60405180910390a1505050565b600160009054906101000a900473ffffffffffffffffffffffffffffffffffffffff1673ffffffffffffffffffffffffffffffffffffffff163373ffffffffffffffffffffffffffffffffffffffff16146116e2576040517f08c379a00000000000000000000000000000000000000000000000000000000081526004016116d99061378b565b60405180910390fd5b60008060009054906101000a900473ffffffffffffffffffffffffffffffffffffffff169050336000806101000a81548173ffffffffffffffffffffffffffffffffffffffff021916908373ffffffffffffffffffffffffffffffffffffffff1602179055506000600160006101000a81548173ffffffffffffffffffffffffffffffffffffffff021916908373ffffffffffffffffffffffffffffffffffffffff1602179055503373ffffffffffffffffffffffffffffffffffffffff168173ffffffffffffffffffffffffffffffffffffffff167f8be0079c531659141344cd1fd0a4f28419497f9722a3daafe3b4186f6b6457e060405160405180910390a350565b60026020528060005260406000206000915090508060000160009054906101000a900460ff16908060000160019054906101000a900460ff16905082565b6004818154811061183557600080fd5b906000526020600020016000915090505481565b60008060009054906101000a900473ffffffffffffffffffffffffffffffffffffffff16905090565b601060009054906101000a900467ffffffffffffffff1667ffffffffffffffff16601154426118a191906132f6565b116118e1576040517f08c379a00000000000000000000000000000000000000000000000000000000081526004016118d890613376565b60405180910390fd5b4260118190555060005b6018805490508160ff161015611bab576017600060188360ff168154811061191657611915613038565b5b9060005260206000200160009054906101000a900473ffffffffffffffffffffffffffffffffffffffff1673ffffffffffffffffffffffffffffffffffffffff1673ffffffffffffffffffffffffffffffffffffffff16815260200190815260200160002060020160019054906101000a900460ff1615611a4e576017600060188360ff16815481106119ac576119ab613038565b5b9060005260206000200160009054906101000a900473ffffffffffffffffffffffffffffffffffffffff1673ffffffffffffffffffffffffffffffffffffffff1673ffffffffffffffffffffffffffffffffffffffff168152602001908152602001600020600201600381819054906101000a900460000b80929190611a31906137ab565b91906101000a81548160ff021916908360000b60ff160217905550505b600e60009054906101000a900460000b60000b6017600060188460ff1681548110611a7c57611a7b613038565b5b9060005260206000200160009054906101000a900473ffffffffffffffffffffffffffffffffffffffff1673ffffffffffffffffffffffffffffffffffffffff1673ffffffffffffffffffffffffffffffffffffffff16815260200190815260200160002060020160039054906101000a900460000b60000b1315611b985760006017600060188460ff1681548110611b1857611b17613038565b5b9060005260206000200160009054906101000a900473ffffffffffffffffffffffffffffffffffffffff1673ffffffffffffffffffffffffffffffffffffffff1673ffffffffffffffffffffffffffffffffffffffff16815260200190815260200160002060020160016101000a81548160ff0219169083151502179055505b8080611ba390613096565b9150506118eb565b507fd5a689c847ea8c5e0d3431889f2d9262f839825775f1ac53541cba01d4b6780e42604051611bdb919061273f565b60405180910390a1565b600080600080611bf485611c54565b92509250925060018682858560405160008152602001604052604051611c1d94939291906137d5565b6020604051602081039080840390855afa158015611c3f573d6000803e3d6000fd5b50505060206040510351935050505092915050565b60008060006041845114611c9d576040517f08c379a0000000000000000000000000000000000000000000000000000000008152600401611c9490613866565b60405180910390fd5b6020840151925060408401519150606084015160001a90509193909250565b60165481565b336000805b6018805490508160ff161015611d64578273ffffffffffffffffffffffffffffffffffffffff1660188260ff1681548110611d0557611d04613038565b5b9060005260206000200160009054906101000a900473ffffffffffffffffffffffffffffffffffffffff1673ffffffffffffffffffffffffffffffffffffffff161415611d5157600191505b8080611d5c90613096565b915050611cc7565b5080611da5576040517f08c379a0000000000000000000000000000000000000000000000000000000008152600401611d9c906138d2565b60405180910390fd5b6000601760003373ffffffffffffffffffffffffffffffffffffffff1673ffffffffffffffffffffffffffffffffffffffff16815260200190815260200160002060020160036101000a81548160ff021916908360000b60ff1602179055505050565b600081604051602001611e1b919061396c565b604051602081830303815290604052805190602001209050919050565b6000816000805b6018805490508160ff161015611edc578273ffffffffffffffffffffffffffffffffffffffff1660188260ff1681548110611e7d57611e7c613038565b5b9060005260206000200160009054906101000a900473ffffffffffffffffffffffffffffffffffffffff1673ffffffffffffffffffffffffffffffffffffffff161415611ec957600191505b8080611ed490613096565b915050611e3f565b5080611f1d576040517f08c379a0000000000000000000000000000000000000000000000000000000008152600401611f14906138d2565b60405180910390fd5b601760008573ffffffffffffffffffffffffffffffffffffffff1673ffffffffffffffffffffffffffffffffffffffff16815260200190815260200160002060020160019054906101000a900460ff1615611fc957601760008573ffffffffffffffffffffffffffffffffffffffff1673ffffffffffffffffffffffffffffffffffffffff16815260200190815260200160002060020160039054906101000a900460000b9250611fed565b7fffffffffffffffffffffffffffffffffffffffffffffffffffffffffffffffff92505b5050919050565b600e60009054906101000a900460000b81565b600060606002600084815260200190815260200160002060000160019054906101000a900460ff1661206e576040517f08c379a0000000000000000000000000000000000000000000000000000000008152600401612065906139cf565b60405180910390fd5b6000600260008581526020019081526020016000206040518060600160405290816000820160009054906101000a900460ff161515151581526020016000820160019054906101000a900460ff161515151581526020016001820180548060200260200160405190810160405280929190818152602001828054801561211357602002820191906000526020600020905b8154815260200190600101908083116120ff575b5050505050815250509050806000015181604001519250925050915091565b600f5481565b60006121426124ff565b600360009054906101000a900473ffffffffffffffffffffffffffffffffffffffff1673ffffffffffffffffffffffffffffffffffffffff16635d3b1d30600654600360149054906101000a900467ffffffffffffffff16600760049054906101000a900461ffff16600760009054906101000a900463ffffffff16600760069054906101000a900463ffffffff166040518663ffffffff1660e01b81526004016121f1959493929190613a40565b6020604051808303816000875af1158015612210573d6000803e3d6000fd5b505050506040513d601f19601f820116820180604052508101906122349190613aa8565b90506040518060600160405280600015158152602001600115158152602001600067ffffffffffffffff81111561226e5761226d6127b0565b5b60405190808252806020026020018201604052801561229c5781602001602082028036833780820191505090505b508152506002600083815260200190815260200160002060008201518160000160006101000a81548160ff02191690831515021790555060208201518160000160016101000a81548160ff021916908315150217905550604082015181600101908051906020019061230f9291906126bc565b509050506004819080600181540180825580915050600190039060005260206000200160009091909190915055806005819055507fcc58b13ad3eab50626c6a6300b1d139cd6ebb1688a7cced9461c2f7e762665ee81600760069054906101000a900463ffffffff16604051612386929190613ad5565b60405180910390a190565b6000601460009054906101000a900473ffffffffffffffffffffffffffffffffffffffff16905090565b6123c36124ff565b6123cc8161258f565b50565b6000816040516020016123e29190613b6b565b604051602081830303815290604052805190602001209050919050565b60055481565b6002600083815260200190815260200160002060000160019054906101000a900460ff16612468576040517f08c379a000000000000000000000000000000000000000000000000000000000815260040161245f906139cf565b60405180910390fd5b60016002600084815260200190815260200160002060000160006101000a81548160ff021916908315150217905550806002600084815260200190815260200160002060010190805190602001906124c19291906126bc565b507ffe2e2d779dba245964d4e3ef9b994be63856fd568bf7d3ca9e224755cb1bd54d82826040516124f3929190613b91565b60405180910390a15050565b60008054906101000a900473ffffffffffffffffffffffffffffffffffffffff1673ffffffffffffffffffffffffffffffffffffffff163373ffffffffffffffffffffffffffffffffffffffff161461258d576040517f08c379a000000000000000000000000000000000000000000000000000000000815260040161258490613c0d565b60405180910390fd5b565b3373ffffffffffffffffffffffffffffffffffffffff168173ffffffffffffffffffffffffffffffffffffffff1614156125fe576040517f08c379a00000000000000000000000000000000000000000000000000000000081526004016125f590613c79565b60405180910390fd5b80600160006101000a81548173ffffffffffffffffffffffffffffffffffffffff021916908373ffffffffffffffffffffffffffffffffffffffff1602179055508073ffffffffffffffffffffffffffffffffffffffff1660008054906101000a900473ffffffffffffffffffffffffffffffffffffffff1673ffffffffffffffffffffffffffffffffffffffff167fed8889f560326eb138920d842192f0eb3dd22b4f139c87a2c57538e05bae127860405160405180910390a350565b8280548282559060005260206000209081019282156126f8579160200282015b828111156126f75782518255916020019190600101906126dc565b5b5090506127059190612709565b5090565b5b8082111561272257600081600090555060010161270a565b5090565b6000819050919050565b61273981612726565b82525050565b60006020820190506127546000830184612730565b92915050565b6000604051905090565b600080fd5b600080fd5b61277781612726565b811461278257600080fd5b50565b6000813590506127948161276e565b92915050565b600080fd5b6000601f19601f8301169050919050565b7f4e487b7100000000000000000000000000000000000000000000000000000000600052604160045260246000fd5b6127e88261279f565b810181811067ffffffffffffffff82111715612807576128066127b0565b5b80604052505050565b600061281a61275a565b905061282682826127df565b919050565b600067ffffffffffffffff821115612846576128456127b0565b5b602082029050602081019050919050565b600080fd5b600061286f61286a8461282b565b612810565b9050808382526020820190506020840283018581111561289257612891612857565b5b835b818110156128bb57806128a78882612785565b845260208401935050602081019050612894565b5050509392505050565b600082601f8301126128da576128d961279a565b5b81356128ea84826020860161285c565b91505092915050565b6000806040838503121561290a57612909612764565b5b600061291885828601612785565b925050602083013567ffffffffffffffff81111561293957612938612769565b5b612945858286016128c5565b9150509250929050565b600073ffffffffffffffffffffffffffffffffffffffff82169050919050565b600061297a8261294f565b9050919050565b61298a8161296f565b811461299557600080fd5b50565b6000813590506129a781612981565b92915050565b600080fd5b600067ffffffffffffffff8211156129cd576129cc6127b0565b5b6129d68261279f565b9050602081019050919050565b82818337600083830152505050565b6000612a05612a00846129b2565b612810565b905082815260208101848484011115612a2157612a206129ad565b5b612a2c8482856129e3565b509392505050565b600082601f830112612a4957612a4861279a565b5b8135612a598482602086016129f2565b91505092915050565b60008060408385031215612a7957612a78612764565b5b6000612a8785828601612998565b925050602083013567ffffffffffffffff811115612aa857612aa7612769565b5b612ab485828601612a34565b9150509250929050565b600060208284031215612ad457612ad3612764565b5b6000612ae284828501612785565b91505092915050565b6000612af68261294f565b9050919050565b612b0681612aeb565b82525050565b6000602082019050612b216000830184612afd565b92915050565b612b3081612aeb565b8114612b3b57600080fd5b50565b600081359050612b4d81612b27565b92915050565b60008060408385031215612b6a57612b69612764565b5b6000612b7885828601612b3e565b925050602083013567ffffffffffffffff811115612b9957612b98612769565b5b612ba585828601612a34565b9150509250929050565b60008115159050919050565b612bc481612baf565b82525050565b6000602082019050612bdf6000830184612bbb565b92915050565b60008060408385031215612bfc57612bfb612764565b5b6000612c0a85828601612785565b9250506020612c1b85828601612b3e565b9150509250929050565b6000604082019050612c3a6000830185612bbb565b612c476020830184612bbb565b9392505050565b6000819050919050565b612c6181612c4e565b8114612c6c57600080fd5b50565b600081359050612c7e81612c58565b92915050565b60008060408385031215612c9b57612c9a612764565b5b6000612ca985828601612c6f565b925050602083013567ffffffffffffffff811115612cca57612cc9612769565b5b612cd685828601612a34565b9150509250929050565b600060208284031215612cf657612cf5612764565b5b600082013567ffffffffffffffff811115612d1457612d13612769565b5b612d2084828501612a34565b91505092915050565b612d3281612c4e565b82525050565b600060ff82169050919050565b612d4e81612d38565b82525050565b6000606082019050612d696000830186612d29565b612d766020830185612d29565b612d836040830184612d45565b949350505050565b600067ffffffffffffffff821115612da657612da56127b0565b5b612daf8261279f565b9050602081019050919050565b6000612dcf612dca84612d8b565b612810565b905082815260208101848484011115612deb57612dea6129ad565b5b612df68482856129e3565b509392505050565b600082601f830112612e1357612e1261279a565b5b8135612e23848260208601612dbc565b91505092915050565b600060208284031215612e4257612e41612764565b5b600082013567ffffffffffffffff811115612e6057612e5f612769565b5b612e6c84828501612dfe565b91505092915050565b6000602082019050612e8a6000830184612d29565b92915050565b600060208284031215612ea657612ea5612764565b5b6000612eb484828501612b3e565b91505092915050565b60008160000b9050919050565b612ed381612ebd565b82525050565b6000602082019050612eee6000830184612eca565b92915050565b600081519050919050565b600082825260208201905092915050565b6000819050602082019050919050565b612f2981612726565b82525050565b6000612f3b8383612f20565b60208301905092915050565b6000602082019050919050565b6000612f5f82612ef4565b612f698185612eff565b9350612f7483612f10565b8060005b83811015612fa5578151612f8c8882612f2f565b9750612f9783612f47565b925050600181019050612f78565b5085935050505092915050565b6000604082019050612fc76000830185612bbb565b8181036020830152612fd98184612f54565b90509392505050565b600060208284031215612ff857612ff7612764565b5b600061300684828501612c6f565b91505092915050565b60006040820190506130246000830185612afd565b6130316020830184612afd565b9392505050565b7f4e487b7100000000000000000000000000000000000000000000000000000000600052603260045260246000fd5b7f4e487b7100000000000000000000000000000000000000000000000000000000600052601160045260246000fd5b60006130a182612d38565b915060ff8214156130b5576130b4613067565b5b600182019050919050565b600082825260208201905092915050565b7f416c726561647920726567697374657265642100000000000000000000000000600082015250565b60006131076013836130c0565b9150613112826130d1565b602082019050919050565b60006020820190508181036000830152613136816130fa565b9050919050565b7f4b696e20416464726573732063616e6e6f74206265206120736d61727420636f60008201527f6e74726163742100000000000000000000000000000000000000000000000000602082015250565b60006131996027836130c0565b91506131a48261313d565b604082019050919050565b600060208201905081810360008301526131c88161318c565b9050919050565b7f4d696e696d756d20526567697374726174696f6e20697320302e303031204d4160008201527f5449430000000000000000000000000000000000000000000000000000000000602082015250565b600061322b6023836130c0565b9150613236826131cf565b604082019050919050565b6000602082019050818103600083015261325a8161321e565b9050919050565b7f4e6f7420612076616c6964207369676e61747572652100000000000000000000600082015250565b60006132976016836130c0565b91506132a282613261565b602082019050919050565b600060208201905081810360008301526132c68161328a565b9050919050565b60006040820190506132e26000830185612afd565b6132ef6020830184612730565b9392505050565b600061330182612726565b915061330c83612726565b92508282101561331f5761331e613067565b5b828203905092915050565b7f4e6f7420757020746f203620686f757273210000000000000000000000000000600082015250565b60006133606012836130c0565b915061336b8261332a565b602082019050919050565b6000602082019050818103600083015261338f81613353565b9050919050565b600081905092915050565b50565b60006133b1600083613396565b91506133bc826133a1565b600082019050919050565b60006133d2826133a4565b9150819050919050565b7f4661696c656420746f2073656e6420496e6865726974616e636520746f206b6960008201527f6e2e000000000000000000000000000000000000000000000000000000000000602082015250565b60006134386022836130c0565b9150613443826133dc565b604082019050919050565b600060208201905081810360008301526134678161342b565b9050919050565b6000819050919050565b600061349361348e6134898461294f565b61346e565b61294f565b9050919050565b60006134a582613478565b9050919050565b60006134b78261349a565b9050919050565b6134c7816134ac565b82525050565b60006040820190506134e260008301856134be565b6134ef6020830184612730565b9392505050565b7f4e6f7420757020746f2061204461792100000000000000000000000000000000600082015250565b600061352c6010836130c0565b9150613537826134f6565b602082019050919050565b6000602082019050818103600083015261355b8161351f565b9050919050565b7f4e487b7100000000000000000000000000000000000000000000000000000000600052602260045260246000fd5b600060028204905060018216806135a957607f821691505b602082108114156135bd576135bc613562565b5b50919050565b6000819050919050565b600061ffff82169050919050565b60006135f66135f16135ec846135c3565b61346e565b6135cd565b9050919050565b613606816135db565b82525050565b60006060820190506136216000830186612afd565b61362e6020830185612afd565b61363b60408301846135fd565b949350505050565b61364c81612baf565b811461365757600080fd5b50565b60008151905061366981613643565b92915050565b60006020828403121561368557613684612764565b5b60006136938482850161365a565b91505092915050565b7f436f756c64206e6f7420617070726f76652e0000000000000000000000000000600082015250565b60006136d26012836130c0565b91506136dd8261369c565b602082019050919050565b60006020820190508181036000830152613701816136c5565b9050919050565b600060608201905061371d6000830186612afd565b61372a6020830185612730565b6137376040830184612afd565b949350505050565b7f4d7573742062652070726f706f736564206f776e657200000000000000000000600082015250565b60006137756016836130c0565b91506137808261373f565b602082019050919050565b600060208201905081810360008301526137a481613768565b9050919050565b60006137b682612ebd565b9150607f8214156137ca576137c9613067565b5b600182019050919050565b60006080820190506137ea6000830187612d29565b6137f76020830186612d45565b6138046040830185612d29565b6138116060830184612d29565b95945050505050565b7f696e76616c6964207369676e6174757265206c656e6774680000000000000000600082015250565b60006138506018836130c0565b915061385b8261381a565b602082019050919050565b6000602082019050818103600083015261387f81613843565b9050919050565b7f55736572206973206e6f74207265676973746572656421000000000000000000600082015250565b60006138bc6017836130c0565b91506138c782613886565b602082019050919050565b600060208201905081810360008301526138eb816138af565b9050919050565b600081519050919050565b600081905092915050565b60005b8381101561392657808201518184015260208101905061390b565b83811115613935576000848401525b50505050565b6000613946826138f2565b61395081856138fd565b9350613960818560208601613908565b80840191505092915050565b6000613978828461393b565b915081905092915050565b7f72657175657374206e6f7420666f756e64000000000000000000000000000000600082015250565b60006139b96011836130c0565b91506139c482613983565b602082019050919050565b600060208201905081810360008301526139e8816139ac565b9050919050565b600067ffffffffffffffff82169050919050565b613a0c816139ef565b82525050565b613a1b816135cd565b82525050565b600063ffffffff82169050919050565b613a3a81613a21565b82525050565b600060a082019050613a556000830188612d29565b613a626020830187613a03565b613a6f6040830186613a12565b613a7c6060830185613a31565b613a896080830184613a31565b9695505050505050565b600081519050613aa28161276e565b92915050565b600060208284031215613abe57613abd612764565b5b6000613acc84828501613a93565b91505092915050565b6000604082019050613aea6000830185612730565b613af76020830184613a31565b9392505050565b7f19457468657265756d205369676e6564204d6573736167653a0a333200000000600082015250565b6000613b34601c836138fd565b9150613b3f82613afe565b601c82019050919050565b6000819050919050565b613b65613b6082612c4e565b613b4a565b82525050565b6000613b7682613b27565b9150613b828284613b54565b60208201915081905092915050565b6000604082019050613ba66000830185612730565b8181036020830152613bb88184612f54565b90509392505050565b7f4f6e6c792063616c6c61626c65206279206f776e657200000000000000000000600082015250565b6000613bf76016836130c0565b9150613c0282613bc1565b602082019050919050565b60006020820190508181036000830152613c2681613bea565b9050919050565b7f43616e6e6f74207472616e7366657220746f2073656c66000000000000000000600082015250565b6000613c636017836130c0565b9150613c6e82613c2d565b602082019050919050565b60006020820190508181036000830152613c9281613c56565b905091905056fea26469706673582212201526c9b099fca55f884b5b9c30cf4c994bb62a7ee20110f34cdecf717a5f119f64736f6c634300080a0033492068657265627920617574686f72697a65207468697320736d61727420636f6e747261637420746f2068617665206f776e657273686970206f766572206d79206465706f73697465642066756e647320616e64206772616e7420697420617574686f72697a6174696f6e20746f2073656e6420697420746f204f4e4c59206d792070726f7669646564204e657874206f66204b696e2061646472657373206966204920616d20756e61626c6520746f2070726f7669646520612076616c69646174696f6e206f66204c6966652e",
  "linkReferences": {},
  "deployedLinkReferences": {}
}