{
  "_format": "hh-sol-artifact-1",
  "contractName": "AlwaysAlive",
  "sourceName": "contracts/AlwaysAlive.sol",
  "abi": [
    {
      "inputs": [],
      "stateMutability": "payable",
      "type": "constructor"
    },
    {
      "anonymous": false,
      "inputs": [
        {
          "indexed": false,
          "internalType": "address",
          "name": "kin",
          "type": "address"
        },
        {
          "indexed": false,
          "internalType": "uint256",
          "name": "when",
          "type": "uint256"
        }
      ],
      "name": "blessed",
      "type": "event"
    },
    {
      "anonymous": false,
      "inputs": [
        {
          "indexed": false,
          "internalType": "address",
          "name": "payer",
          "type": "address"
        },
        {
          "indexed": false,
          "internalType": "uint256",
          "name": "amount",
          "type": "uint256"
        }
      ],
      "name": "deposited",
      "type": "event"
    },
    {
      "anonymous": false,
      "inputs": [
        {
          "indexed": false,
          "internalType": "uint256",
          "name": "when",
          "type": "uint256"
        }
      ],
      "name": "incrementedConfirmations",
      "type": "event"
    },
    {
      "anonymous": false,
      "inputs": [
        {
          "indexed": false,
          "internalType": "address",
          "name": "kin",
          "type": "address"
        },
        {
          "indexed": false,
          "internalType": "uint256",
          "name": "when",
          "type": "uint256"
        }
      ],
      "name": "invested",
      "type": "event"
    },
    {
      "anonymous": false,
      "inputs": [
        {
          "indexed": false,
          "internalType": "address",
          "name": "kin",
          "type": "address"
        },
        {
          "indexed": false,
          "internalType": "uint256",
          "name": "when",
          "type": "uint256"
        }
      ],
      "name": "paidDailyProfits",
      "type": "event"
    },
    {
      "anonymous": false,
      "inputs": [
        {
          "indexed": false,
          "internalType": "address",
          "name": "user",
          "type": "address"
        },
        {
          "indexed": false,
          "internalType": "uint256",
          "name": "when",
          "type": "uint256"
        }
      ],
      "name": "registered",
      "type": "event"
    },
    {
      "stateMutability": "payable",
      "type": "fallback"
    },
    {
      "inputs": [],
      "name": "MAX_NUMBER_OF_CONFIRMATIONS",
      "outputs": [
        {
          "internalType": "uint8",
          "name": "",
          "type": "uint8"
        }
      ],
      "stateMutability": "view",
      "type": "function"
    },
    {
      "inputs": [],
      "name": "MIN_AMOUNT",
      "outputs": [
        {
          "internalType": "uint256",
          "name": "",
          "type": "uint256"
        }
      ],
      "stateMutability": "view",
      "type": "function"
    },
    {
      "inputs": [],
      "name": "bless",
      "outputs": [],
      "stateMutability": "nonpayable",
      "type": "function"
    },
    {
      "inputs": [],
      "name": "deposit",
      "outputs": [],
      "stateMutability": "payable",
      "type": "function"
    },
    {
      "inputs": [
        {
          "internalType": "address",
          "name": "_user",
          "type": "address"
        }
      ],
      "name": "getCurrentConfirmations",
      "outputs": [
        {
          "internalType": "uint8",
          "name": "",
          "type": "uint8"
        }
      ],
      "stateMutability": "view",
      "type": "function"
    },
    {
      "inputs": [],
      "name": "incrementConfirmations",
      "outputs": [],
      "stateMutability": "nonpayable",
      "type": "function"
    },
    {
      "inputs": [],
      "name": "invest",
      "outputs": [],
      "stateMutability": "view",
      "type": "function"
    },
    {
      "inputs": [],
      "name": "lastInvestedKin",
      "outputs": [
        {
          "internalType": "address",
          "name": "",
          "type": "address"
        }
      ],
      "stateMutability": "view",
      "type": "function"
    },
    {
      "inputs": [
        {
          "internalType": "address payable",
          "name": "_kinAddress",
          "type": "address"
        }
      ],
      "name": "register",
      "outputs": [],
      "stateMutability": "payable",
      "type": "function"
    },
    {
      "inputs": [
        {
          "internalType": "uint256",
          "name": "",
          "type": "uint256"
        }
      ],
      "name": "users",
      "outputs": [
        {
          "internalType": "address",
          "name": "",
          "type": "address"
        }
      ],
      "stateMutability": "view",
      "type": "function"
    },
    {
      "inputs": [],
      "name": "validateLife",
      "outputs": [],
      "stateMutability": "nonpayable",
      "type": "function"
    },
    {
      "stateMutability": "payable",
      "type": "receive"
    }
  ],
  "bytecode": "0x608060405266038d7ea4c6800060045560058060006101000a81548160ff021916908360ff160217905550610e10600560016101000a81548161ffff021916908361ffff16021790555062015180600560036101000a81548163ffffffff021916908363ffffffff16021790555062093a80600560076101000a81548167ffffffffffffffff021916908367ffffffffffffffff160217905550426001819055504260028190555042600381905550611a39806100bd6000396000f3fe6080604052600436106100a05760003560e01c8063b0ddccec11610064578063b0ddccec146101cd578063c20fb046146101e4578063d0e30db014610221578063d8a321141461022b578063ddbcb5fa14610256578063e8b5e51f14610281576100e0565b8063365b98b21461011b578063401c8a53146101585780634420e4861461016f578063532091b71461018b5780639535afc3146101b6576100e0565b366100e0577f688e89c1496876b0d792df75671fbe827183660b170bb8983d82511a6a4b7d1b33346040516100d6929190611305565b60405180910390a1005b7f688e89c1496876b0d792df75671fbe827183660b170bb8983d82511a6a4b7d1b3334604051610111929190611305565b60405180910390a1005b34801561012757600080fd5b50610142600480360381019061013d919061135f565b610298565b60405161014f919061138c565b60405180910390f35b34801561016457600080fd5b5061016d6102d7565b005b610189600480360381019061018491906113e5565b6107f0565b005b34801561019757600080fd5b506101a0610bdf565b6040516101ad919061138c565b60405180910390f35b3480156101c257600080fd5b506101cb610c03565b005b3480156101d957600080fd5b506101e2610f67565b005b3480156101f057600080fd5b5061020b6004803603810190610206919061143e565b6110a9565b6040516102189190611487565b60405180910390f35b6102296111e6565b005b34801561023757600080fd5b50610240611221565b60405161024d9190611487565b60405180910390f35b34801561026257600080fd5b5061026b611234565b60405161027891906114a2565b60405180910390f35b34801561028d57600080fd5b5061029661123a565b005b600781815481106102a857600080fd5b906000526020600020016000915054906101000a900473ffffffffffffffffffffffffffffffffffffffff1681565b600560039054906101000a900463ffffffff1663ffffffff16600254426102fe91906114ec565b1161033e576040517f08c379a00000000000000000000000000000000000000000000000000000000081526004016103359061157d565b60405180910390fd5b60005b6007805490508160ff1610156107ed57600015156006600060078460ff16815481106103705761036f61159d565b5b9060005260206000200160009054906101000a900473ffffffffffffffffffffffffffffffffffffffff1673ffffffffffffffffffffffffffffffffffffffff1673ffffffffffffffffffffffffffffffffffffffff16815260200190815260200160002060020160019054906101000a900460ff1615151480156104895750600015156006600060078460ff168154811061040f5761040e61159d565b5b9060005260206000200160009054906101000a900473ffffffffffffffffffffffffffffffffffffffff1673ffffffffffffffffffffffffffffffffffffffff1673ffffffffffffffffffffffffffffffffffffffff16815260200190815260200160002060020160009054906101000a900460ff161515145b156107da5760006006600060078460ff16815481106104ab576104aa61159d565b5b9060005260206000200160009054906101000a900473ffffffffffffffffffffffffffffffffffffffff1673ffffffffffffffffffffffffffffffffffffffff1673ffffffffffffffffffffffffffffffffffffffff16815260200190815260200160002060000160009054906101000a900473ffffffffffffffffffffffffffffffffffffffff1673ffffffffffffffffffffffffffffffffffffffff166006600060078560ff16815481106105655761056461159d565b5b9060005260206000200160009054906101000a900473ffffffffffffffffffffffffffffffffffffffff1673ffffffffffffffffffffffffffffffffffffffff1673ffffffffffffffffffffffffffffffffffffffff168152602001908152602001600020600101546040516105da906115fd565b60006040518083038185875af1925050503d8060008114610617576040519150601f19603f3d011682016040523d82523d6000602084013e61061c565b606091505b5050905080610660576040517f08c379a00000000000000000000000000000000000000000000000000000000081526004016106579061165e565b60405180910390fd5b60016006600060078560ff168154811061067d5761067c61159d565b5b9060005260206000200160009054906101000a900473ffffffffffffffffffffffffffffffffffffffff1673ffffffffffffffffffffffffffffffffffffffff1673ffffffffffffffffffffffffffffffffffffffff16815260200190815260200160002060020160006101000a81548160ff0219169083151502179055507fe7d9a2718561a9539a21711f1a38319d7c67b5c24278670af1c23c2e2cd7d4ec6006600060078560ff16815481106107385761073761159d565b5b9060005260206000200160009054906101000a900473ffffffffffffffffffffffffffffffffffffffff1673ffffffffffffffffffffffffffffffffffffffff1673ffffffffffffffffffffffffffffffffffffffff16815260200190815260200160002060000160009054906101000a900473ffffffffffffffffffffffffffffffffffffffff16426040516107d09291906116dd565b60405180910390a1505b80806107e590611706565b915050610341565b50565b336000805b6007805490508160ff161015610891578273ffffffffffffffffffffffffffffffffffffffff1660078260ff16815481106108335761083261159d565b5b9060005260206000200160009054906101000a900473ffffffffffffffffffffffffffffffffffffffff1673ffffffffffffffffffffffffffffffffffffffff160361087e57600191505b808061088990611706565b9150506107f5565b5080156108d3576040517f08c379a00000000000000000000000000000000000000000000000000000000081526004016108ca9061177b565b60405180910390fd5b826000813b90506000811461091d576040517f08c379a00000000000000000000000000000000000000000000000000000000081526004016109149061180d565b60405180910390fd5b600454341015610962576040517f08c379a00000000000000000000000000000000000000000000000000000000081526004016109599061189f565b60405180910390fd5b6000600660003373ffffffffffffffffffffffffffffffffffffffff1673ffffffffffffffffffffffffffffffffffffffff16815260200190815260200160002060020160026101000a81548160ff021916908360ff16021790555084600660003373ffffffffffffffffffffffffffffffffffffffff1673ffffffffffffffffffffffffffffffffffffffff16815260200190815260200160002060000160006101000a81548173ffffffffffffffffffffffffffffffffffffffff021916908373ffffffffffffffffffffffffffffffffffffffff1602179055506000600660003373ffffffffffffffffffffffffffffffffffffffff1673ffffffffffffffffffffffffffffffffffffffff16815260200190815260200160002060020160006101000a81548160ff0219169083151502179055506001600660003373ffffffffffffffffffffffffffffffffffffffff1673ffffffffffffffffffffffffffffffffffffffff16815260200190815260200160002060020160016101000a81548160ff02191690831515021790555034600660003373ffffffffffffffffffffffffffffffffffffffff1673ffffffffffffffffffffffffffffffffffffffff168152602001908152602001600020600101819055506007339080600181540180825580915050600190039060005260206000200160009091909190916101000a81548173ffffffffffffffffffffffffffffffffffffffff021916908373ffffffffffffffffffffffffffffffffffffffff1602179055507f75dffe0fb61ff2c8945116ae986d8a0a87751d4addbdf798e256d7415aa4162d3342604051610bd0929190611305565b60405180910390a15050505050565b60008054906101000a900473ffffffffffffffffffffffffffffffffffffffff1681565b600560019054906101000a900461ffff1661ffff1660015442610c2691906114ec565b11610c66576040517f08c379a0000000000000000000000000000000000000000000000000000000008152600401610c5d9061190b565b60405180910390fd5b4260018190555060005b6007805490508160ff161015610f2d576006600060078360ff1681548110610c9b57610c9a61159d565b5b9060005260206000200160009054906101000a900473ffffffffffffffffffffffffffffffffffffffff1673ffffffffffffffffffffffffffffffffffffffff1673ffffffffffffffffffffffffffffffffffffffff16815260200190815260200160002060020160019054906101000a900460ff1615610dd0576006600060078360ff1681548110610d3157610d3061159d565b5b9060005260206000200160009054906101000a900473ffffffffffffffffffffffffffffffffffffffff1673ffffffffffffffffffffffffffffffffffffffff1673ffffffffffffffffffffffffffffffffffffffff168152602001908152602001600020600201600281819054906101000a900460ff1680929190610db690611706565b91906101000a81548160ff021916908360ff160217905550505b600560009054906101000a900460ff1660ff166006600060078460ff1681548110610dfe57610dfd61159d565b5b9060005260206000200160009054906101000a900473ffffffffffffffffffffffffffffffffffffffff1673ffffffffffffffffffffffffffffffffffffffff1673ffffffffffffffffffffffffffffffffffffffff16815260200190815260200160002060020160029054906101000a900460ff1660ff161115610f1a5760006006600060078460ff1681548110610e9a57610e9961159d565b5b9060005260206000200160009054906101000a900473ffffffffffffffffffffffffffffffffffffffff1673ffffffffffffffffffffffffffffffffffffffff1673ffffffffffffffffffffffffffffffffffffffff16815260200190815260200160002060020160016101000a81548160ff0219169083151502179055505b8080610f2590611706565b915050610c70565b507fd5a689c847ea8c5e0d3431889f2d9262f839825775f1ac53541cba01d4b6780e42604051610f5d91906114a2565b60405180910390a1565b336000805b6007805490508160ff161015611008578273ffffffffffffffffffffffffffffffffffffffff1660078260ff1681548110610faa57610fa961159d565b5b9060005260206000200160009054906101000a900473ffffffffffffffffffffffffffffffffffffffff1673ffffffffffffffffffffffffffffffffffffffff1603610ff557600191505b808061100090611706565b915050610f6c565b5080611049576040517f08c379a000000000000000000000000000000000000000000000000000000000815260040161104090611977565b60405180910390fd5b6000600660003373ffffffffffffffffffffffffffffffffffffffff1673ffffffffffffffffffffffffffffffffffffffff16815260200190815260200160002060020160026101000a81548160ff021916908360ff1602179055505050565b6000816000805b6007805490508160ff16101561114c578273ffffffffffffffffffffffffffffffffffffffff1660078260ff16815481106110ee576110ed61159d565b5b9060005260206000200160009054906101000a900473ffffffffffffffffffffffffffffffffffffffff1673ffffffffffffffffffffffffffffffffffffffff160361113957600191505b808061114490611706565b9150506110b0565b508061118d576040517f08c379a000000000000000000000000000000000000000000000000000000000815260040161118490611977565b60405180910390fd5b600660008573ffffffffffffffffffffffffffffffffffffffff1673ffffffffffffffffffffffffffffffffffffffff16815260200190815260200160002060020160029054906101000a900460ff1692505050919050565b7f688e89c1496876b0d792df75671fbe827183660b170bb8983d82511a6a4b7d1b3334604051611217929190611305565b60405180910390a1565b600560009054906101000a900460ff1681565b60045481565b600560079054906101000a900467ffffffffffffffff1667ffffffffffffffff166003544261126991906114ec565b116112a9576040517f08c379a00000000000000000000000000000000000000000000000000000000081526004016112a0906119e3565b60405180910390fd5b565b600073ffffffffffffffffffffffffffffffffffffffff82169050919050565b60006112d6826112ab565b9050919050565b6112e6816112cb565b82525050565b6000819050919050565b6112ff816112ec565b82525050565b600060408201905061131a60008301856112dd565b61132760208301846112f6565b9392505050565b600080fd5b61133c816112ec565b811461134757600080fd5b50565b60008135905061135981611333565b92915050565b6000602082840312156113755761137461132e565b5b60006113838482850161134a565b91505092915050565b60006020820190506113a160008301846112dd565b92915050565b60006113b2826112ab565b9050919050565b6113c2816113a7565b81146113cd57600080fd5b50565b6000813590506113df816113b9565b92915050565b6000602082840312156113fb576113fa61132e565b5b6000611409848285016113d0565b91505092915050565b61141b816112cb565b811461142657600080fd5b50565b60008135905061143881611412565b92915050565b6000602082840312156114545761145361132e565b5b600061146284828501611429565b91505092915050565b600060ff82169050919050565b6114818161146b565b82525050565b600060208201905061149c6000830184611478565b92915050565b60006020820190506114b760008301846112f6565b92915050565b7f4e487b7100000000000000000000000000000000000000000000000000000000600052601160045260246000fd5b60006114f7826112ec565b9150611502836112ec565b925082820390508181111561151a576115196114bd565b5b92915050565b600082825260208201905092915050565b7f4e6f7420757020746f2061204461792100000000000000000000000000000000600082015250565b6000611567601083611520565b915061157282611531565b602082019050919050565b600060208201905081810360008301526115968161155a565b9050919050565b7f4e487b7100000000000000000000000000000000000000000000000000000000600052603260045260246000fd5b600081905092915050565b50565b60006115e76000836115cc565b91506115f2826115d7565b600082019050919050565b6000611608826115da565b9150819050919050565b7f4661696c656420746f2073656e6420626c657373696e67732e00000000000000600082015250565b6000611648601983611520565b915061165382611612565b602082019050919050565b600060208201905081810360008301526116778161163b565b9050919050565b6000819050919050565b60006116a361169e611699846112ab565b61167e565b6112ab565b9050919050565b60006116b582611688565b9050919050565b60006116c7826116aa565b9050919050565b6116d7816116bc565b82525050565b60006040820190506116f260008301856116ce565b6116ff60208301846112f6565b9392505050565b60006117118261146b565b915060ff8203611724576117236114bd565b5b600182019050919050565b7f416c726561647920726567697374657265642100000000000000000000000000600082015250565b6000611765601383611520565b91506117708261172f565b602082019050919050565b6000602082019050818103600083015261179481611758565b9050919050565b7f4b696e20416464726573732063616e6e6f74206265206120736d61727420636f60008201527f6e74726163742100000000000000000000000000000000000000000000000000602082015250565b60006117f7602783611520565b91506118028261179b565b604082019050919050565b60006020820190508181036000830152611826816117ea565b9050919050565b7f4d696e696d756d20526567697374726174696f6e20697320302e303031204d4160008201527f5449430000000000000000000000000000000000000000000000000000000000602082015250565b6000611889602383611520565b91506118948261182d565b604082019050919050565b600060208201905081810360008301526118b88161187c565b9050919050565b7f4e6f7420757020746f20616e20686f7572210000000000000000000000000000600082015250565b60006118f5601283611520565b9150611900826118bf565b602082019050919050565b60006020820190508181036000830152611924816118e8565b9050919050565b7f55736572206973206e6f74207265676973746572656421000000000000000000600082015250565b6000611961601783611520565b915061196c8261192b565b602082019050919050565b6000602082019050818103600083015261199081611954565b9050919050565b7f4e6f7420757020746f2061205765656b21000000000000000000000000000000600082015250565b60006119cd601183611520565b91506119d882611997565b602082019050919050565b600060208201905081810360008301526119fc816119c0565b905091905056fea26469706673582212202b8b2b6ddc99c648ee9cdb9e3aa74b5c78b62716a4e0c0d9a52388fa4d3ffe9264736f6c63430008110033",
  "linkReferences": {},
  "deployedLinkReferences": {}
}