{
  "_format": "hh-sol-artifact-1",
  "contractName": "AlwaysAlive",
  "sourceName": "contracts/AlwaysAlive.sol",
  "abi": [
    {
      "inputs": [
        {
          "internalType": "uint64",
          "name": "_subscriptionId",
          "type": "uint64"
        }
      ],
      "stateMutability": "payable",
      "type": "constructor"
    },
    {
      "inputs": [
        {
          "internalType": "address",
          "name": "have",
          "type": "address"
        },
        {
          "internalType": "address",
          "name": "want",
          "type": "address"
        }
      ],
      "name": "OnlyCoordinatorCanFulfill",
      "type": "error"
    },
    {
      "anonymous": false,
      "inputs": [
        {
          "indexed": true,
          "internalType": "address",
          "name": "from",
          "type": "address"
        },
        {
          "indexed": true,
          "internalType": "address",
          "name": "to",
          "type": "address"
        }
      ],
      "name": "OwnershipTransferRequested",
      "type": "event"
    },
    {
      "anonymous": false,
      "inputs": [
        {
          "indexed": true,
          "internalType": "address",
          "name": "from",
          "type": "address"
        },
        {
          "indexed": true,
          "internalType": "address",
          "name": "to",
          "type": "address"
        }
      ],
      "name": "OwnershipTransferred",
      "type": "event"
    },
    {
      "anonymous": false,
      "inputs": [
        {
          "indexed": false,
          "internalType": "uint256",
          "name": "requestId",
          "type": "uint256"
        },
        {
          "indexed": false,
          "internalType": "uint256[]",
          "name": "randomWords",
          "type": "uint256[]"
        }
      ],
      "name": "RequestFulfilled",
      "type": "event"
    },
    {
      "anonymous": false,
      "inputs": [
        {
          "indexed": false,
          "internalType": "uint256",
          "name": "requestId",
          "type": "uint256"
        },
        {
          "indexed": false,
          "internalType": "uint32",
          "name": "numWords",
          "type": "uint32"
        }
      ],
      "name": "RequestSent",
      "type": "event"
    },
    {
      "anonymous": false,
      "inputs": [
        {
          "indexed": false,
          "internalType": "address",
          "name": "spender",
          "type": "address"
        },
        {
          "indexed": false,
          "internalType": "uint256",
          "name": "amount",
          "type": "uint256"
        }
      ],
      "name": "approvedMatic",
      "type": "event"
    },
    {
      "anonymous": false,
      "inputs": [
        {
          "indexed": false,
          "internalType": "address",
          "name": "kin",
          "type": "address"
        },
        {
          "indexed": false,
          "internalType": "uint256",
          "name": "when",
          "type": "uint256"
        }
      ],
      "name": "blessed",
      "type": "event"
    },
    {
      "anonymous": false,
      "inputs": [
        {
          "indexed": false,
          "internalType": "address",
          "name": "payer",
          "type": "address"
        },
        {
          "indexed": false,
          "internalType": "uint256",
          "name": "amount",
          "type": "uint256"
        }
      ],
      "name": "deposited",
      "type": "event"
    },
    {
      "anonymous": false,
      "inputs": [
        {
          "indexed": false,
          "internalType": "uint256",
          "name": "when",
          "type": "uint256"
        }
      ],
      "name": "incrementedConfirmations",
      "type": "event"
    },
    {
      "anonymous": false,
      "inputs": [
        {
          "indexed": false,
          "internalType": "address",
          "name": "kin",
          "type": "address"
        },
        {
          "indexed": false,
          "internalType": "uint256",
          "name": "when",
          "type": "uint256"
        }
      ],
      "name": "inheritered",
      "type": "event"
    },
    {
      "anonymous": false,
      "inputs": [
        {
          "indexed": false,
          "internalType": "address",
          "name": "kin",
          "type": "address"
        },
        {
          "indexed": false,
          "internalType": "uint256",
          "name": "when",
          "type": "uint256"
        }
      ],
      "name": "paidDailyProfits",
      "type": "event"
    },
    {
      "anonymous": false,
      "inputs": [
        {
          "indexed": false,
          "internalType": "address",
          "name": "user",
          "type": "address"
        },
        {
          "indexed": false,
          "internalType": "uint256",
          "name": "when",
          "type": "uint256"
        }
      ],
      "name": "registered",
      "type": "event"
    },
    {
      "anonymous": false,
      "inputs": [
        {
          "indexed": false,
          "internalType": "address",
          "name": "user",
          "type": "address"
        },
        {
          "indexed": false,
          "internalType": "uint256",
          "name": "when",
          "type": "uint256"
        }
      ],
      "name": "suppliedMatic",
      "type": "event"
    },
    {
      "anonymous": false,
      "inputs": [
        {
          "indexed": false,
          "internalType": "address",
          "name": "user",
          "type": "address"
        },
        {
          "indexed": false,
          "internalType": "uint256",
          "name": "when",
          "type": "uint256"
        }
      ],
      "name": "withdrawnMatic",
      "type": "event"
    },
    {
      "stateMutability": "payable",
      "type": "fallback"
    },
    {
      "inputs": [],
      "name": "MAX_NUMBER_OF_CONFIRMATIONS",
      "outputs": [
        {
          "internalType": "uint8",
          "name": "",
          "type": "uint8"
        }
      ],
      "stateMutability": "view",
      "type": "function"
    },
    {
      "inputs": [],
      "name": "MIN_AMOUNT",
      "outputs": [
        {
          "internalType": "uint256",
          "name": "",
          "type": "uint256"
        }
      ],
      "stateMutability": "view",
      "type": "function"
    },
    {
      "inputs": [],
      "name": "acceptOwnership",
      "outputs": [],
      "stateMutability": "nonpayable",
      "type": "function"
    },
    {
      "inputs": [],
      "name": "bless",
      "outputs": [],
      "stateMutability": "view",
      "type": "function"
    },
    {
      "inputs": [
        {
          "internalType": "uint256",
          "name": "amount",
          "type": "uint256"
        }
      ],
      "name": "depositMatic",
      "outputs": [],
      "stateMutability": "nonpayable",
      "type": "function"
    },
    {
      "inputs": [
        {
          "internalType": "address",
          "name": "_user",
          "type": "address"
        }
      ],
      "name": "getCurrentConfirmations",
      "outputs": [
        {
          "internalType": "uint8",
          "name": "",
          "type": "uint8"
        }
      ],
      "stateMutability": "view",
      "type": "function"
    },
    {
      "inputs": [],
      "name": "getLastBlessedKin",
      "outputs": [
        {
          "internalType": "address",
          "name": "",
          "type": "address"
        }
      ],
      "stateMutability": "view",
      "type": "function"
    },
    {
      "inputs": [
        {
          "internalType": "uint256",
          "name": "_requestId",
          "type": "uint256"
        }
      ],
      "name": "getRequestStatus",
      "outputs": [
        {
          "internalType": "bool",
          "name": "fulfilled",
          "type": "bool"
        },
        {
          "internalType": "uint256[]",
          "name": "randomWords",
          "type": "uint256[]"
        }
      ],
      "stateMutability": "view",
      "type": "function"
    },
    {
      "inputs": [],
      "name": "incrementConfirmations",
      "outputs": [],
      "stateMutability": "nonpayable",
      "type": "function"
    },
    {
      "inputs": [],
      "name": "inherit",
      "outputs": [],
      "stateMutability": "nonpayable",
      "type": "function"
    },
    {
      "inputs": [],
      "name": "lastBlessedKin",
      "outputs": [
        {
          "internalType": "address",
          "name": "",
          "type": "address"
        }
      ],
      "stateMutability": "view",
      "type": "function"
    },
    {
      "inputs": [],
      "name": "lastRequestId",
      "outputs": [
        {
          "internalType": "uint256",
          "name": "",
          "type": "uint256"
        }
      ],
      "stateMutability": "view",
      "type": "function"
    },
    {
      "inputs": [],
      "name": "owner",
      "outputs": [
        {
          "internalType": "address",
          "name": "",
          "type": "address"
        }
      ],
      "stateMutability": "view",
      "type": "function"
    },
    {
      "inputs": [
        {
          "internalType": "uint256",
          "name": "requestId",
          "type": "uint256"
        },
        {
          "internalType": "uint256[]",
          "name": "randomWords",
          "type": "uint256[]"
        }
      ],
      "name": "rawFulfillRandomWords",
      "outputs": [],
      "stateMutability": "nonpayable",
      "type": "function"
    },
    {
      "inputs": [
        {
          "internalType": "address payable",
          "name": "_kinAddress",
          "type": "address"
        }
      ],
      "name": "register",
      "outputs": [],
      "stateMutability": "payable",
      "type": "function"
    },
    {
      "inputs": [
        {
          "internalType": "uint256",
          "name": "",
          "type": "uint256"
        }
      ],
      "name": "requestIds",
      "outputs": [
        {
          "internalType": "uint256",
          "name": "",
          "type": "uint256"
        }
      ],
      "stateMutability": "view",
      "type": "function"
    },
    {
      "inputs": [],
      "name": "requestRandomWords",
      "outputs": [
        {
          "internalType": "uint256",
          "name": "requestId",
          "type": "uint256"
        }
      ],
      "stateMutability": "nonpayable",
      "type": "function"
    },
    {
      "inputs": [
        {
          "internalType": "uint256",
          "name": "",
          "type": "uint256"
        }
      ],
      "name": "requests",
      "outputs": [
        {
          "internalType": "bool",
          "name": "fulfilled",
          "type": "bool"
        },
        {
          "internalType": "bool",
          "name": "exists",
          "type": "bool"
        }
      ],
      "stateMutability": "view",
      "type": "function"
    },
    {
      "inputs": [
        {
          "internalType": "address",
          "name": "to",
          "type": "address"
        }
      ],
      "name": "transferOwnership",
      "outputs": [],
      "stateMutability": "nonpayable",
      "type": "function"
    },
    {
      "inputs": [
        {
          "internalType": "uint256",
          "name": "",
          "type": "uint256"
        }
      ],
      "name": "users",
      "outputs": [
        {
          "internalType": "address",
          "name": "",
          "type": "address"
        }
      ],
      "stateMutability": "view",
      "type": "function"
    },
    {
      "inputs": [],
      "name": "validateLife",
      "outputs": [],
      "stateMutability": "nonpayable",
      "type": "function"
    },
    {
      "inputs": [
        {
          "internalType": "uint256",
          "name": "amount",
          "type": "uint256"
        },
        {
          "internalType": "address",
          "name": "kin",
          "type": "address"
        }
      ],
      "name": "withdrawMatic",
      "outputs": [],
      "stateMutability": "nonpayable",
      "type": "function"
    },
    {
      "stateMutability": "payable",
      "type": "receive"
    }
  ],
  "bytecode": "0x60a06040527389a6ae840b3f8f489418933a220315eea36d11ff6000806101000a81548173ffffffffffffffffffffffffffffffffffffffff021916908373ffffffffffffffffffffffffffffffffffffffff16021790555060008054906101000a900473ffffffffffffffffffffffffffffffffffffffff16600160006101000a81548173ffffffffffffffffffffffffffffffffffffffff021916908373ffffffffffffffffffffffffffffffffffffffff160217905550732a58e9bbb5434fda7ff78051a4b82cb0ef669c17600260006101000a81548173ffffffffffffffffffffffffffffffffffffffff021916908373ffffffffffffffffffffffffffffffffffffffff160217905550600260009054906101000a900473ffffffffffffffffffffffffffffffffffffffff16600360006101000a81548173ffffffffffffffffffffffffffffffffffffffff021916908373ffffffffffffffffffffffffffffffffffffffff160217905550735343b5ba672ae99d627a1c87866b8e53f47db2e6600460006101000a81548173ffffffffffffffffffffffffffffffffffffffff021916908373ffffffffffffffffffffffffffffffffffffffff1602179055507f4b09e658ed251bcafeebbc69400383d49f344ace09b9576fe248bb02c003fe9f60001b600c55621e8480600d60006101000a81548163ffffffff021916908363ffffffff1602179055506003600d60046101000a81548161ffff021916908361ffff1602179055506003600d60066101000a81548163ffffffff021916908363ffffffff1602179055506000600d600a6101000a81548160ff02191690831515021790555066038d7ea4c680006011556005601260006101000a81548160ff021916908360ff160217905550610e10601260016101000a81548161ffff021916908361ffff16021790555062015180601260036101000a81548163ffffffff021916908363ffffffff16021790555062093a80601260076101000a81548167ffffffffffffffff021916908367ffffffffffffffff16021790555060405162003b0f38038062003b0f83398181016040528101906200032791906200075f565b8033806000737a1bac17ccc5b313516c5e16fb24f7659aa5ebed600460009054906101000a900473ffffffffffffffffffffffffffffffffffffffff1673ffffffffffffffffffffffffffffffffffffffff1663026b1d5f6040518163ffffffff1660e01b8152600401602060405180830381865afa158015620003af573d6000803e3d6000fd5b505050506040513d601f19601f82011682018060405250810190620003d59190620007f6565b600560006101000a81548173ffffffffffffffffffffffffffffffffffffffff021916908373ffffffffffffffffffffffffffffffffffffffff1602179055508073ffffffffffffffffffffffffffffffffffffffff1660808173ffffffffffffffffffffffffffffffffffffffff168152505050600073ffffffffffffffffffffffffffffffffffffffff168273ffffffffffffffffffffffffffffffffffffffff161415620004bd576040517f08c379a0000000000000000000000000000000000000000000000000000000008152600401620004b49062000889565b60405180910390fd5b81600660006101000a81548173ffffffffffffffffffffffffffffffffffffffff021916908373ffffffffffffffffffffffffffffffffffffffff160217905550600073ffffffffffffffffffffffffffffffffffffffff168173ffffffffffffffffffffffffffffffffffffffff161462000545576200054481620005e360201b60201c565b5b505050737a1bac17ccc5b313516c5e16fb24f7659aa5ebed600960006101000a81548173ffffffffffffffffffffffffffffffffffffffff021916908373ffffffffffffffffffffffffffffffffffffffff16021790555080600960146101000a81548167ffffffffffffffff021916908367ffffffffffffffff1602179055505042600e8190555042600f8190555042601081905550506200091d565b3373ffffffffffffffffffffffffffffffffffffffff168173ffffffffffffffffffffffffffffffffffffffff16141562000655576040517f08c379a00000000000000000000000000000000000000000000000000000000081526004016200064c90620008fb565b60405180910390fd5b80600760006101000a81548173ffffffffffffffffffffffffffffffffffffffff021916908373ffffffffffffffffffffffffffffffffffffffff1602179055508073ffffffffffffffffffffffffffffffffffffffff16600660009054906101000a900473ffffffffffffffffffffffffffffffffffffffff1673ffffffffffffffffffffffffffffffffffffffff167fed8889f560326eb138920d842192f0eb3dd22b4f139c87a2c57538e05bae127860405160405180910390a350565b600080fd5b600067ffffffffffffffff82169050919050565b62000739816200071a565b81146200074557600080fd5b50565b60008151905062000759816200072e565b92915050565b60006020828403121562000778576200077762000715565b5b6000620007888482850162000748565b91505092915050565b600073ffffffffffffffffffffffffffffffffffffffff82169050919050565b6000620007be8262000791565b9050919050565b620007d081620007b1565b8114620007dc57600080fd5b50565b600081519050620007f081620007c5565b92915050565b6000602082840312156200080f576200080e62000715565b5b60006200081f84828501620007df565b91505092915050565b600082825260208201905092915050565b7f43616e6e6f7420736574206f776e657220746f207a65726f0000000000000000600082015250565b60006200087160188362000828565b91506200087e8262000839565b602082019050919050565b60006020820190508181036000830152620008a48162000862565b9050919050565b7f43616e6e6f74207472616e7366657220746f2073656c66000000000000000000600082015250565b6000620008e360178362000828565b9150620008f082620008ab565b602082019050919050565b600060208201905081810360008301526200091681620008d4565b9050919050565b6080516131cf6200094060003960008181610549015261059d01526131cf6000f3fe6080604052600436106101395760003560e01c80638da5cb5b116100ab578063d8a4676f1161006f578063d8a4676f14610434578063ddbcb5fa14610472578063e0c862891461049d578063e82c5808146104c8578063f2fde38b146104f3578063fc2a88c31461051c57610179565b80638da5cb5b146103735780639535afc31461039e578063b0ddccec146103b5578063c20fb046146103cc578063d8a321141461040957610179565b80635082566a116100fd5780635082566a146102645780636d85e4501461028d57806376bf384b146102b857806379ba5097146102e157806381d12c58146102f85780638796ba8c1461033657610179565b80631fe543e3146101b45780632b445d78146101dd578063365b98b2146101f4578063401c8a53146102315780634420e4861461024857610179565b36610179577f688e89c1496876b0d792df75671fbe827183660b170bb8983d82511a6a4b7d1b333460405161016f929190612291565b60405180910390a1005b7f688e89c1496876b0d792df75671fbe827183660b170bb8983d82511a6a4b7d1b33346040516101aa929190612291565b60405180910390a1005b3480156101c057600080fd5b506101db60048036038101906101d69190612453565b610547565b005b3480156101e957600080fd5b506101f2610607565b005b34801561020057600080fd5b5061021b600480360381019061021691906124af565b610b20565b60405161022891906124dc565b60405180910390f35b34801561023d57600080fd5b50610246610b5f565b005b610262600480360381019061025d9190612535565b610bd0565b005b34801561027057600080fd5b5061028b600480360381019061028691906124af565b610fc0565b005b34801561029957600080fd5b506102a26110b1565b6040516102af91906124dc565b60405180910390f35b3480156102c457600080fd5b506102df60048036038101906102da919061258e565b6110d7565b005b3480156102ed57600080fd5b506102f6611329565b005b34801561030457600080fd5b5061031f600480360381019061031a91906124af565b6114c0565b60405161032d9291906125e9565b60405180910390f35b34801561034257600080fd5b5061035d600480360381019061035891906124af565b6114fe565b60405161036a9190612612565b60405180910390f35b34801561037f57600080fd5b50610388611522565b60405161039591906124dc565b60405180910390f35b3480156103aa57600080fd5b506103b361154c565b005b3480156103c157600080fd5b506103ca6118b0565b005b3480156103d857600080fd5b506103f360048036038101906103ee919061262d565b6119f3565b6040516104009190612676565b60405180910390f35b34801561041557600080fd5b5061041e611b31565b60405161042b9190612676565b60405180910390f35b34801561044057600080fd5b5061045b600480360381019061045691906124af565b611b44565b60405161046992919061274f565b60405180910390f35b34801561047e57600080fd5b50610487611c6f565b6040516104949190612612565b60405180910390f35b3480156104a957600080fd5b506104b2611c75565b6040516104bf9190612612565b60405180910390f35b3480156104d457600080fd5b506104dd611ece565b6040516104ea91906124dc565b60405180910390f35b3480156104ff57600080fd5b5061051a6004803603810190610515919061262d565b611ef8565b005b34801561052857600080fd5b50610531611f0c565b60405161053e9190612612565b60405180910390f35b7f000000000000000000000000000000000000000000000000000000000000000073ffffffffffffffffffffffffffffffffffffffff163373ffffffffffffffffffffffffffffffffffffffff16146105f957337f00000000000000000000000000000000000000000000000000000000000000006040517f1cf993f40000000000000000000000000000000000000000000000000000000081526004016105f092919061277f565b60405180910390fd5b6106038282611f12565b5050565b601260039054906101000a900463ffffffff1663ffffffff16600f544261062e91906127d7565b1161066e576040517f08c379a000000000000000000000000000000000000000000000000000000000815260040161066590612868565b60405180910390fd5b60005b6014805490508160ff161015610b1d57600015156013600060148460ff16815481106106a05761069f612888565b5b9060005260206000200160009054906101000a900473ffffffffffffffffffffffffffffffffffffffff1673ffffffffffffffffffffffffffffffffffffffff1673ffffffffffffffffffffffffffffffffffffffff16815260200190815260200160002060020160019054906101000a900460ff1615151480156107b95750600015156013600060148460ff168154811061073f5761073e612888565b5b9060005260206000200160009054906101000a900473ffffffffffffffffffffffffffffffffffffffff1673ffffffffffffffffffffffffffffffffffffffff1673ffffffffffffffffffffffffffffffffffffffff16815260200190815260200160002060020160009054906101000a900460ff161515145b15610b0a5760006013600060148460ff16815481106107db576107da612888565b5b9060005260206000200160009054906101000a900473ffffffffffffffffffffffffffffffffffffffff1673ffffffffffffffffffffffffffffffffffffffff1673ffffffffffffffffffffffffffffffffffffffff16815260200190815260200160002060000160009054906101000a900473ffffffffffffffffffffffffffffffffffffffff1673ffffffffffffffffffffffffffffffffffffffff166013600060148560ff168154811061089557610894612888565b5b9060005260206000200160009054906101000a900473ffffffffffffffffffffffffffffffffffffffff1673ffffffffffffffffffffffffffffffffffffffff1673ffffffffffffffffffffffffffffffffffffffff1681526020019081526020016000206001015460405161090a906128e8565b60006040518083038185875af1925050503d8060008114610947576040519150601f19603f3d011682016040523d82523d6000602084013e61094c565b606091505b5050905080610990576040517f08c379a00000000000000000000000000000000000000000000000000000000081526004016109879061296f565b60405180910390fd5b60016013600060148560ff16815481106109ad576109ac612888565b5b9060005260206000200160009054906101000a900473ffffffffffffffffffffffffffffffffffffffff1673ffffffffffffffffffffffffffffffffffffffff1673ffffffffffffffffffffffffffffffffffffffff16815260200190815260200160002060020160006101000a81548160ff0219169083151502179055507f1b21905e26e2a9ba69b27c5f747c514d5cc18b441276ca90063b707d7c94b7d76013600060148560ff1681548110610a6857610a67612888565b5b9060005260206000200160009054906101000a900473ffffffffffffffffffffffffffffffffffffffff1673ffffffffffffffffffffffffffffffffffffffff1673ffffffffffffffffffffffffffffffffffffffff16815260200190815260200160002060000160009054906101000a900473ffffffffffffffffffffffffffffffffffffffff1642604051610b009291906129ee565b60405180910390a1505b8080610b1590612a17565b915050610671565b50565b60148181548110610b3057600080fd5b906000526020600020016000915054906101000a900473ffffffffffffffffffffffffffffffffffffffff1681565b601260079054906101000a900467ffffffffffffffff1667ffffffffffffffff1660105442610b8e91906127d7565b11610bce576040517f08c379a0000000000000000000000000000000000000000000000000000000008152600401610bc590612a8d565b60405180910390fd5b565b336000805b6014805490508160ff161015610c72578273ffffffffffffffffffffffffffffffffffffffff1660148260ff1681548110610c1357610c12612888565b5b9060005260206000200160009054906101000a900473ffffffffffffffffffffffffffffffffffffffff1673ffffffffffffffffffffffffffffffffffffffff161415610c5f57600191505b8080610c6a90612a17565b915050610bd5565b508015610cb4576040517f08c379a0000000000000000000000000000000000000000000000000000000008152600401610cab90612af9565b60405180910390fd5b826000813b905060008114610cfe576040517f08c379a0000000000000000000000000000000000000000000000000000000008152600401610cf590612b8b565b60405180910390fd5b601154341015610d43576040517f08c379a0000000000000000000000000000000000000000000000000000000008152600401610d3a90612c1d565b60405180910390fd5b6000601360003373ffffffffffffffffffffffffffffffffffffffff1673ffffffffffffffffffffffffffffffffffffffff16815260200190815260200160002060020160026101000a81548160ff021916908360ff16021790555084601360003373ffffffffffffffffffffffffffffffffffffffff1673ffffffffffffffffffffffffffffffffffffffff16815260200190815260200160002060000160006101000a81548173ffffffffffffffffffffffffffffffffffffffff021916908373ffffffffffffffffffffffffffffffffffffffff1602179055506000601360003373ffffffffffffffffffffffffffffffffffffffff1673ffffffffffffffffffffffffffffffffffffffff16815260200190815260200160002060020160006101000a81548160ff0219169083151502179055506001601360003373ffffffffffffffffffffffffffffffffffffffff1673ffffffffffffffffffffffffffffffffffffffff16815260200190815260200160002060020160016101000a81548160ff02191690831515021790555034601360003373ffffffffffffffffffffffffffffffffffffffff1673ffffffffffffffffffffffffffffffffffffffff168152602001908152602001600020600101819055506014339080600181540180825580915050600190039060005260206000200160009091909190916101000a81548173ffffffffffffffffffffffffffffffffffffffff021916908373ffffffffffffffffffffffffffffffffffffffff1602179055507f75dffe0fb61ff2c8945116ae986d8a0a87751d4addbdf798e256d7415aa4162d3342604051610fb1929190612291565b60405180910390a15050505050565b600360009054906101000a900473ffffffffffffffffffffffffffffffffffffffff1673ffffffffffffffffffffffffffffffffffffffff1663474cf53d82600560009054906101000a900473ffffffffffffffffffffffffffffffffffffffff163360006040518563ffffffff1660e01b815260040161104393929190612c86565b6000604051808303818588803b15801561105c57600080fd5b505af1158015611070573d6000803e3d6000fd5b50505050507f217794e6bdf0f51e3c1497aaa311d34599b9d701c794e143cf9afd53a69af5e033426040516110a6929190612291565b60405180910390a150565b600d600b9054906101000a900473ffffffffffffffffffffffffffffffffffffffff1681565b6000600160009054906101000a900473ffffffffffffffffffffffffffffffffffffffff1673ffffffffffffffffffffffffffffffffffffffff1663095ea7b3600260009054906101000a900473ffffffffffffffffffffffffffffffffffffffff16856040518363ffffffff1660e01b8152600401611158929190612291565b6020604051808303816000875af1158015611177573d6000803e3d6000fd5b505050506040513d601f19601f8201168201806040525081019061119b9190612ce9565b9050806111dd576040517f08c379a00000000000000000000000000000000000000000000000000000000081526004016111d490612d62565b60405180910390fd5b7ff55ab26082eeae6c0a58cd94b9abbc963077676e334e1980e949d66d0632997b600260009054906101000a900473ffffffffffffffffffffffffffffffffffffffff1684604051611230929190612291565b60405180910390a1600360009054906101000a900473ffffffffffffffffffffffffffffffffffffffff1673ffffffffffffffffffffffffffffffffffffffff166380500d20600560009054906101000a900473ffffffffffffffffffffffffffffffffffffffff1685856040518463ffffffff1660e01b81526004016112b993929190612d82565b600060405180830381600087803b1580156112d357600080fd5b505af11580156112e7573d6000803e3d6000fd5b505050507fbd51083cb7d0069935600787f3baf8d13f18d0431a3ecbaccb7b22864a144626824260405161131c929190612291565b60405180910390a1505050565b600760009054906101000a900473ffffffffffffffffffffffffffffffffffffffff1673ffffffffffffffffffffffffffffffffffffffff163373ffffffffffffffffffffffffffffffffffffffff16146113b9576040517f08c379a00000000000000000000000000000000000000000000000000000000081526004016113b090612e05565b60405180910390fd5b6000600660009054906101000a900473ffffffffffffffffffffffffffffffffffffffff16905033600660006101000a81548173ffffffffffffffffffffffffffffffffffffffff021916908373ffffffffffffffffffffffffffffffffffffffff1602179055506000600760006101000a81548173ffffffffffffffffffffffffffffffffffffffff021916908373ffffffffffffffffffffffffffffffffffffffff1602179055503373ffffffffffffffffffffffffffffffffffffffff168173ffffffffffffffffffffffffffffffffffffffff167f8be0079c531659141344cd1fd0a4f28419497f9722a3daafe3b4186f6b6457e060405160405180910390a350565b60086020528060005260406000206000915090508060000160009054906101000a900460ff16908060000160019054906101000a900460ff16905082565b600a818154811061150e57600080fd5b906000526020600020016000915090505481565b6000600660009054906101000a900473ffffffffffffffffffffffffffffffffffffffff16905090565b601260019054906101000a900461ffff1661ffff16600e544261156f91906127d7565b116115af576040517f08c379a00000000000000000000000000000000000000000000000000000000081526004016115a690612e71565b60405180910390fd5b42600e8190555060005b6014805490508160ff161015611876576013600060148360ff16815481106115e4576115e3612888565b5b9060005260206000200160009054906101000a900473ffffffffffffffffffffffffffffffffffffffff1673ffffffffffffffffffffffffffffffffffffffff1673ffffffffffffffffffffffffffffffffffffffff16815260200190815260200160002060020160019054906101000a900460ff1615611719576013600060148360ff168154811061167a57611679612888565b5b9060005260206000200160009054906101000a900473ffffffffffffffffffffffffffffffffffffffff1673ffffffffffffffffffffffffffffffffffffffff1673ffffffffffffffffffffffffffffffffffffffff168152602001908152602001600020600201600281819054906101000a900460ff16809291906116ff90612a17565b91906101000a81548160ff021916908360ff160217905550505b601260009054906101000a900460ff1660ff166013600060148460ff168154811061174757611746612888565b5b9060005260206000200160009054906101000a900473ffffffffffffffffffffffffffffffffffffffff1673ffffffffffffffffffffffffffffffffffffffff1673ffffffffffffffffffffffffffffffffffffffff16815260200190815260200160002060020160029054906101000a900460ff1660ff1611156118635760006013600060148460ff16815481106117e3576117e2612888565b5b9060005260206000200160009054906101000a900473ffffffffffffffffffffffffffffffffffffffff1673ffffffffffffffffffffffffffffffffffffffff1673ffffffffffffffffffffffffffffffffffffffff16815260200190815260200160002060020160016101000a81548160ff0219169083151502179055505b808061186e90612a17565b9150506115b9565b507fd5a689c847ea8c5e0d3431889f2d9262f839825775f1ac53541cba01d4b6780e426040516118a69190612612565b60405180910390a1565b336000805b6014805490508160ff161015611952578273ffffffffffffffffffffffffffffffffffffffff1660148260ff16815481106118f3576118f2612888565b5b9060005260206000200160009054906101000a900473ffffffffffffffffffffffffffffffffffffffff1673ffffffffffffffffffffffffffffffffffffffff16141561193f57600191505b808061194a90612a17565b9150506118b5565b5080611993576040517f08c379a000000000000000000000000000000000000000000000000000000000815260040161198a90612edd565b60405180910390fd5b6000601360003373ffffffffffffffffffffffffffffffffffffffff1673ffffffffffffffffffffffffffffffffffffffff16815260200190815260200160002060020160026101000a81548160ff021916908360ff1602179055505050565b6000816000805b6014805490508160ff161015611a97578273ffffffffffffffffffffffffffffffffffffffff1660148260ff1681548110611a3857611a37612888565b5b9060005260206000200160009054906101000a900473ffffffffffffffffffffffffffffffffffffffff1673ffffffffffffffffffffffffffffffffffffffff161415611a8457600191505b8080611a8f90612a17565b9150506119fa565b5080611ad8576040517f08c379a0000000000000000000000000000000000000000000000000000000008152600401611acf90612edd565b60405180910390fd5b601360008573ffffffffffffffffffffffffffffffffffffffff1673ffffffffffffffffffffffffffffffffffffffff16815260200190815260200160002060020160029054906101000a900460ff1692505050919050565b601260009054906101000a900460ff1681565b600060606008600084815260200190815260200160002060000160019054906101000a900460ff16611bab576040517f08c379a0000000000000000000000000000000000000000000000000000000008152600401611ba290612f49565b60405180910390fd5b6000600860008581526020019081526020016000206040518060600160405290816000820160009054906101000a900460ff161515151581526020016000820160019054906101000a900460ff1615151515815260200160018201805480602002602001604051908101604052809291908181526020018280548015611c5057602002820191906000526020600020905b815481526020019060010190808311611c3c575b5050505050815250509050806000015181604001519250925050915091565b60115481565b6000611c7f61200c565b600960009054906101000a900473ffffffffffffffffffffffffffffffffffffffff1673ffffffffffffffffffffffffffffffffffffffff16635d3b1d30600c54600960149054906101000a900467ffffffffffffffff16600d60049054906101000a900461ffff16600d60009054906101000a900463ffffffff16600d60069054906101000a900463ffffffff166040518663ffffffff1660e01b8152600401611d2e959493929190612fd3565b6020604051808303816000875af1158015611d4d573d6000803e3d6000fd5b505050506040513d601f19601f82011682018060405250810190611d71919061303b565b90506040518060600160405280600015158152602001600115158152602001600067ffffffffffffffff811115611dab57611daa612310565b5b604051908082528060200260200182016040528015611dd95781602001602082028036833780820191505090505b508152506008600083815260200190815260200160002060008201518160000160006101000a81548160ff02191690831515021790555060208201518160000160016101000a81548160ff0219169083151502179055506040820151816001019080519060200190611e4c9291906121cd565b50905050600a81908060018154018082558091505060019003906000526020600020016000909190919091505580600b819055507fcc58b13ad3eab50626c6a6300b1d139cd6ebb1688a7cced9461c2f7e762665ee81600d60069054906101000a900463ffffffff16604051611ec3929190613068565b60405180910390a190565b6000600d600b9054906101000a900473ffffffffffffffffffffffffffffffffffffffff16905090565b611f0061200c565b611f098161209e565b50565b600b5481565b6008600083815260200190815260200160002060000160019054906101000a900460ff16611f75576040517f08c379a0000000000000000000000000000000000000000000000000000000008152600401611f6c90612f49565b60405180910390fd5b60016008600084815260200190815260200160002060000160006101000a81548160ff02191690831515021790555080600860008481526020019081526020016000206001019080519060200190611fce9291906121cd565b507ffe2e2d779dba245964d4e3ef9b994be63856fd568bf7d3ca9e224755cb1bd54d8282604051612000929190613091565b60405180910390a15050565b600660009054906101000a900473ffffffffffffffffffffffffffffffffffffffff1673ffffffffffffffffffffffffffffffffffffffff163373ffffffffffffffffffffffffffffffffffffffff161461209c576040517f08c379a00000000000000000000000000000000000000000000000000000000081526004016120939061310d565b60405180910390fd5b565b3373ffffffffffffffffffffffffffffffffffffffff168173ffffffffffffffffffffffffffffffffffffffff16141561210d576040517f08c379a000000000000000000000000000000000000000000000000000000000815260040161210490613179565b60405180910390fd5b80600760006101000a81548173ffffffffffffffffffffffffffffffffffffffff021916908373ffffffffffffffffffffffffffffffffffffffff1602179055508073ffffffffffffffffffffffffffffffffffffffff16600660009054906101000a900473ffffffffffffffffffffffffffffffffffffffff1673ffffffffffffffffffffffffffffffffffffffff167fed8889f560326eb138920d842192f0eb3dd22b4f139c87a2c57538e05bae127860405160405180910390a350565b828054828255906000526020600020908101928215612209579160200282015b828111156122085782518255916020019190600101906121ed565b5b509050612216919061221a565b5090565b5b8082111561223357600081600090555060010161221b565b5090565b600073ffffffffffffffffffffffffffffffffffffffff82169050919050565b600061226282612237565b9050919050565b61227281612257565b82525050565b6000819050919050565b61228b81612278565b82525050565b60006040820190506122a66000830185612269565b6122b36020830184612282565b9392505050565b6000604051905090565b600080fd5b600080fd5b6122d781612278565b81146122e257600080fd5b50565b6000813590506122f4816122ce565b92915050565b600080fd5b6000601f19601f8301169050919050565b7f4e487b7100000000000000000000000000000000000000000000000000000000600052604160045260246000fd5b612348826122ff565b810181811067ffffffffffffffff8211171561236757612366612310565b5b80604052505050565b600061237a6122ba565b9050612386828261233f565b919050565b600067ffffffffffffffff8211156123a6576123a5612310565b5b602082029050602081019050919050565b600080fd5b60006123cf6123ca8461238b565b612370565b905080838252602082019050602084028301858111156123f2576123f16123b7565b5b835b8181101561241b578061240788826122e5565b8452602084019350506020810190506123f4565b5050509392505050565b600082601f83011261243a576124396122fa565b5b813561244a8482602086016123bc565b91505092915050565b6000806040838503121561246a576124696122c4565b5b6000612478858286016122e5565b925050602083013567ffffffffffffffff811115612499576124986122c9565b5b6124a585828601612425565b9150509250929050565b6000602082840312156124c5576124c46122c4565b5b60006124d3848285016122e5565b91505092915050565b60006020820190506124f16000830184612269565b92915050565b600061250282612237565b9050919050565b612512816124f7565b811461251d57600080fd5b50565b60008135905061252f81612509565b92915050565b60006020828403121561254b5761254a6122c4565b5b600061255984828501612520565b91505092915050565b61256b81612257565b811461257657600080fd5b50565b60008135905061258881612562565b92915050565b600080604083850312156125a5576125a46122c4565b5b60006125b3858286016122e5565b92505060206125c485828601612579565b9150509250929050565b60008115159050919050565b6125e3816125ce565b82525050565b60006040820190506125fe60008301856125da565b61260b60208301846125da565b9392505050565b60006020820190506126276000830184612282565b92915050565b600060208284031215612643576126426122c4565b5b600061265184828501612579565b91505092915050565b600060ff82169050919050565b6126708161265a565b82525050565b600060208201905061268b6000830184612667565b92915050565b600081519050919050565b600082825260208201905092915050565b6000819050602082019050919050565b6126c681612278565b82525050565b60006126d883836126bd565b60208301905092915050565b6000602082019050919050565b60006126fc82612691565b612706818561269c565b9350612711836126ad565b8060005b8381101561274257815161272988826126cc565b9750612734836126e4565b925050600181019050612715565b5085935050505092915050565b600060408201905061276460008301856125da565b818103602083015261277681846126f1565b90509392505050565b60006040820190506127946000830185612269565b6127a16020830184612269565b9392505050565b7f4e487b7100000000000000000000000000000000000000000000000000000000600052601160045260246000fd5b60006127e282612278565b91506127ed83612278565b925082821015612800576127ff6127a8565b5b828203905092915050565b600082825260208201905092915050565b7f4e6f7420757020746f2061204461792100000000000000000000000000000000600082015250565b600061285260108361280b565b915061285d8261281c565b602082019050919050565b6000602082019050818103600083015261288181612845565b9050919050565b7f4e487b7100000000000000000000000000000000000000000000000000000000600052603260045260246000fd5b600081905092915050565b50565b60006128d26000836128b7565b91506128dd826128c2565b600082019050919050565b60006128f3826128c5565b9150819050919050565b7f4661696c656420746f2073656e6420496e6865726974616e636520746f206b6960008201527f6e2e000000000000000000000000000000000000000000000000000000000000602082015250565b600061295960228361280b565b9150612964826128fd565b604082019050919050565b600060208201905081810360008301526129888161294c565b9050919050565b6000819050919050565b60006129b46129af6129aa84612237565b61298f565b612237565b9050919050565b60006129c682612999565b9050919050565b60006129d8826129bb565b9050919050565b6129e8816129cd565b82525050565b6000604082019050612a0360008301856129df565b612a106020830184612282565b9392505050565b6000612a228261265a565b915060ff821415612a3657612a356127a8565b5b600182019050919050565b7f4e6f7420757020746f2061205765656b21000000000000000000000000000000600082015250565b6000612a7760118361280b565b9150612a8282612a41565b602082019050919050565b60006020820190508181036000830152612aa681612a6a565b9050919050565b7f416c726561647920726567697374657265642100000000000000000000000000600082015250565b6000612ae360138361280b565b9150612aee82612aad565b602082019050919050565b60006020820190508181036000830152612b1281612ad6565b9050919050565b7f4b696e20416464726573732063616e6e6f74206265206120736d61727420636f60008201527f6e74726163742100000000000000000000000000000000000000000000000000602082015250565b6000612b7560278361280b565b9150612b8082612b19565b604082019050919050565b60006020820190508181036000830152612ba481612b68565b9050919050565b7f4d696e696d756d20526567697374726174696f6e20697320302e303031204d4160008201527f5449430000000000000000000000000000000000000000000000000000000000602082015250565b6000612c0760238361280b565b9150612c1282612bab565b604082019050919050565b60006020820190508181036000830152612c3681612bfa565b9050919050565b6000819050919050565b600061ffff82169050919050565b6000612c70612c6b612c6684612c3d565b61298f565b612c47565b9050919050565b612c8081612c55565b82525050565b6000606082019050612c9b6000830186612269565b612ca86020830185612269565b612cb56040830184612c77565b949350505050565b612cc6816125ce565b8114612cd157600080fd5b50565b600081519050612ce381612cbd565b92915050565b600060208284031215612cff57612cfe6122c4565b5b6000612d0d84828501612cd4565b91505092915050565b7f436f756c64206e6f7420617070726f76652e0000000000000000000000000000600082015250565b6000612d4c60128361280b565b9150612d5782612d16565b602082019050919050565b60006020820190508181036000830152612d7b81612d3f565b9050919050565b6000606082019050612d976000830186612269565b612da46020830185612282565b612db16040830184612269565b949350505050565b7f4d7573742062652070726f706f736564206f776e657200000000000000000000600082015250565b6000612def60168361280b565b9150612dfa82612db9565b602082019050919050565b60006020820190508181036000830152612e1e81612de2565b9050919050565b7f4e6f7420757020746f20616e20686f7572210000000000000000000000000000600082015250565b6000612e5b60128361280b565b9150612e6682612e25565b602082019050919050565b60006020820190508181036000830152612e8a81612e4e565b9050919050565b7f55736572206973206e6f74207265676973746572656421000000000000000000600082015250565b6000612ec760178361280b565b9150612ed282612e91565b602082019050919050565b60006020820190508181036000830152612ef681612eba565b9050919050565b7f72657175657374206e6f7420666f756e64000000000000000000000000000000600082015250565b6000612f3360118361280b565b9150612f3e82612efd565b602082019050919050565b60006020820190508181036000830152612f6281612f26565b9050919050565b6000819050919050565b612f7c81612f69565b82525050565b600067ffffffffffffffff82169050919050565b612f9f81612f82565b82525050565b612fae81612c47565b82525050565b600063ffffffff82169050919050565b612fcd81612fb4565b82525050565b600060a082019050612fe86000830188612f73565b612ff56020830187612f96565b6130026040830186612fa5565b61300f6060830185612fc4565b61301c6080830184612fc4565b9695505050505050565b600081519050613035816122ce565b92915050565b600060208284031215613051576130506122c4565b5b600061305f84828501613026565b91505092915050565b600060408201905061307d6000830185612282565b61308a6020830184612fc4565b9392505050565b60006040820190506130a66000830185612282565b81810360208301526130b881846126f1565b90509392505050565b7f4f6e6c792063616c6c61626c65206279206f776e657200000000000000000000600082015250565b60006130f760168361280b565b9150613102826130c1565b602082019050919050565b60006020820190508181036000830152613126816130ea565b9050919050565b7f43616e6e6f74207472616e7366657220746f2073656c66000000000000000000600082015250565b600061316360178361280b565b915061316e8261312d565b602082019050919050565b6000602082019050818103600083015261319281613156565b905091905056fea264697066735822122054fc11997f5459cba6a60e1ceb37d3831ef04387590a3cba5c831db037b80aac64736f6c634300080a0033",
  "linkReferences": {},
  "deployedLinkReferences": {}
}