{
  "_format": "hh-sol-artifact-1",
  "contractName": "AlwaysAlive",
  "sourceName": "contracts/AlwaysAlive.sol",
  "abi": [
    {
      "inputs": [
        {
          "internalType": "uint64",
          "name": "_subscriptionId",
          "type": "uint64"
        }
      ],
      "stateMutability": "payable",
      "type": "constructor"
    },
    {
      "anonymous": false,
      "inputs": [
        {
          "indexed": false,
          "internalType": "address",
          "name": "kin",
          "type": "address"
        },
        {
          "indexed": false,
          "internalType": "uint256",
          "name": "amount",
          "type": "uint256"
        },
        {
          "indexed": false,
          "internalType": "uint256",
          "name": "when",
          "type": "uint256"
        }
      ],
      "name": "blessed",
      "type": "event"
    },
    {
      "anonymous": false,
      "inputs": [
        {
          "indexed": false,
          "internalType": "uint256",
          "name": "when",
          "type": "uint256"
        }
      ],
      "name": "incrementedConfirmations",
      "type": "event"
    },
    {
      "anonymous": false,
      "inputs": [
        {
          "indexed": false,
          "internalType": "address",
          "name": "kin",
          "type": "address"
        },
        {
          "indexed": false,
          "internalType": "uint256",
          "name": "when",
          "type": "uint256"
        }
      ],
      "name": "inheritered",
      "type": "event"
    },
    {
      "anonymous": false,
      "inputs": [
        {
          "indexed": false,
          "internalType": "address",
          "name": "user",
          "type": "address"
        },
        {
          "indexed": false,
          "internalType": "uint256",
          "name": "when",
          "type": "uint256"
        }
      ],
      "name": "registered",
      "type": "event"
    },
    {
      "stateMutability": "payable",
      "type": "fallback"
    },
    {
      "inputs": [],
      "name": "MAX_AMOUNT",
      "outputs": [
        {
          "internalType": "uint256",
          "name": "",
          "type": "uint256"
        }
      ],
      "stateMutability": "view",
      "type": "function"
    },
    {
      "inputs": [],
      "name": "MAX_NUMBER_OF_CONFIRMATIONS",
      "outputs": [
        {
          "internalType": "int8",
          "name": "",
          "type": "int8"
        }
      ],
      "stateMutability": "view",
      "type": "function"
    },
    {
      "inputs": [],
      "name": "MIN_AMOUNT",
      "outputs": [
        {
          "internalType": "uint256",
          "name": "",
          "type": "uint256"
        }
      ],
      "stateMutability": "view",
      "type": "function"
    },
    {
      "inputs": [],
      "name": "bless",
      "outputs": [],
      "stateMutability": "payable",
      "type": "function"
    },
    {
      "inputs": [
        {
          "internalType": "address",
          "name": "_user",
          "type": "address"
        }
      ],
      "name": "getCurrentConfirmations",
      "outputs": [
        {
          "internalType": "int8",
          "name": "",
          "type": "int8"
        }
      ],
      "stateMutability": "view",
      "type": "function"
    },
    {
      "inputs": [],
      "name": "getLastBlessedKin",
      "outputs": [
        {
          "internalType": "address",
          "name": "",
          "type": "address"
        }
      ],
      "stateMutability": "view",
      "type": "function"
    },
    {
      "inputs": [],
      "name": "getLastPayout",
      "outputs": [
        {
          "internalType": "uint256",
          "name": "",
          "type": "uint256"
        }
      ],
      "stateMutability": "view",
      "type": "function"
    },
    {
      "inputs": [],
      "name": "incrementConfirmations",
      "outputs": [],
      "stateMutability": "nonpayable",
      "type": "function"
    },
    {
      "inputs": [],
      "name": "inherit",
      "outputs": [],
      "stateMutability": "nonpayable",
      "type": "function"
    },
    {
      "inputs": [],
      "name": "lastBlessPayout",
      "outputs": [
        {
          "internalType": "uint256",
          "name": "",
          "type": "uint256"
        }
      ],
      "stateMutability": "view",
      "type": "function"
    },
    {
      "inputs": [],
      "name": "lastBlessedKin",
      "outputs": [
        {
          "internalType": "address",
          "name": "",
          "type": "address"
        }
      ],
      "stateMutability": "view",
      "type": "function"
    },
    {
      "inputs": [
        {
          "internalType": "address payable",
          "name": "_kinAddress",
          "type": "address"
        },
        {
          "internalType": "bytes",
          "name": "signature",
          "type": "bytes"
        }
      ],
      "name": "register",
      "outputs": [],
      "stateMutability": "payable",
      "type": "function"
    },
    {
      "inputs": [],
      "name": "requestRandomness",
      "outputs": [],
      "stateMutability": "nonpayable",
      "type": "function"
    },
    {
      "inputs": [
        {
          "internalType": "uint256",
          "name": "",
          "type": "uint256"
        }
      ],
      "name": "users",
      "outputs": [
        {
          "internalType": "address",
          "name": "",
          "type": "address"
        }
      ],
      "stateMutability": "view",
      "type": "function"
    },
    {
      "inputs": [],
      "name": "validateLife",
      "outputs": [],
      "stateMutability": "nonpayable",
      "type": "function"
    },
    {
      "stateMutability": "payable",
      "type": "receive"
    }
  ],
  "bytecode": "0x608060405260056000806101000a81548160ff021916908360000b60ff16021790555066038d7ea4c68000600155670de0b6b3a7640000600255615460600360006101000a81548167ffffffffffffffff021916908367ffffffffffffffff16021790555062015180600360086101000a81548167ffffffffffffffff021916908367ffffffffffffffff1602179055506203f480600360106101000a81548167ffffffffffffffff021916908367ffffffffffffffff16021790555062015180600360186101000a81548167ffffffffffffffff021916908367ffffffffffffffff16021790555060405162005ad138038062005ad183398181016040528101906200010d9190620002f5565b806040516200011c9062000281565b62000128919062000338565b604051809103906000f08015801562000145573d6000803e3d6000fd5b50600460006101000a81548173ffffffffffffffffffffffffffffffffffffffff021916908373ffffffffffffffffffffffffffffffffffffffff16021790555060405162000194906200028f565b604051809103906000f080158015620001b1573d6000803e3d6000fd5b50600660006101000a81548173ffffffffffffffffffffffffffffffffffffffff021916908373ffffffffffffffffffffffffffffffffffffffff16021790555060405162000200906200029d565b604051809103906000f0801580156200021d573d6000803e3d6000fd5b50600560006101000a81548173ffffffffffffffffffffffffffffffffffffffff021916908373ffffffffffffffffffffffffffffffffffffffff160217905550426008819055504260098190555042600a8190555042600d819055505062000355565b6118998062002d5483390190565b610cf380620045ed83390190565b6107f180620052e083390190565b600080fd5b600067ffffffffffffffff82169050919050565b620002cf81620002b0565b8114620002db57600080fd5b50565b600081519050620002ef81620002c4565b92915050565b6000602082840312156200030e576200030d620002ab565b5b60006200031e84828501620002de565b91505092915050565b6200033281620002b0565b82525050565b60006020820190506200034f600083018462000327565b92915050565b6129ef80620003656000396000f3fe6080604052600436106100ec5760003560e01c8063aabc5b971161008a578063d8a3211411610059578063d8a3211414610286578063ddbcb5fa146102b1578063e82c5808146102dc578063f8413b0714610307576100f3565b8063aabc5b97146101dc578063b0ddccec14610207578063c20fb0461461021e578063d40dc8701461025b576100f3565b8063365b98b2116100c6578063365b98b214610153578063401c8a53146101905780636d85e4501461019a5780639535afc3146101c5576100f3565b806308cfaa4a146100f557806324b8fbf6146101205780632b445d781461013c576100f3565b366100f357005b005b34801561010157600080fd5b5061010a61031e565b6040516101179190611b33565b60405180910390f35b61013a60048036038101906101359190611d06565b610328565b005b34801561014857600080fd5b50610151610940565b005b34801561015f57600080fd5b5061017a60048036038101906101759190611d8e565b610efd565b6040516101879190611ddc565b60405180910390f35b610198610f3c565b005b3480156101a657600080fd5b506101af61132a565b6040516101bc9190611ddc565b60405180910390f35b3480156101d157600080fd5b506101da611350565b005b3480156101e857600080fd5b506101f16116c1565b6040516101fe9190611b33565b60405180910390f35b34801561021357600080fd5b5061021c6116c7565b005b34801561022a57600080fd5b5061024560048036038101906102409190611e23565b61180d565b6040516102529190611e6c565b60405180910390f35b34801561026757600080fd5b506102706119c9565b60405161027d9190611b33565b60405180910390f35b34801561029257600080fd5b5061029b6119cf565b6040516102a89190611e6c565b60405180910390f35b3480156102bd57600080fd5b506102c66119e0565b6040516102d39190611b33565b60405180910390f35b3480156102e857600080fd5b506102f16119e6565b6040516102fe9190611ddc565b60405180910390f35b34801561031357600080fd5b5061031c611a10565b005b6000600b54905090565b336000805b6010805490508160ff1610156103ca578273ffffffffffffffffffffffffffffffffffffffff1660108260ff168154811061036b5761036a611e87565b5b9060005260206000200160009054906101000a900473ffffffffffffffffffffffffffffffffffffffff1673ffffffffffffffffffffffffffffffffffffffff1614156103b757600191505b80806103c290611ef2565b91505061032d565b50801561040c576040517f08c379a000000000000000000000000000000000000000000000000000000000815260040161040390611f79565b60405180910390fd5b836000813b905060008114610456576040517f08c379a000000000000000000000000000000000000000000000000000000000815260040161044d9061200b565b60405180910390fd5b60015434101561049b576040517f08c379a00000000000000000000000000000000000000000000000000000000081526004016104929061209d565b60405180910390fd5b6002543411156104e0576040517f08c379a00000000000000000000000000000000000000000000000000000000081526004016104d79061212f565b60405180910390fd5b600660009054906101000a900473ffffffffffffffffffffffffffffffffffffffff1673ffffffffffffffffffffffffffffffffffffffff16634a41d1ac33876040518363ffffffff1660e01b815260040161053d9291906121d7565b602060405180830381865afa15801561055a573d6000803e3d6000fd5b505050506040513d601f19601f8201168201806040525081019061057e919061223f565b6105bd576040517f08c379a00000000000000000000000000000000000000000000000000000000081526004016105b4906122b8565b60405180910390fd5b6000600f60003373ffffffffffffffffffffffffffffffffffffffff1673ffffffffffffffffffffffffffffffffffffffff16815260200190815260200160002060020160036101000a81548160ff021916908360000b60ff16021790555085600f60003373ffffffffffffffffffffffffffffffffffffffff1673ffffffffffffffffffffffffffffffffffffffff16815260200190815260200160002060000160006101000a81548173ffffffffffffffffffffffffffffffffffffffff021916908373ffffffffffffffffffffffffffffffffffffffff1602179055506001600f60003373ffffffffffffffffffffffffffffffffffffffff1673ffffffffffffffffffffffffffffffffffffffff16815260200190815260200160002060020160016101000a81548160ff02191690831515021790555034600f60003373ffffffffffffffffffffffffffffffffffffffff1673ffffffffffffffffffffffffffffffffffffffff168152602001908152602001600020600101819055506000600f60003373ffffffffffffffffffffffffffffffffffffffff1673ffffffffffffffffffffffffffffffffffffffff16815260200190815260200160002060020160006101000a81548160ff0219169083151502179055506001600f60003373ffffffffffffffffffffffffffffffffffffffff1673ffffffffffffffffffffffffffffffffffffffff16815260200190815260200160002060020160026101000a81548160ff0219169083151502179055506010339080600181540180825580915050600190039060005260206000200160009091909190916101000a81548173ffffffffffffffffffffffffffffffffffffffff021916908373ffffffffffffffffffffffffffffffffffffffff160217905550346007600082825461086a91906122d8565b92505081905550600560009054906101000a900473ffffffffffffffffffffffffffffffffffffffff1673ffffffffffffffffffffffffffffffffffffffff16635082566a34346040518363ffffffff1660e01b81526004016108cd9190611b33565b6000604051808303818588803b1580156108e657600080fd5b505af11580156108fa573d6000803e3d6000fd5b50505050507f75dffe0fb61ff2c8945116ae986d8a0a87751d4addbdf798e256d7415aa4162d334260405161093092919061232e565b60405180910390a1505050505050565b600360109054906101000a900467ffffffffffffffff1667ffffffffffffffff166009544261096f9190612357565b116109af576040517f08c379a00000000000000000000000000000000000000000000000000000000081526004016109a6906123d7565b60405180910390fd5b60005b6010805490508160ff161015610efa5760001515600f600060108460ff16815481106109e1576109e0611e87565b5b9060005260206000200160009054906101000a900473ffffffffffffffffffffffffffffffffffffffff1673ffffffffffffffffffffffffffffffffffffffff1673ffffffffffffffffffffffffffffffffffffffff16815260200190815260200160002060020160019054906101000a900460ff161515148015610afa575060001515600f600060108460ff1681548110610a8057610a7f611e87565b5b9060005260206000200160009054906101000a900473ffffffffffffffffffffffffffffffffffffffff1673ffffffffffffffffffffffffffffffffffffffff1673ffffffffffffffffffffffffffffffffffffffff16815260200190815260200160002060020160009054906101000a900460ff161515145b15610ee7576000600f600060108460ff1681548110610b1c57610b1b611e87565b5b9060005260206000200160009054906101000a900473ffffffffffffffffffffffffffffffffffffffff1673ffffffffffffffffffffffffffffffffffffffff1673ffffffffffffffffffffffffffffffffffffffff16815260200190815260200160002060000160009054906101000a900473ffffffffffffffffffffffffffffffffffffffff1673ffffffffffffffffffffffffffffffffffffffff16600f600060108560ff1681548110610bd657610bd5611e87565b5b9060005260206000200160009054906101000a900473ffffffffffffffffffffffffffffffffffffffff1673ffffffffffffffffffffffffffffffffffffffff1673ffffffffffffffffffffffffffffffffffffffff16815260200190815260200160002060010154604051610c4b90612428565b60006040518083038185875af1925050503d8060008114610c88576040519150601f19603f3d011682016040523d82523d6000602084013e610c8d565b606091505b5050905080610cd1576040517f08c379a0000000000000000000000000000000000000000000000000000000008152600401610cc8906124af565b60405180910390fd5b600f600060108460ff1681548110610cec57610ceb611e87565b5b9060005260206000200160009054906101000a900473ffffffffffffffffffffffffffffffffffffffff1673ffffffffffffffffffffffffffffffffffffffff1673ffffffffffffffffffffffffffffffffffffffff1681526020019081526020016000206001015460076000828254610d669190612357565b925050819055506001600f600060108560ff1681548110610d8a57610d89611e87565b5b9060005260206000200160009054906101000a900473ffffffffffffffffffffffffffffffffffffffff1673ffffffffffffffffffffffffffffffffffffffff1673ffffffffffffffffffffffffffffffffffffffff16815260200190815260200160002060020160006101000a81548160ff0219169083151502179055507f1b21905e26e2a9ba69b27c5f747c514d5cc18b441276ca90063b707d7c94b7d7600f600060108560ff1681548110610e4557610e44611e87565b5b9060005260206000200160009054906101000a900473ffffffffffffffffffffffffffffffffffffffff1673ffffffffffffffffffffffffffffffffffffffff1673ffffffffffffffffffffffffffffffffffffffff16815260200190815260200160002060000160009054906101000a900473ffffffffffffffffffffffffffffffffffffffff1642604051610edd92919061252e565b60405180910390a1505b8080610ef290611ef2565b9150506109b2565b50565b60108181548110610f0d57600080fd5b906000526020600020016000915054906101000a900473ffffffffffffffffffffffffffffffffffffffff1681565b600360189054906101000a900467ffffffffffffffff1667ffffffffffffffff16600a5442610f6b9190612357565b11610fab576040517f08c379a0000000000000000000000000000000000000000000000000000000008152600401610fa2906125a3565b60405180910390fd5b600080600460009054906101000a900473ffffffffffffffffffffffffffffffffffffffff1673ffffffffffffffffffffffffffffffffffffffff1663d8a4676f600e546040518263ffffffff1660e01b815260040161100b9190611b33565b600060405180830381865afa158015611028573d6000803e3d6000fd5b505050506040513d6000823e3d601f19601f8201168201806040525081019061105191906126a0565b9150915081611095576040517f08c379a000000000000000000000000000000000000000000000000000000000815260040161108c90612748565b60405180910390fd5b60008151426110a49190612797565b905060006010805490508383815181106110c1576110c0611e87565b5b60200260200101516110d39190612797565b90506000600f6000601084815481106110ef576110ee611e87565b5b9060005260206000200160009054906101000a900473ffffffffffffffffffffffffffffffffffffffff1673ffffffffffffffffffffffffffffffffffffffff1673ffffffffffffffffffffffffffffffffffffffff16815260200190815260200160002060000160009054906101000a900473ffffffffffffffffffffffffffffffffffffffff1690506000600560009054906101000a900473ffffffffffffffffffffffffffffffffffffffff1673ffffffffffffffffffffffffffffffffffffffff1663a4c3050a6007546040518263ffffffff1660e01b81526004016111d99190611b33565b602060405180830381865afa1580156111f6573d6000803e3d6000fd5b505050506040513d601f19601f8201168201806040525081019061121a91906127c8565b90506000600a60098361122d91906127f5565b611237919061284f565b905060008373ffffffffffffffffffffffffffffffffffffffff168260405161125f90612428565b60006040518083038185875af1925050503d806000811461129c576040519150601f19603f3d011682016040523d82523d6000602084013e6112a1565b606091505b50509050806112e5576040517f08c379a00000000000000000000000000000000000000000000000000000000081526004016112dc906128cc565b60405180910390fd5b7facb1c6bbc8309d4395ac4513e93d0f98a91c1914159bc434bf46f03923ce5a53848342604051611318939291906128ec565b60405180910390a15050505050505050565b600c60009054906101000a900473ffffffffffffffffffffffffffffffffffffffff1681565b600360009054906101000a900467ffffffffffffffff1667ffffffffffffffff166008544261137f9190612357565b116113bf576040517f08c379a00000000000000000000000000000000000000000000000000000000081526004016113b6906123d7565b60405180910390fd5b4260088190555060005b6010805490508160ff16101561168757600f600060108360ff16815481106113f4576113f3611e87565b5b9060005260206000200160009054906101000a900473ffffffffffffffffffffffffffffffffffffffff1673ffffffffffffffffffffffffffffffffffffffff1673ffffffffffffffffffffffffffffffffffffffff16815260200190815260200160002060020160019054906101000a900460ff161561152c57600f600060108360ff168154811061148a57611489611e87565b5b9060005260206000200160009054906101000a900473ffffffffffffffffffffffffffffffffffffffff1673ffffffffffffffffffffffffffffffffffffffff1673ffffffffffffffffffffffffffffffffffffffff168152602001908152602001600020600201600381819054906101000a900460000b8092919061150f90612923565b91906101000a81548160ff021916908360000b60ff160217905550505b60008054906101000a900460000b60000b600f600060108460ff168154811061155857611557611e87565b5b9060005260206000200160009054906101000a900473ffffffffffffffffffffffffffffffffffffffff1673ffffffffffffffffffffffffffffffffffffffff1673ffffffffffffffffffffffffffffffffffffffff16815260200190815260200160002060020160039054906101000a900460000b60000b1315611674576000600f600060108460ff16815481106115f4576115f3611e87565b5b9060005260206000200160009054906101000a900473ffffffffffffffffffffffffffffffffffffffff1673ffffffffffffffffffffffffffffffffffffffff1673ffffffffffffffffffffffffffffffffffffffff16815260200190815260200160002060020160016101000a81548160ff0219169083151502179055505b808061167f90611ef2565b9150506113c9565b507fd5a689c847ea8c5e0d3431889f2d9262f839825775f1ac53541cba01d4b6780e426040516116b79190611b33565b60405180910390a1565b600b5481565b336000805b6010805490508160ff161015611769578273ffffffffffffffffffffffffffffffffffffffff1660108260ff168154811061170a57611709611e87565b5b9060005260206000200160009054906101000a900473ffffffffffffffffffffffffffffffffffffffff1673ffffffffffffffffffffffffffffffffffffffff16141561175657600191505b808061176190611ef2565b9150506116cc565b50806117aa576040517f08c379a00000000000000000000000000000000000000000000000000000000081526004016117a190612999565b60405180910390fd5b6000600f60003373ffffffffffffffffffffffffffffffffffffffff1673ffffffffffffffffffffffffffffffffffffffff16815260200190815260200160002060020160036101000a81548160ff021916908360000b60ff1602179055505050565b6000816000805b6010805490508160ff1610156118b1578273ffffffffffffffffffffffffffffffffffffffff1660108260ff168154811061185257611851611e87565b5b9060005260206000200160009054906101000a900473ffffffffffffffffffffffffffffffffffffffff1673ffffffffffffffffffffffffffffffffffffffff16141561189e57600191505b80806118a990611ef2565b915050611814565b50806118f2576040517f08c379a00000000000000000000000000000000000000000000000000000000081526004016118e990612999565b60405180910390fd5b600f60008573ffffffffffffffffffffffffffffffffffffffff1673ffffffffffffffffffffffffffffffffffffffff16815260200190815260200160002060020160019054906101000a900460ff161561199e57600f60008573ffffffffffffffffffffffffffffffffffffffff1673ffffffffffffffffffffffffffffffffffffffff16815260200190815260200160002060020160039054906101000a900460000b92506119c2565b7fffffffffffffffffffffffffffffffffffffffffffffffffffffffffffffffff92505b5050919050565b60025481565b60008054906101000a900460000b81565b60015481565b6000600c60009054906101000a900473ffffffffffffffffffffffffffffffffffffffff16905090565b600360089054906101000a900467ffffffffffffffff1667ffffffffffffffff16600d5442611a3f9190612357565b11611a7f576040517f08c379a0000000000000000000000000000000000000000000000000000000008152600401611a76906125a3565b60405180910390fd5b600460009054906101000a900473ffffffffffffffffffffffffffffffffffffffff1673ffffffffffffffffffffffffffffffffffffffff1663e0c862896040518163ffffffff1660e01b81526004016020604051808303816000875af1158015611aee573d6000803e3d6000fd5b505050506040513d601f19601f82011682018060405250810190611b1291906127c8565b600e81905550565b6000819050919050565b611b2d81611b1a565b82525050565b6000602082019050611b486000830184611b24565b92915050565b6000604051905090565b600080fd5b600080fd5b600073ffffffffffffffffffffffffffffffffffffffff82169050919050565b6000611b8d82611b62565b9050919050565b611b9d81611b82565b8114611ba857600080fd5b50565b600081359050611bba81611b94565b92915050565b600080fd5b600080fd5b6000601f19601f8301169050919050565b7f4e487b7100000000000000000000000000000000000000000000000000000000600052604160045260246000fd5b611c1382611bca565b810181811067ffffffffffffffff82111715611c3257611c31611bdb565b5b80604052505050565b6000611c45611b4e565b9050611c518282611c0a565b919050565b600067ffffffffffffffff821115611c7157611c70611bdb565b5b611c7a82611bca565b9050602081019050919050565b82818337600083830152505050565b6000611ca9611ca484611c56565b611c3b565b905082815260208101848484011115611cc557611cc4611bc5565b5b611cd0848285611c87565b509392505050565b600082601f830112611ced57611cec611bc0565b5b8135611cfd848260208601611c96565b91505092915050565b60008060408385031215611d1d57611d1c611b58565b5b6000611d2b85828601611bab565b925050602083013567ffffffffffffffff811115611d4c57611d4b611b5d565b5b611d5885828601611cd8565b9150509250929050565b611d6b81611b1a565b8114611d7657600080fd5b50565b600081359050611d8881611d62565b92915050565b600060208284031215611da457611da3611b58565b5b6000611db284828501611d79565b91505092915050565b6000611dc682611b62565b9050919050565b611dd681611dbb565b82525050565b6000602082019050611df16000830184611dcd565b92915050565b611e0081611dbb565b8114611e0b57600080fd5b50565b600081359050611e1d81611df7565b92915050565b600060208284031215611e3957611e38611b58565b5b6000611e4784828501611e0e565b91505092915050565b60008160000b9050919050565b611e6681611e50565b82525050565b6000602082019050611e816000830184611e5d565b92915050565b7f4e487b7100000000000000000000000000000000000000000000000000000000600052603260045260246000fd5b7f4e487b7100000000000000000000000000000000000000000000000000000000600052601160045260246000fd5b600060ff82169050919050565b6000611efd82611ee5565b915060ff821415611f1157611f10611eb6565b5b600182019050919050565b600082825260208201905092915050565b7f416c726561647920726567697374657265642100000000000000000000000000600082015250565b6000611f63601383611f1c565b9150611f6e82611f2d565b602082019050919050565b60006020820190508181036000830152611f9281611f56565b9050919050565b7f4b696e20416464726573732063616e6e6f74206265206120736d61727420636f60008201527f6e74726163742100000000000000000000000000000000000000000000000000602082015250565b6000611ff5602783611f1c565b915061200082611f99565b604082019050919050565b6000602082019050818103600083015261202481611fe8565b9050919050565b7f4d696e696d756d20526567697374726174696f6e20697320302e303031204d4160008201527f5449430000000000000000000000000000000000000000000000000000000000602082015250565b6000612087602383611f1c565b91506120928261202b565b604082019050919050565b600060208201905081810360008301526120b68161207a565b9050919050565b7f43616e6e6f742072656769737465722077697468206d6f7265207468616e203160008201527f204d415449430000000000000000000000000000000000000000000000000000602082015250565b6000612119602683611f1c565b9150612124826120bd565b604082019050919050565b600060208201905081810360008301526121488161210c565b9050919050565b600081519050919050565b600082825260208201905092915050565b60005b8381101561218957808201518184015260208101905061216e565b83811115612198576000848401525b50505050565b60006121a98261214f565b6121b3818561215a565b93506121c381856020860161216b565b6121cc81611bca565b840191505092915050565b60006040820190506121ec6000830185611dcd565b81810360208301526121fe818461219e565b90509392505050565b60008115159050919050565b61221c81612207565b811461222757600080fd5b50565b60008151905061223981612213565b92915050565b60006020828403121561225557612254611b58565b5b60006122638482850161222a565b91505092915050565b7f4e6f7420612076616c6964207369676e61747572652100000000000000000000600082015250565b60006122a2601683611f1c565b91506122ad8261226c565b602082019050919050565b600060208201905081810360008301526122d181612295565b9050919050565b60006122e382611b1a565b91506122ee83611b1a565b9250827fffffffffffffffffffffffffffffffffffffffffffffffffffffffffffffffff0382111561232357612322611eb6565b5b828201905092915050565b60006040820190506123436000830185611dcd565b6123506020830184611b24565b9392505050565b600061236282611b1a565b915061236d83611b1a565b9250828210156123805761237f611eb6565b5b828203905092915050565b7f4e6f7420757020746f203620686f757273210000000000000000000000000000600082015250565b60006123c1601283611f1c565b91506123cc8261238b565b602082019050919050565b600060208201905081810360008301526123f0816123b4565b9050919050565b600081905092915050565b50565b60006124126000836123f7565b915061241d82612402565b600082019050919050565b600061243382612405565b9150819050919050565b7f4661696c656420746f2073656e6420496e6865726974616e636520746f206b6960008201527f6e2e000000000000000000000000000000000000000000000000000000000000602082015250565b6000612499602283611f1c565b91506124a48261243d565b604082019050919050565b600060208201905081810360008301526124c88161248c565b9050919050565b6000819050919050565b60006124f46124ef6124ea84611b62565b6124cf565b611b62565b9050919050565b6000612506826124d9565b9050919050565b6000612518826124fb565b9050919050565b6125288161250d565b82525050565b6000604082019050612543600083018561251f565b6125506020830184611b24565b9392505050565b7f4e6f7420757020746f2061204461792100000000000000000000000000000000600082015250565b600061258d601083611f1c565b915061259882612557565b602082019050919050565b600060208201905081810360008301526125bc81612580565b9050919050565b600067ffffffffffffffff8211156125de576125dd611bdb565b5b602082029050602081019050919050565b600080fd5b60008151905061260381611d62565b92915050565b600061261c612617846125c3565b611c3b565b9050808382526020820190506020840283018581111561263f5761263e6125ef565b5b835b81811015612668578061265488826125f4565b845260208401935050602081019050612641565b5050509392505050565b600082601f83011261268757612686611bc0565b5b8151612697848260208601612609565b91505092915050565b600080604083850312156126b7576126b6611b58565b5b60006126c58582860161222a565b925050602083015167ffffffffffffffff8111156126e6576126e5611b5d565b5b6126f285828601612672565b9150509250929050565b7f52616e646f6d20576f726473206e6f7420726563656976656421000000000000600082015250565b6000612732601a83611f1c565b915061273d826126fc565b602082019050919050565b6000602082019050818103600083015261276181612725565b9050919050565b7f4e487b7100000000000000000000000000000000000000000000000000000000600052601260045260246000fd5b60006127a282611b1a565b91506127ad83611b1a565b9250826127bd576127bc612768565b5b828206905092915050565b6000602082840312156127de576127dd611b58565b5b60006127ec848285016125f4565b91505092915050565b600061280082611b1a565b915061280b83611b1a565b9250817fffffffffffffffffffffffffffffffffffffffffffffffffffffffffffffffff048311821515161561284457612843611eb6565b5b828202905092915050565b600061285a82611b1a565b915061286583611b1a565b92508261287557612874612768565b5b828204905092915050565b7f4661696c656420746f20626c657373206b696e2e000000000000000000000000600082015250565b60006128b6601483611f1c565b91506128c182612880565b602082019050919050565b600060208201905081810360008301526128e5816128a9565b9050919050565b60006060820190506129016000830186611dcd565b61290e6020830185611b24565b61291b6040830184611b24565b949350505050565b600061292e82611e50565b9150607f82141561294257612941611eb6565b5b600182019050919050565b7f55736572206973206e6f74207265676973746572656421000000000000000000600082015250565b6000612983601783611f1c565b915061298e8261294d565b602082019050919050565b600060208201905081810360008301526129b281612976565b905091905056fea26469706673582212200e539edff6002288a92f951d48ae89d5c69ba9cc64e735b2b2f06b6ca98b779264736f6c634300080a003360a06040527f4b09e658ed251bcafeebbc69400383d49f344ace09b9576fe248bb02c003fe9f60001b600655621e8480600760006101000a81548163ffffffff021916908363ffffffff1602179055506003600760046101000a81548161ffff021916908361ffff1602179055506005600760066101000a81548163ffffffff021916908363ffffffff16021790555060006007600a6101000a81548160ff021916908315150217905550348015620000b757600080fd5b5060405162001899380380620018998339818101604052810190620000dd919062000427565b33806000737a1bac17ccc5b313516c5e16fb24f7659aa5ebed8073ffffffffffffffffffffffffffffffffffffffff1660808173ffffffffffffffffffffffffffffffffffffffff168152505050600073ffffffffffffffffffffffffffffffffffffffff168273ffffffffffffffffffffffffffffffffffffffff1614156200019e576040517f08c379a00000000000000000000000000000000000000000000000000000000081526004016200019590620004ba565b60405180910390fd5b816000806101000a81548173ffffffffffffffffffffffffffffffffffffffff021916908373ffffffffffffffffffffffffffffffffffffffff160217905550600073ffffffffffffffffffffffffffffffffffffffff168173ffffffffffffffffffffffffffffffffffffffff161462000225576200022481620002ad60201b60201c565b5b505050737a1bac17ccc5b313516c5e16fb24f7659aa5ebed600360006101000a81548173ffffffffffffffffffffffffffffffffffffffff021916908373ffffffffffffffffffffffffffffffffffffffff16021790555080600360146101000a81548167ffffffffffffffff021916908367ffffffffffffffff160217905550506200054e565b3373ffffffffffffffffffffffffffffffffffffffff168173ffffffffffffffffffffffffffffffffffffffff1614156200031f576040517f08c379a000000000000000000000000000000000000000000000000000000000815260040162000316906200052c565b60405180910390fd5b80600160006101000a81548173ffffffffffffffffffffffffffffffffffffffff021916908373ffffffffffffffffffffffffffffffffffffffff1602179055508073ffffffffffffffffffffffffffffffffffffffff1660008054906101000a900473ffffffffffffffffffffffffffffffffffffffff1673ffffffffffffffffffffffffffffffffffffffff167fed8889f560326eb138920d842192f0eb3dd22b4f139c87a2c57538e05bae127860405160405180910390a350565b600080fd5b600067ffffffffffffffff82169050919050565b6200040181620003e2565b81146200040d57600080fd5b50565b6000815190506200042181620003f6565b92915050565b60006020828403121562000440576200043f620003dd565b5b6000620004508482850162000410565b91505092915050565b600082825260208201905092915050565b7f43616e6e6f7420736574206f776e657220746f207a65726f0000000000000000600082015250565b6000620004a260188362000459565b9150620004af826200046a565b602082019050919050565b60006020820190508181036000830152620004d58162000493565b9050919050565b7f43616e6e6f74207472616e7366657220746f2073656c66000000000000000000600082015250565b60006200051460178362000459565b91506200052182620004dc565b602082019050919050565b60006020820190508181036000830152620005478162000505565b9050919050565b60805161132862000571600039600081816101c8015261021c01526113286000f3fe608060405234801561001057600080fd5b50600436106100935760003560e01c80638da5cb5b116100665780638da5cb5b1461011f578063d8a4676f1461013d578063e0c862891461016e578063f2fde38b1461018c578063fc2a88c3146101a857610093565b80631fe543e31461009857806379ba5097146100b457806381d12c58146100be5780638796ba8c146100ef575b600080fd5b6100b260048036038101906100ad9190610d08565b6101c6565b005b6100bc610286565b005b6100d860048036038101906100d39190610d64565b61041b565b6040516100e6929190610dac565b60405180910390f35b61010960048036038101906101049190610d64565b610459565b6040516101169190610de4565b60405180910390f35b61012761047d565b6040516101349190610e40565b60405180910390f35b61015760048036038101906101529190610d64565b6104a6565b604051610165929190610f19565b60405180910390f35b6101766105d1565b6040516101839190610de4565b60405180910390f35b6101a660048036038101906101a19190610f75565b61082a565b005b6101b061083e565b6040516101bd9190610de4565b60405180910390f35b7f000000000000000000000000000000000000000000000000000000000000000073ffffffffffffffffffffffffffffffffffffffff163373ffffffffffffffffffffffffffffffffffffffff161461027857337f00000000000000000000000000000000000000000000000000000000000000006040517f1cf993f400000000000000000000000000000000000000000000000000000000815260040161026f929190610fa2565b60405180910390fd5b6102828282610844565b5050565b600160009054906101000a900473ffffffffffffffffffffffffffffffffffffffff1673ffffffffffffffffffffffffffffffffffffffff163373ffffffffffffffffffffffffffffffffffffffff1614610316576040517f08c379a000000000000000000000000000000000000000000000000000000000815260040161030d90611028565b60405180910390fd5b60008060009054906101000a900473ffffffffffffffffffffffffffffffffffffffff169050336000806101000a81548173ffffffffffffffffffffffffffffffffffffffff021916908373ffffffffffffffffffffffffffffffffffffffff1602179055506000600160006101000a81548173ffffffffffffffffffffffffffffffffffffffff021916908373ffffffffffffffffffffffffffffffffffffffff1602179055503373ffffffffffffffffffffffffffffffffffffffff168173ffffffffffffffffffffffffffffffffffffffff167f8be0079c531659141344cd1fd0a4f28419497f9722a3daafe3b4186f6b6457e060405160405180910390a350565b60026020528060005260406000206000915090508060000160009054906101000a900460ff16908060000160019054906101000a900460ff16905082565b6004818154811061046957600080fd5b906000526020600020016000915090505481565b60008060009054906101000a900473ffffffffffffffffffffffffffffffffffffffff16905090565b600060606002600084815260200190815260200160002060000160019054906101000a900460ff1661050d576040517f08c379a000000000000000000000000000000000000000000000000000000000815260040161050490611094565b60405180910390fd5b6000600260008581526020019081526020016000206040518060600160405290816000820160009054906101000a900460ff161515151581526020016000820160019054906101000a900460ff16151515158152602001600182018054806020026020016040519081016040528092919081815260200182805480156105b257602002820191906000526020600020905b81548152602001906001019080831161059e575b5050505050815250509050806000015181604001519250925050915091565b60006105db61093e565b600360009054906101000a900473ffffffffffffffffffffffffffffffffffffffff1673ffffffffffffffffffffffffffffffffffffffff16635d3b1d30600654600360149054906101000a900467ffffffffffffffff16600760049054906101000a900461ffff16600760009054906101000a900463ffffffff16600760069054906101000a900463ffffffff166040518663ffffffff1660e01b815260040161068a95949392919061112c565b6020604051808303816000875af11580156106a9573d6000803e3d6000fd5b505050506040513d601f19601f820116820180604052508101906106cd9190611194565b90506040518060600160405280600015158152602001600115158152602001600067ffffffffffffffff81111561070757610706610bc5565b5b6040519080825280602002602001820160405280156107355781602001602082028036833780820191505090505b508152506002600083815260200190815260200160002060008201518160000160006101000a81548160ff02191690831515021790555060208201518160000160016101000a81548160ff02191690831515021790555060408201518160010190805190602001906107a8929190610afb565b509050506004819080600181540180825580915050600190039060005260206000200160009091909190915055806005819055507fcc58b13ad3eab50626c6a6300b1d139cd6ebb1688a7cced9461c2f7e762665ee81600760069054906101000a900463ffffffff1660405161081f9291906111c1565b60405180910390a190565b61083261093e565b61083b816109ce565b50565b60055481565b6002600083815260200190815260200160002060000160019054906101000a900460ff166108a7576040517f08c379a000000000000000000000000000000000000000000000000000000000815260040161089e90611094565b60405180910390fd5b60016002600084815260200190815260200160002060000160006101000a81548160ff02191690831515021790555080600260008481526020019081526020016000206001019080519060200190610900929190610afb565b507ffe2e2d779dba245964d4e3ef9b994be63856fd568bf7d3ca9e224755cb1bd54d82826040516109329291906111ea565b60405180910390a15050565b60008054906101000a900473ffffffffffffffffffffffffffffffffffffffff1673ffffffffffffffffffffffffffffffffffffffff163373ffffffffffffffffffffffffffffffffffffffff16146109cc576040517f08c379a00000000000000000000000000000000000000000000000000000000081526004016109c390611266565b60405180910390fd5b565b3373ffffffffffffffffffffffffffffffffffffffff168173ffffffffffffffffffffffffffffffffffffffff161415610a3d576040517f08c379a0000000000000000000000000000000000000000000000000000000008152600401610a34906112d2565b60405180910390fd5b80600160006101000a81548173ffffffffffffffffffffffffffffffffffffffff021916908373ffffffffffffffffffffffffffffffffffffffff1602179055508073ffffffffffffffffffffffffffffffffffffffff1660008054906101000a900473ffffffffffffffffffffffffffffffffffffffff1673ffffffffffffffffffffffffffffffffffffffff167fed8889f560326eb138920d842192f0eb3dd22b4f139c87a2c57538e05bae127860405160405180910390a350565b828054828255906000526020600020908101928215610b37579160200282015b82811115610b36578251825591602001919060010190610b1b565b5b509050610b449190610b48565b5090565b5b80821115610b61576000816000905550600101610b49565b5090565b6000604051905090565b600080fd5b600080fd5b6000819050919050565b610b8c81610b79565b8114610b9757600080fd5b50565b600081359050610ba981610b83565b92915050565b600080fd5b6000601f19601f8301169050919050565b7f4e487b7100000000000000000000000000000000000000000000000000000000600052604160045260246000fd5b610bfd82610bb4565b810181811067ffffffffffffffff82111715610c1c57610c1b610bc5565b5b80604052505050565b6000610c2f610b65565b9050610c3b8282610bf4565b919050565b600067ffffffffffffffff821115610c5b57610c5a610bc5565b5b602082029050602081019050919050565b600080fd5b6000610c84610c7f84610c40565b610c25565b90508083825260208201905060208402830185811115610ca757610ca6610c6c565b5b835b81811015610cd05780610cbc8882610b9a565b845260208401935050602081019050610ca9565b5050509392505050565b600082601f830112610cef57610cee610baf565b5b8135610cff848260208601610c71565b91505092915050565b60008060408385031215610d1f57610d1e610b6f565b5b6000610d2d85828601610b9a565b925050602083013567ffffffffffffffff811115610d4e57610d4d610b74565b5b610d5a85828601610cda565b9150509250929050565b600060208284031215610d7a57610d79610b6f565b5b6000610d8884828501610b9a565b91505092915050565b60008115159050919050565b610da681610d91565b82525050565b6000604082019050610dc16000830185610d9d565b610dce6020830184610d9d565b9392505050565b610dde81610b79565b82525050565b6000602082019050610df96000830184610dd5565b92915050565b600073ffffffffffffffffffffffffffffffffffffffff82169050919050565b6000610e2a82610dff565b9050919050565b610e3a81610e1f565b82525050565b6000602082019050610e556000830184610e31565b92915050565b600081519050919050565b600082825260208201905092915050565b6000819050602082019050919050565b610e9081610b79565b82525050565b6000610ea28383610e87565b60208301905092915050565b6000602082019050919050565b6000610ec682610e5b565b610ed08185610e66565b9350610edb83610e77565b8060005b83811015610f0c578151610ef38882610e96565b9750610efe83610eae565b925050600181019050610edf565b5085935050505092915050565b6000604082019050610f2e6000830185610d9d565b8181036020830152610f408184610ebb565b90509392505050565b610f5281610e1f565b8114610f5d57600080fd5b50565b600081359050610f6f81610f49565b92915050565b600060208284031215610f8b57610f8a610b6f565b5b6000610f9984828501610f60565b91505092915050565b6000604082019050610fb76000830185610e31565b610fc46020830184610e31565b9392505050565b600082825260208201905092915050565b7f4d7573742062652070726f706f736564206f776e657200000000000000000000600082015250565b6000611012601683610fcb565b915061101d82610fdc565b602082019050919050565b6000602082019050818103600083015261104181611005565b9050919050565b7f72657175657374206e6f7420666f756e64000000000000000000000000000000600082015250565b600061107e601183610fcb565b915061108982611048565b602082019050919050565b600060208201905081810360008301526110ad81611071565b9050919050565b6000819050919050565b6110c7816110b4565b82525050565b600067ffffffffffffffff82169050919050565b6110ea816110cd565b82525050565b600061ffff82169050919050565b611107816110f0565b82525050565b600063ffffffff82169050919050565b6111268161110d565b82525050565b600060a08201905061114160008301886110be565b61114e60208301876110e1565b61115b60408301866110fe565b611168606083018561111d565b611175608083018461111d565b9695505050505050565b60008151905061118e81610b83565b92915050565b6000602082840312156111aa576111a9610b6f565b5b60006111b88482850161117f565b91505092915050565b60006040820190506111d66000830185610dd5565b6111e3602083018461111d565b9392505050565b60006040820190506111ff6000830185610dd5565b81810360208301526112118184610ebb565b90509392505050565b7f4f6e6c792063616c6c61626c65206279206f776e657200000000000000000000600082015250565b6000611250601683610fcb565b915061125b8261121a565b602082019050919050565b6000602082019050818103600083015261127f81611243565b9050919050565b7f43616e6e6f74207472616e7366657220746f2073656c66000000000000000000600082015250565b60006112bc601783610fcb565b91506112c782611286565b602082019050919050565b600060208201905081810360008301526112eb816112af565b905091905056fea2646970667358221220e150de4c92e4a9dba9604c1694f71c0e2205c1a38651f6af19d4e0d1eab92a0664736f6c634300080a0033608060405260405180610100016040528060ce8152602001610c2560ce913960009080519060200190610033929190610046565b5034801561004057600080fd5b5061014a565b82805461005290610118565b90600052602060002090601f01602090048101928261007457600085556100bb565b82601f1061008d57805160ff19168380011785556100bb565b828001600101855582156100bb579182015b828111156100ba57825182559160200191906001019061009f565b5b5090506100c891906100cc565b5090565b5b808211156100e55760008160009055506001016100cd565b5090565b7f4e487b7100000000000000000000000000000000000000000000000000000000600052602260045260246000fd5b6000600282049050600182168061013057607f821691505b60208210811415610144576101436100e9565b5b50919050565b610acc806101596000396000f3fe608060405234801561001057600080fd5b50600436106100575760003560e01c80634a41d1ac1461005c57806397aba7f91461008c578063a7bb5803146100bc578063b446f3b2146100ee578063fa5408011461011e575b600080fd5b61007660048036038101906100719190610524565b61014e565b604051610083919061059b565b60405180910390f35b6100a660048036038101906100a191906105ec565b610235565b6040516100b39190610657565b60405180910390f35b6100d660048036038101906100d19190610672565b6102a4565b6040516100e5939291906106e6565b60405180910390f35b610108600480360381019061010391906107be565b61030c565b6040516101159190610807565b60405180910390f35b61013860048036038101906101339190610822565b61033c565b6040516101459190610807565b60405180910390f35b6000806101e4600080546101619061087e565b80601f016020809104026020016040519081016040528092919081815260200182805461018d9061087e565b80156101da5780601f106101af576101008083540402835291602001916101da565b820191906000526020600020905b8154815290600101906020018083116101bd57829003601f168201915b505050505061030c565b905060006101f18261033c565b90508473ffffffffffffffffffffffffffffffffffffffff166102148286610235565b73ffffffffffffffffffffffffffffffffffffffff16149250505092915050565b600080600080610244856102a4565b9250925092506001868285856040516000815260200160405260405161026d94939291906108b0565b6020604051602081039080840390855afa15801561028f573d6000803e3d6000fd5b50505060206040510351935050505092915050565b600080600060418451146102ed576040517f08c379a00000000000000000000000000000000000000000000000000000000081526004016102e490610952565b60405180910390fd5b6020840151925060408401519150606084015160001a90509193909250565b60008160405160200161031f91906109ec565b604051602081830303815290604052805190602001209050919050565b60008160405160200161034f9190610a70565b604051602081830303815290604052805190602001209050919050565b6000604051905090565b600080fd5b600080fd5b600073ffffffffffffffffffffffffffffffffffffffff82169050919050565b60006103ab82610380565b9050919050565b6103bb816103a0565b81146103c657600080fd5b50565b6000813590506103d8816103b2565b92915050565b600080fd5b600080fd5b6000601f19601f8301169050919050565b7f4e487b7100000000000000000000000000000000000000000000000000000000600052604160045260246000fd5b610431826103e8565b810181811067ffffffffffffffff821117156104505761044f6103f9565b5b80604052505050565b600061046361036c565b905061046f8282610428565b919050565b600067ffffffffffffffff82111561048f5761048e6103f9565b5b610498826103e8565b9050602081019050919050565b82818337600083830152505050565b60006104c76104c284610474565b610459565b9050828152602081018484840111156104e3576104e26103e3565b5b6104ee8482856104a5565b509392505050565b600082601f83011261050b5761050a6103de565b5b813561051b8482602086016104b4565b91505092915050565b6000806040838503121561053b5761053a610376565b5b6000610549858286016103c9565b925050602083013567ffffffffffffffff81111561056a5761056961037b565b5b610576858286016104f6565b9150509250929050565b60008115159050919050565b61059581610580565b82525050565b60006020820190506105b0600083018461058c565b92915050565b6000819050919050565b6105c9816105b6565b81146105d457600080fd5b50565b6000813590506105e6816105c0565b92915050565b6000806040838503121561060357610602610376565b5b6000610611858286016105d7565b925050602083013567ffffffffffffffff8111156106325761063161037b565b5b61063e858286016104f6565b9150509250929050565b610651816103a0565b82525050565b600060208201905061066c6000830184610648565b92915050565b60006020828403121561068857610687610376565b5b600082013567ffffffffffffffff8111156106a6576106a561037b565b5b6106b2848285016104f6565b91505092915050565b6106c4816105b6565b82525050565b600060ff82169050919050565b6106e0816106ca565b82525050565b60006060820190506106fb60008301866106bb565b61070860208301856106bb565b61071560408301846106d7565b949350505050565b600067ffffffffffffffff821115610738576107376103f9565b5b610741826103e8565b9050602081019050919050565b600061076161075c8461071d565b610459565b90508281526020810184848401111561077d5761077c6103e3565b5b6107888482856104a5565b509392505050565b600082601f8301126107a5576107a46103de565b5b81356107b584826020860161074e565b91505092915050565b6000602082840312156107d4576107d3610376565b5b600082013567ffffffffffffffff8111156107f2576107f161037b565b5b6107fe84828501610790565b91505092915050565b600060208201905061081c60008301846106bb565b92915050565b60006020828403121561083857610837610376565b5b6000610846848285016105d7565b91505092915050565b7f4e487b7100000000000000000000000000000000000000000000000000000000600052602260045260246000fd5b6000600282049050600182168061089657607f821691505b602082108114156108aa576108a961084f565b5b50919050565b60006080820190506108c560008301876106bb565b6108d260208301866106d7565b6108df60408301856106bb565b6108ec60608301846106bb565b95945050505050565b600082825260208201905092915050565b7f696e76616c6964207369676e6174757265206c656e6774680000000000000000600082015250565b600061093c6018836108f5565b915061094782610906565b602082019050919050565b6000602082019050818103600083015261096b8161092f565b9050919050565b600081519050919050565b600081905092915050565b60005b838110156109a657808201518184015260208101905061098b565b838111156109b5576000848401525b50505050565b60006109c682610972565b6109d0818561097d565b93506109e0818560208601610988565b80840191505092915050565b60006109f882846109bb565b915081905092915050565b7f19457468657265756d205369676e6564204d6573736167653a0a333200000000600082015250565b6000610a39601c8361097d565b9150610a4482610a03565b601c82019050919050565b6000819050919050565b610a6a610a65826105b6565b610a4f565b82525050565b6000610a7b82610a2c565b9150610a878284610a59565b6020820191508190509291505056fea2646970667358221220ff879c0df7d35934a8eb173344959d69ef7f3d074bc630c69da0aa0a2dcf3ad664736f6c634300080a0033492068657265627920617574686f72697a65207468697320736d61727420636f6e747261637420746f2068617665206f776e657273686970206f766572206d79206465706f73697465642066756e647320616e64206772616e7420697420617574686f72697a6174696f6e20746f2073656e6420697420746f204f4e4c59206d792070726f7669646564204e657874206f66204b696e2061646472657373206966204920616d20756e61626c6520746f2070726f7669646520612076616c69646174696f6e206f66204c6966652e60806040527389a6ae840b3f8f489418933a220315eea36d11ff6000806101000a81548173ffffffffffffffffffffffffffffffffffffffff021916908373ffffffffffffffffffffffffffffffffffffffff16021790555060008054906101000a900473ffffffffffffffffffffffffffffffffffffffff16600160006101000a81548173ffffffffffffffffffffffffffffffffffffffff021916908373ffffffffffffffffffffffffffffffffffffffff160217905550732a58e9bbb5434fda7ff78051a4b82cb0ef669c17600260006101000a81548173ffffffffffffffffffffffffffffffffffffffff021916908373ffffffffffffffffffffffffffffffffffffffff160217905550600260009054906101000a900473ffffffffffffffffffffffffffffffffffffffff16600360006101000a81548173ffffffffffffffffffffffffffffffffffffffff021916908373ffffffffffffffffffffffffffffffffffffffff160217905550735343b5ba672ae99d627a1c87866b8e53f47db2e6600460006101000a81548173ffffffffffffffffffffffffffffffffffffffff021916908373ffffffffffffffffffffffffffffffffffffffff1602179055503480156101d257600080fd5b50600460009054906101000a900473ffffffffffffffffffffffffffffffffffffffff1673ffffffffffffffffffffffffffffffffffffffff1663026b1d5f6040518163ffffffff1660e01b8152600401602060405180830381865afa158015610240573d6000803e3d6000fd5b505050506040513d601f19601f82011682018060405250810190610264919061030c565b600560006101000a81548173ffffffffffffffffffffffffffffffffffffffff021916908373ffffffffffffffffffffffffffffffffffffffff160217905550610339565b600080fd5b600073ffffffffffffffffffffffffffffffffffffffff82169050919050565b60006102d9826102ae565b9050919050565b6102e9816102ce565b81146102f457600080fd5b50565b600081519050610306816102e0565b92915050565b600060208284031215610322576103216102a9565b5b6000610330848285016102f7565b91505092915050565b6104a9806103486000396000f3fe6080604052600436106100295760003560e01c80635082566a1461002e578063a4c3050a1461004a575b600080fd5b61004860048036038101906100439190610268565b610087565b005b34801561005657600080fd5b50610071600480360381019061006c9190610268565b610178565b60405161007e91906102a4565b60405180910390f35b600360009054906101000a900473ffffffffffffffffffffffffffffffffffffffff1673ffffffffffffffffffffffffffffffffffffffff1663474cf53d82600560009054906101000a900473ffffffffffffffffffffffffffffffffffffffff163360006040518563ffffffff1660e01b815260040161010a93929190610353565b6000604051808303818588803b15801561012357600080fd5b505af1158015610137573d6000803e3d6000fd5b50505050507f217794e6bdf0f51e3c1497aaa311d34599b9d701c794e143cf9afd53a69af5e0334260405161016d92919061038a565b60405180910390a150565b60008082600160009054906101000a900473ffffffffffffffffffffffffffffffffffffffff1673ffffffffffffffffffffffffffffffffffffffff166370a08231336040518263ffffffff1660e01b81526004016101d791906103b3565b602060405180830381865afa1580156101f4573d6000803e3d6000fd5b505050506040513d601f19601f8201168201806040525081019061021891906103e3565b610222919061043f565b905080915050919050565b600080fd5b6000819050919050565b61024581610232565b811461025057600080fd5b50565b6000813590506102628161023c565b92915050565b60006020828403121561027e5761027d61022d565b5b600061028c84828501610253565b91505092915050565b61029e81610232565b82525050565b60006020820190506102b96000830184610295565b92915050565b600073ffffffffffffffffffffffffffffffffffffffff82169050919050565b60006102ea826102bf565b9050919050565b6102fa816102df565b82525050565b6000819050919050565b600061ffff82169050919050565b6000819050919050565b600061033d61033861033384610300565b610318565b61030a565b9050919050565b61034d81610322565b82525050565b600060608201905061036860008301866102f1565b61037560208301856102f1565b6103826040830184610344565b949350505050565b600060408201905061039f60008301856102f1565b6103ac6020830184610295565b9392505050565b60006020820190506103c860008301846102f1565b92915050565b6000815190506103dd8161023c565b92915050565b6000602082840312156103f9576103f861022d565b5b6000610407848285016103ce565b91505092915050565b7f4e487b7100000000000000000000000000000000000000000000000000000000600052601160045260246000fd5b600061044a82610232565b915061045583610232565b92508282101561046857610467610410565b5b82820390509291505056fea26469706673582212200f057b4d6fe0ec2393285efa2538a89efd98a1b1ab8cf85e655cdc203abd775164736f6c634300080a0033",
  "linkReferences": {},
  "deployedLinkReferences": {}
}