{
  "_format": "hh-sol-artifact-1",
  "contractName": "AlwaysAlive",
  "sourceName": "contracts/AlwaysAlive.sol",
  "abi": [
    {
      "inputs": [
        {
          "internalType": "uint64",
          "name": "_subscriptionId",
          "type": "uint64"
        }
      ],
      "stateMutability": "payable",
      "type": "constructor"
    },
    {
      "inputs": [
        {
          "internalType": "address",
          "name": "have",
          "type": "address"
        },
        {
          "internalType": "address",
          "name": "want",
          "type": "address"
        }
      ],
      "name": "OnlyCoordinatorCanFulfill",
      "type": "error"
    },
    {
      "anonymous": false,
      "inputs": [
        {
          "indexed": true,
          "internalType": "address",
          "name": "from",
          "type": "address"
        },
        {
          "indexed": true,
          "internalType": "address",
          "name": "to",
          "type": "address"
        }
      ],
      "name": "OwnershipTransferRequested",
      "type": "event"
    },
    {
      "anonymous": false,
      "inputs": [
        {
          "indexed": true,
          "internalType": "address",
          "name": "from",
          "type": "address"
        },
        {
          "indexed": true,
          "internalType": "address",
          "name": "to",
          "type": "address"
        }
      ],
      "name": "OwnershipTransferred",
      "type": "event"
    },
    {
      "anonymous": false,
      "inputs": [
        {
          "indexed": false,
          "internalType": "uint256",
          "name": "requestId",
          "type": "uint256"
        },
        {
          "indexed": false,
          "internalType": "uint256[]",
          "name": "randomWords",
          "type": "uint256[]"
        }
      ],
      "name": "RequestFulfilled",
      "type": "event"
    },
    {
      "anonymous": false,
      "inputs": [
        {
          "indexed": false,
          "internalType": "uint256",
          "name": "requestId",
          "type": "uint256"
        },
        {
          "indexed": false,
          "internalType": "uint32",
          "name": "numWords",
          "type": "uint32"
        }
      ],
      "name": "RequestSent",
      "type": "event"
    },
    {
      "anonymous": false,
      "inputs": [
        {
          "indexed": false,
          "internalType": "address",
          "name": "kin",
          "type": "address"
        },
        {
          "indexed": false,
          "internalType": "uint256",
          "name": "when",
          "type": "uint256"
        }
      ],
      "name": "blessed",
      "type": "event"
    },
    {
      "anonymous": false,
      "inputs": [
        {
          "indexed": false,
          "internalType": "address",
          "name": "payer",
          "type": "address"
        },
        {
          "indexed": false,
          "internalType": "uint256",
          "name": "amount",
          "type": "uint256"
        }
      ],
      "name": "deposited",
      "type": "event"
    },
    {
      "anonymous": false,
      "inputs": [
        {
          "indexed": false,
          "internalType": "uint256",
          "name": "when",
          "type": "uint256"
        }
      ],
      "name": "incrementedConfirmations",
      "type": "event"
    },
    {
      "anonymous": false,
      "inputs": [
        {
          "indexed": false,
          "internalType": "address",
          "name": "kin",
          "type": "address"
        },
        {
          "indexed": false,
          "internalType": "uint256",
          "name": "when",
          "type": "uint256"
        }
      ],
      "name": "invested",
      "type": "event"
    },
    {
      "anonymous": false,
      "inputs": [
        {
          "indexed": false,
          "internalType": "address",
          "name": "kin",
          "type": "address"
        },
        {
          "indexed": false,
          "internalType": "uint256",
          "name": "when",
          "type": "uint256"
        }
      ],
      "name": "paidDailyProfits",
      "type": "event"
    },
    {
      "anonymous": false,
      "inputs": [
        {
          "indexed": false,
          "internalType": "address",
          "name": "user",
          "type": "address"
        },
        {
          "indexed": false,
          "internalType": "uint256",
          "name": "when",
          "type": "uint256"
        }
      ],
      "name": "registered",
      "type": "event"
    },
    {
      "anonymous": false,
      "inputs": [
        {
          "indexed": false,
          "internalType": "address",
          "name": "user",
          "type": "address"
        },
        {
          "indexed": false,
          "internalType": "uint256",
          "name": "when",
          "type": "uint256"
        }
      ],
      "name": "suppliedMatic",
      "type": "event"
    },
    {
      "anonymous": false,
      "inputs": [
        {
          "indexed": false,
          "internalType": "address",
          "name": "user",
          "type": "address"
        },
        {
          "indexed": false,
          "internalType": "uint256",
          "name": "when",
          "type": "uint256"
        }
      ],
      "name": "withdrawnMatic",
      "type": "event"
    },
    {
      "stateMutability": "payable",
      "type": "fallback"
    },
    {
      "inputs": [],
      "name": "MAX_NUMBER_OF_CONFIRMATIONS",
      "outputs": [
        {
          "internalType": "uint8",
          "name": "",
          "type": "uint8"
        }
      ],
      "stateMutability": "view",
      "type": "function"
    },
    {
      "inputs": [],
      "name": "MIN_AMOUNT",
      "outputs": [
        {
          "internalType": "uint256",
          "name": "",
          "type": "uint256"
        }
      ],
      "stateMutability": "view",
      "type": "function"
    },
    {
      "inputs": [],
      "name": "acceptOwnership",
      "outputs": [],
      "stateMutability": "nonpayable",
      "type": "function"
    },
    {
      "inputs": [],
      "name": "bless",
      "outputs": [],
      "stateMutability": "view",
      "type": "function"
    },
    {
      "inputs": [],
      "name": "deposit",
      "outputs": [],
      "stateMutability": "payable",
      "type": "function"
    },
    {
      "inputs": [
        {
          "internalType": "uint256",
          "name": "amount",
          "type": "uint256"
        }
      ],
      "name": "depositMatic",
      "outputs": [],
      "stateMutability": "nonpayable",
      "type": "function"
    },
    {
      "inputs": [
        {
          "internalType": "address",
          "name": "_user",
          "type": "address"
        }
      ],
      "name": "getCurrentConfirmations",
      "outputs": [
        {
          "internalType": "uint8",
          "name": "",
          "type": "uint8"
        }
      ],
      "stateMutability": "view",
      "type": "function"
    },
    {
      "inputs": [
        {
          "internalType": "uint256",
          "name": "_requestId",
          "type": "uint256"
        }
      ],
      "name": "getRequestStatus",
      "outputs": [
        {
          "internalType": "bool",
          "name": "fulfilled",
          "type": "bool"
        },
        {
          "internalType": "uint256[]",
          "name": "randomWords",
          "type": "uint256[]"
        }
      ],
      "stateMutability": "view",
      "type": "function"
    },
    {
      "inputs": [],
      "name": "incrementConfirmations",
      "outputs": [],
      "stateMutability": "nonpayable",
      "type": "function"
    },
    {
      "inputs": [],
      "name": "inherit",
      "outputs": [],
      "stateMutability": "nonpayable",
      "type": "function"
    },
    {
      "inputs": [],
      "name": "lastInvestedKin",
      "outputs": [
        {
          "internalType": "address",
          "name": "",
          "type": "address"
        }
      ],
      "stateMutability": "view",
      "type": "function"
    },
    {
      "inputs": [],
      "name": "lastRequestId",
      "outputs": [
        {
          "internalType": "uint256",
          "name": "",
          "type": "uint256"
        }
      ],
      "stateMutability": "view",
      "type": "function"
    },
    {
      "inputs": [],
      "name": "owner",
      "outputs": [
        {
          "internalType": "address",
          "name": "",
          "type": "address"
        }
      ],
      "stateMutability": "view",
      "type": "function"
    },
    {
      "inputs": [],
      "name": "poolAddress",
      "outputs": [
        {
          "internalType": "address",
          "name": "",
          "type": "address"
        }
      ],
      "stateMutability": "view",
      "type": "function"
    },
    {
      "inputs": [
        {
          "internalType": "uint256",
          "name": "requestId",
          "type": "uint256"
        },
        {
          "internalType": "uint256[]",
          "name": "randomWords",
          "type": "uint256[]"
        }
      ],
      "name": "rawFulfillRandomWords",
      "outputs": [],
      "stateMutability": "nonpayable",
      "type": "function"
    },
    {
      "inputs": [
        {
          "internalType": "address payable",
          "name": "_kinAddress",
          "type": "address"
        }
      ],
      "name": "register",
      "outputs": [],
      "stateMutability": "payable",
      "type": "function"
    },
    {
      "inputs": [
        {
          "internalType": "uint256",
          "name": "",
          "type": "uint256"
        }
      ],
      "name": "requestIds",
      "outputs": [
        {
          "internalType": "uint256",
          "name": "",
          "type": "uint256"
        }
      ],
      "stateMutability": "view",
      "type": "function"
    },
    {
      "inputs": [],
      "name": "requestRandomWords",
      "outputs": [
        {
          "internalType": "uint256",
          "name": "requestId",
          "type": "uint256"
        }
      ],
      "stateMutability": "nonpayable",
      "type": "function"
    },
    {
      "inputs": [
        {
          "internalType": "uint256",
          "name": "",
          "type": "uint256"
        }
      ],
      "name": "requests",
      "outputs": [
        {
          "internalType": "bool",
          "name": "fulfilled",
          "type": "bool"
        },
        {
          "internalType": "bool",
          "name": "exists",
          "type": "bool"
        }
      ],
      "stateMutability": "view",
      "type": "function"
    },
    {
      "inputs": [
        {
          "internalType": "address",
          "name": "to",
          "type": "address"
        }
      ],
      "name": "transferOwnership",
      "outputs": [],
      "stateMutability": "nonpayable",
      "type": "function"
    },
    {
      "inputs": [
        {
          "internalType": "uint256",
          "name": "",
          "type": "uint256"
        }
      ],
      "name": "users",
      "outputs": [
        {
          "internalType": "address",
          "name": "",
          "type": "address"
        }
      ],
      "stateMutability": "view",
      "type": "function"
    },
    {
      "inputs": [],
      "name": "validateLife",
      "outputs": [],
      "stateMutability": "nonpayable",
      "type": "function"
    },
    {
      "inputs": [
        {
          "internalType": "uint256",
          "name": "amount",
          "type": "uint256"
        },
        {
          "internalType": "address",
          "name": "kin",
          "type": "address"
        }
      ],
      "name": "withdrawMatic",
      "outputs": [],
      "stateMutability": "nonpayable",
      "type": "function"
    },
    {
      "stateMutability": "payable",
      "type": "receive"
    }
  ],
  "bytecode": "0x60a060405273685bf4eab23993e94b4cfb9383599c926b66cf576000806101000a81548173ffffffffffffffffffffffffffffffffffffffff021916908373ffffffffffffffffffffffffffffffffffffffff16021790555060008054906101000a900473ffffffffffffffffffffffffffffffffffffffff16600160006101000a81548173ffffffffffffffffffffffffffffffffffffffff021916908373ffffffffffffffffffffffffffffffffffffffff160217905550732a58e9bbb5434fda7ff78051a4b82cb0ef669c17600260006101000a81548173ffffffffffffffffffffffffffffffffffffffff021916908373ffffffffffffffffffffffffffffffffffffffff160217905550600260009054906101000a900473ffffffffffffffffffffffffffffffffffffffff16600360006101000a81548173ffffffffffffffffffffffffffffffffffffffff021916908373ffffffffffffffffffffffffffffffffffffffff160217905550735343b5ba672ae99d627a1c87866b8e53f47db2e6600460006101000a81548173ffffffffffffffffffffffffffffffffffffffff021916908373ffffffffffffffffffffffffffffffffffffffff160217905550600460009054906101000a900473ffffffffffffffffffffffffffffffffffffffff1673ffffffffffffffffffffffffffffffffffffffff1663026b1d5f6040518163ffffffff1660e01b8152600401602060405180830381865afa15801562000234573d6000803e3d6000fd5b505050506040513d601f19601f820116820180604052508101906200025a91906200077d565b600560006101000a81548173ffffffffffffffffffffffffffffffffffffffff021916908373ffffffffffffffffffffffffffffffffffffffff1602179055507f4b09e658ed251bcafeebbc69400383d49f344ace09b9576fe248bb02c003fe9f60001b600c55621e8480600d60006101000a81548163ffffffff021916908363ffffffff1602179055506003600d60046101000a81548161ffff021916908361ffff1602179055506003600d60066101000a81548163ffffffff021916908363ffffffff1602179055506000600d600a6101000a81548160ff02191690831515021790555066038d7ea4c680006011556005601260006101000a81548160ff021916908360ff160217905550610e10601260016101000a81548161ffff021916908361ffff16021790555062015180601260036101000a81548163ffffffff021916908363ffffffff16021790555062093a80601260076101000a81548167ffffffffffffffff021916908367ffffffffffffffff16021790555060405162003a4938038062003a498339818101604052810190620003fb9190620007f4565b8033806000737a1bac17ccc5b313516c5e16fb24f7659aa5ebed8073ffffffffffffffffffffffffffffffffffffffff1660808173ffffffffffffffffffffffffffffffffffffffff168152505050600073ffffffffffffffffffffffffffffffffffffffff168273ffffffffffffffffffffffffffffffffffffffff1603620004bc576040517f08c379a0000000000000000000000000000000000000000000000000000000008152600401620004b39062000887565b60405180910390fd5b81600660006101000a81548173ffffffffffffffffffffffffffffffffffffffff021916908373ffffffffffffffffffffffffffffffffffffffff160217905550600073ffffffffffffffffffffffffffffffffffffffff168173ffffffffffffffffffffffffffffffffffffffff161462000544576200054381620005e260201b60201c565b5b505050737a1bac17ccc5b313516c5e16fb24f7659aa5ebed600960006101000a81548173ffffffffffffffffffffffffffffffffffffffff021916908373ffffffffffffffffffffffffffffffffffffffff16021790555080600960146101000a81548167ffffffffffffffff021916908367ffffffffffffffff1602179055505042600e8190555042600f8190555042601081905550506200091b565b3373ffffffffffffffffffffffffffffffffffffffff168173ffffffffffffffffffffffffffffffffffffffff160362000653576040517f08c379a00000000000000000000000000000000000000000000000000000000081526004016200064a90620008f9565b60405180910390fd5b80600760006101000a81548173ffffffffffffffffffffffffffffffffffffffff021916908373ffffffffffffffffffffffffffffffffffffffff1602179055508073ffffffffffffffffffffffffffffffffffffffff16600660009054906101000a900473ffffffffffffffffffffffffffffffffffffffff1673ffffffffffffffffffffffffffffffffffffffff167fed8889f560326eb138920d842192f0eb3dd22b4f139c87a2c57538e05bae127860405160405180910390a350565b600080fd5b600073ffffffffffffffffffffffffffffffffffffffff82169050919050565b6000620007458262000718565b9050919050565b620007578162000738565b81146200076357600080fd5b50565b60008151905062000777816200074c565b92915050565b60006020828403121562000796576200079562000713565b5b6000620007a68482850162000766565b91505092915050565b600067ffffffffffffffff82169050919050565b620007ce81620007af565b8114620007da57600080fd5b50565b600081519050620007ee81620007c3565b92915050565b6000602082840312156200080d576200080c62000713565b5b60006200081d84828501620007dd565b91505092915050565b600082825260208201905092915050565b7f43616e6e6f7420736574206f776e657220746f207a65726f0000000000000000600082015250565b60006200086f60188362000826565b91506200087c8262000837565b602082019050919050565b60006020820190508181036000830152620008a28162000860565b9050919050565b7f43616e6e6f74207472616e7366657220746f2073656c66000000000000000000600082015250565b6000620008e160178362000826565b9150620008ee82620008a9565b602082019050919050565b600060208201905081810360008301526200091481620008d2565b9050919050565b60805161310b6200093e6000396000818161058401526105d8015261310b6000f3fe6080604052600436106101445760003560e01c80638796ba8c116100b6578063d8a321141161006f578063d8a3211414610449578063d8a4676f14610474578063ddbcb5fa146104b2578063e0c86289146104dd578063f2fde38b14610508578063fc2a88c31461053157610184565b80638796ba8c1461036c5780638da5cb5b146103a95780639535afc3146103d4578063b0ddccec146103eb578063c20fb04614610402578063d0e30db01461043f57610184565b80634420e486116101085780634420e4861461027e5780635082566a1461029a578063532091b7146102c357806376bf384b146102ee57806379ba50971461031757806381d12c581461032e57610184565b80631755ff21146101bf5780631fe543e3146101ea5780632b445d7814610213578063365b98b21461022a578063401c8a531461026757610184565b36610184577f688e89c1496876b0d792df75671fbe827183660b170bb8983d82511a6a4b7d1b333460405161017a92919061223a565b60405180910390a1005b7f688e89c1496876b0d792df75671fbe827183660b170bb8983d82511a6a4b7d1b33346040516101b592919061223a565b60405180910390a1005b3480156101cb57600080fd5b506101d461055c565b6040516101e19190612263565b60405180910390f35b3480156101f657600080fd5b50610211600480360381019061020c9190612417565b610582565b005b34801561021f57600080fd5b50610228610642565b005b34801561023657600080fd5b50610251600480360381019061024c9190612473565b610b5b565b60405161025e9190612263565b60405180910390f35b34801561027357600080fd5b5061027c610b9a565b005b610298600480360381019061029391906124de565b610c0b565b005b3480156102a657600080fd5b506102c160048036038101906102bc9190612473565b610ffa565b005b3480156102cf57600080fd5b506102d86110eb565b6040516102e59190612263565b60405180910390f35b3480156102fa57600080fd5b5061031560048036038101906103109190612537565b611111565b005b34801561032357600080fd5b5061032c6112c4565b005b34801561033a57600080fd5b5061035560048036038101906103509190612473565b61145b565b604051610363929190612592565b60405180910390f35b34801561037857600080fd5b50610393600480360381019061038e9190612473565b611499565b6040516103a091906125bb565b60405180910390f35b3480156103b557600080fd5b506103be6114bd565b6040516103cb9190612263565b60405180910390f35b3480156103e057600080fd5b506103e96114e7565b005b3480156103f757600080fd5b5061040061184b565b005b34801561040e57600080fd5b50610429600480360381019061042491906125d6565b61198d565b604051610436919061261f565b60405180910390f35b610447611aca565b005b34801561045557600080fd5b5061045e611b05565b60405161046b919061261f565b60405180910390f35b34801561048057600080fd5b5061049b60048036038101906104969190612473565b611b18565b6040516104a99291906126f8565b60405180910390f35b3480156104be57600080fd5b506104c7611c43565b6040516104d491906125bb565b60405180910390f35b3480156104e957600080fd5b506104f2611c49565b6040516104ff91906125bb565b60405180910390f35b34801561051457600080fd5b5061052f600480360381019061052a91906125d6565b611ea2565b005b34801561053d57600080fd5b50610546611eb6565b60405161055391906125bb565b60405180910390f35b600560009054906101000a900473ffffffffffffffffffffffffffffffffffffffff1681565b7f000000000000000000000000000000000000000000000000000000000000000073ffffffffffffffffffffffffffffffffffffffff163373ffffffffffffffffffffffffffffffffffffffff161461063457337f00000000000000000000000000000000000000000000000000000000000000006040517f1cf993f400000000000000000000000000000000000000000000000000000000815260040161062b929190612728565b60405180910390fd5b61063e8282611ebc565b5050565b601260039054906101000a900463ffffffff1663ffffffff16600f54426106699190612780565b116106a9576040517f08c379a00000000000000000000000000000000000000000000000000000000081526004016106a090612811565b60405180910390fd5b60005b6014805490508160ff161015610b5857600015156013600060148460ff16815481106106db576106da612831565b5b9060005260206000200160009054906101000a900473ffffffffffffffffffffffffffffffffffffffff1673ffffffffffffffffffffffffffffffffffffffff1673ffffffffffffffffffffffffffffffffffffffff16815260200190815260200160002060020160019054906101000a900460ff1615151480156107f45750600015156013600060148460ff168154811061077a57610779612831565b5b9060005260206000200160009054906101000a900473ffffffffffffffffffffffffffffffffffffffff1673ffffffffffffffffffffffffffffffffffffffff1673ffffffffffffffffffffffffffffffffffffffff16815260200190815260200160002060020160009054906101000a900460ff161515145b15610b455760006013600060148460ff168154811061081657610815612831565b5b9060005260206000200160009054906101000a900473ffffffffffffffffffffffffffffffffffffffff1673ffffffffffffffffffffffffffffffffffffffff1673ffffffffffffffffffffffffffffffffffffffff16815260200190815260200160002060000160009054906101000a900473ffffffffffffffffffffffffffffffffffffffff1673ffffffffffffffffffffffffffffffffffffffff166013600060148560ff16815481106108d0576108cf612831565b5b9060005260206000200160009054906101000a900473ffffffffffffffffffffffffffffffffffffffff1673ffffffffffffffffffffffffffffffffffffffff1673ffffffffffffffffffffffffffffffffffffffff1681526020019081526020016000206001015460405161094590612891565b60006040518083038185875af1925050503d8060008114610982576040519150601f19603f3d011682016040523d82523d6000602084013e610987565b606091505b50509050806109cb576040517f08c379a00000000000000000000000000000000000000000000000000000000081526004016109c290612918565b60405180910390fd5b60016013600060148560ff16815481106109e8576109e7612831565b5b9060005260206000200160009054906101000a900473ffffffffffffffffffffffffffffffffffffffff1673ffffffffffffffffffffffffffffffffffffffff1673ffffffffffffffffffffffffffffffffffffffff16815260200190815260200160002060020160006101000a81548160ff0219169083151502179055507fe7d9a2718561a9539a21711f1a38319d7c67b5c24278670af1c23c2e2cd7d4ec6013600060148560ff1681548110610aa357610aa2612831565b5b9060005260206000200160009054906101000a900473ffffffffffffffffffffffffffffffffffffffff1673ffffffffffffffffffffffffffffffffffffffff1673ffffffffffffffffffffffffffffffffffffffff16815260200190815260200160002060000160009054906101000a900473ffffffffffffffffffffffffffffffffffffffff1642604051610b3b929190612997565b60405180910390a1505b8080610b50906129c0565b9150506106ac565b50565b60148181548110610b6b57600080fd5b906000526020600020016000915054906101000a900473ffffffffffffffffffffffffffffffffffffffff1681565b601260079054906101000a900467ffffffffffffffff1667ffffffffffffffff1660105442610bc99190612780565b11610c09576040517f08c379a0000000000000000000000000000000000000000000000000000000008152600401610c0090612a35565b60405180910390fd5b565b336000805b6014805490508160ff161015610cac578273ffffffffffffffffffffffffffffffffffffffff1660148260ff1681548110610c4e57610c4d612831565b5b9060005260206000200160009054906101000a900473ffffffffffffffffffffffffffffffffffffffff1673ffffffffffffffffffffffffffffffffffffffff1603610c9957600191505b8080610ca4906129c0565b915050610c10565b508015610cee576040517f08c379a0000000000000000000000000000000000000000000000000000000008152600401610ce590612aa1565b60405180910390fd5b826000813b905060008114610d38576040517f08c379a0000000000000000000000000000000000000000000000000000000008152600401610d2f90612b33565b60405180910390fd5b601154341015610d7d576040517f08c379a0000000000000000000000000000000000000000000000000000000008152600401610d7490612bc5565b60405180910390fd5b6000601360003373ffffffffffffffffffffffffffffffffffffffff1673ffffffffffffffffffffffffffffffffffffffff16815260200190815260200160002060020160026101000a81548160ff021916908360ff16021790555084601360003373ffffffffffffffffffffffffffffffffffffffff1673ffffffffffffffffffffffffffffffffffffffff16815260200190815260200160002060000160006101000a81548173ffffffffffffffffffffffffffffffffffffffff021916908373ffffffffffffffffffffffffffffffffffffffff1602179055506000601360003373ffffffffffffffffffffffffffffffffffffffff1673ffffffffffffffffffffffffffffffffffffffff16815260200190815260200160002060020160006101000a81548160ff0219169083151502179055506001601360003373ffffffffffffffffffffffffffffffffffffffff1673ffffffffffffffffffffffffffffffffffffffff16815260200190815260200160002060020160016101000a81548160ff02191690831515021790555034601360003373ffffffffffffffffffffffffffffffffffffffff1673ffffffffffffffffffffffffffffffffffffffff168152602001908152602001600020600101819055506014339080600181540180825580915050600190039060005260206000200160009091909190916101000a81548173ffffffffffffffffffffffffffffffffffffffff021916908373ffffffffffffffffffffffffffffffffffffffff1602179055507f75dffe0fb61ff2c8945116ae986d8a0a87751d4addbdf798e256d7415aa4162d3342604051610feb92919061223a565b60405180910390a15050505050565b600360009054906101000a900473ffffffffffffffffffffffffffffffffffffffff1673ffffffffffffffffffffffffffffffffffffffff1663474cf53d82600560009054906101000a900473ffffffffffffffffffffffffffffffffffffffff163360006040518563ffffffff1660e01b815260040161107d93929190612c2e565b6000604051808303818588803b15801561109657600080fd5b505af11580156110aa573d6000803e3d6000fd5b50505050507f217794e6bdf0f51e3c1497aaa311d34599b9d701c794e143cf9afd53a69af5e033426040516110e092919061223a565b60405180910390a150565b600d600b9054906101000a900473ffffffffffffffffffffffffffffffffffffffff1681565b600160009054906101000a900473ffffffffffffffffffffffffffffffffffffffff1673ffffffffffffffffffffffffffffffffffffffff1663095ea7b3600260009054906101000a900473ffffffffffffffffffffffffffffffffffffffff16846040518363ffffffff1660e01b815260040161119092919061223a565b6020604051808303816000875af11580156111af573d6000803e3d6000fd5b505050506040513d601f19601f820116820180604052508101906111d39190612c91565b50600360009054906101000a900473ffffffffffffffffffffffffffffffffffffffff1673ffffffffffffffffffffffffffffffffffffffff166380500d20600560009054906101000a900473ffffffffffffffffffffffffffffffffffffffff1684846040518463ffffffff1660e01b815260040161125593929190612cbe565b600060405180830381600087803b15801561126f57600080fd5b505af1158015611283573d6000803e3d6000fd5b505050507fbd51083cb7d0069935600787f3baf8d13f18d0431a3ecbaccb7b22864a14462681426040516112b892919061223a565b60405180910390a15050565b600760009054906101000a900473ffffffffffffffffffffffffffffffffffffffff1673ffffffffffffffffffffffffffffffffffffffff163373ffffffffffffffffffffffffffffffffffffffff1614611354576040517f08c379a000000000000000000000000000000000000000000000000000000000815260040161134b90612d41565b60405180910390fd5b6000600660009054906101000a900473ffffffffffffffffffffffffffffffffffffffff16905033600660006101000a81548173ffffffffffffffffffffffffffffffffffffffff021916908373ffffffffffffffffffffffffffffffffffffffff1602179055506000600760006101000a81548173ffffffffffffffffffffffffffffffffffffffff021916908373ffffffffffffffffffffffffffffffffffffffff1602179055503373ffffffffffffffffffffffffffffffffffffffff168173ffffffffffffffffffffffffffffffffffffffff167f8be0079c531659141344cd1fd0a4f28419497f9722a3daafe3b4186f6b6457e060405160405180910390a350565b60086020528060005260406000206000915090508060000160009054906101000a900460ff16908060000160019054906101000a900460ff16905082565b600a81815481106114a957600080fd5b906000526020600020016000915090505481565b6000600660009054906101000a900473ffffffffffffffffffffffffffffffffffffffff16905090565b601260019054906101000a900461ffff1661ffff16600e544261150a9190612780565b1161154a576040517f08c379a000000000000000000000000000000000000000000000000000000000815260040161154190612dad565b60405180910390fd5b42600e8190555060005b6014805490508160ff161015611811576013600060148360ff168154811061157f5761157e612831565b5b9060005260206000200160009054906101000a900473ffffffffffffffffffffffffffffffffffffffff1673ffffffffffffffffffffffffffffffffffffffff1673ffffffffffffffffffffffffffffffffffffffff16815260200190815260200160002060020160019054906101000a900460ff16156116b4576013600060148360ff168154811061161557611614612831565b5b9060005260206000200160009054906101000a900473ffffffffffffffffffffffffffffffffffffffff1673ffffffffffffffffffffffffffffffffffffffff1673ffffffffffffffffffffffffffffffffffffffff168152602001908152602001600020600201600281819054906101000a900460ff168092919061169a906129c0565b91906101000a81548160ff021916908360ff160217905550505b601260009054906101000a900460ff1660ff166013600060148460ff16815481106116e2576116e1612831565b5b9060005260206000200160009054906101000a900473ffffffffffffffffffffffffffffffffffffffff1673ffffffffffffffffffffffffffffffffffffffff1673ffffffffffffffffffffffffffffffffffffffff16815260200190815260200160002060020160029054906101000a900460ff1660ff1611156117fe5760006013600060148460ff168154811061177e5761177d612831565b5b9060005260206000200160009054906101000a900473ffffffffffffffffffffffffffffffffffffffff1673ffffffffffffffffffffffffffffffffffffffff1673ffffffffffffffffffffffffffffffffffffffff16815260200190815260200160002060020160016101000a81548160ff0219169083151502179055505b8080611809906129c0565b915050611554565b507fd5a689c847ea8c5e0d3431889f2d9262f839825775f1ac53541cba01d4b6780e4260405161184191906125bb565b60405180910390a1565b336000805b6014805490508160ff1610156118ec578273ffffffffffffffffffffffffffffffffffffffff1660148260ff168154811061188e5761188d612831565b5b9060005260206000200160009054906101000a900473ffffffffffffffffffffffffffffffffffffffff1673ffffffffffffffffffffffffffffffffffffffff16036118d957600191505b80806118e4906129c0565b915050611850565b508061192d576040517f08c379a000000000000000000000000000000000000000000000000000000000815260040161192490612e19565b60405180910390fd5b6000601360003373ffffffffffffffffffffffffffffffffffffffff1673ffffffffffffffffffffffffffffffffffffffff16815260200190815260200160002060020160026101000a81548160ff021916908360ff1602179055505050565b6000816000805b6014805490508160ff161015611a30578273ffffffffffffffffffffffffffffffffffffffff1660148260ff16815481106119d2576119d1612831565b5b9060005260206000200160009054906101000a900473ffffffffffffffffffffffffffffffffffffffff1673ffffffffffffffffffffffffffffffffffffffff1603611a1d57600191505b8080611a28906129c0565b915050611994565b5080611a71576040517f08c379a0000000000000000000000000000000000000000000000000000000008152600401611a6890612e19565b60405180910390fd5b601360008573ffffffffffffffffffffffffffffffffffffffff1673ffffffffffffffffffffffffffffffffffffffff16815260200190815260200160002060020160029054906101000a900460ff1692505050919050565b7f688e89c1496876b0d792df75671fbe827183660b170bb8983d82511a6a4b7d1b3334604051611afb92919061223a565b60405180910390a1565b601260009054906101000a900460ff1681565b600060606008600084815260200190815260200160002060000160019054906101000a900460ff16611b7f576040517f08c379a0000000000000000000000000000000000000000000000000000000008152600401611b7690612e85565b60405180910390fd5b6000600860008581526020019081526020016000206040518060600160405290816000820160009054906101000a900460ff161515151581526020016000820160019054906101000a900460ff1615151515815260200160018201805480602002602001604051908101604052809291908181526020018280548015611c2457602002820191906000526020600020905b815481526020019060010190808311611c10575b5050505050815250509050806000015181604001519250925050915091565b60115481565b6000611c53611fb6565b600960009054906101000a900473ffffffffffffffffffffffffffffffffffffffff1673ffffffffffffffffffffffffffffffffffffffff16635d3b1d30600c54600960149054906101000a900467ffffffffffffffff16600d60049054906101000a900461ffff16600d60009054906101000a900463ffffffff16600d60069054906101000a900463ffffffff166040518663ffffffff1660e01b8152600401611d02959493929190612f0f565b6020604051808303816000875af1158015611d21573d6000803e3d6000fd5b505050506040513d601f19601f82011682018060405250810190611d459190612f77565b90506040518060600160405280600015158152602001600115158152602001600067ffffffffffffffff811115611d7f57611d7e6122d4565b5b604051908082528060200260200182016040528015611dad5781602001602082028036833780820191505090505b508152506008600083815260200190815260200160002060008201518160000160006101000a81548160ff02191690831515021790555060208201518160000160016101000a81548160ff0219169083151502179055506040820151816001019080519060200190611e20929190612176565b50905050600a81908060018154018082558091505060019003906000526020600020016000909190919091505580600b819055507fcc58b13ad3eab50626c6a6300b1d139cd6ebb1688a7cced9461c2f7e762665ee81600d60069054906101000a900463ffffffff16604051611e97929190612fa4565b60405180910390a190565b611eaa611fb6565b611eb381612048565b50565b600b5481565b6008600083815260200190815260200160002060000160019054906101000a900460ff16611f1f576040517f08c379a0000000000000000000000000000000000000000000000000000000008152600401611f1690612e85565b60405180910390fd5b60016008600084815260200190815260200160002060000160006101000a81548160ff02191690831515021790555080600860008481526020019081526020016000206001019080519060200190611f78929190612176565b507ffe2e2d779dba245964d4e3ef9b994be63856fd568bf7d3ca9e224755cb1bd54d8282604051611faa929190612fcd565b60405180910390a15050565b600660009054906101000a900473ffffffffffffffffffffffffffffffffffffffff1673ffffffffffffffffffffffffffffffffffffffff163373ffffffffffffffffffffffffffffffffffffffff1614612046576040517f08c379a000000000000000000000000000000000000000000000000000000000815260040161203d90613049565b60405180910390fd5b565b3373ffffffffffffffffffffffffffffffffffffffff168173ffffffffffffffffffffffffffffffffffffffff16036120b6576040517f08c379a00000000000000000000000000000000000000000000000000000000081526004016120ad906130b5565b60405180910390fd5b80600760006101000a81548173ffffffffffffffffffffffffffffffffffffffff021916908373ffffffffffffffffffffffffffffffffffffffff1602179055508073ffffffffffffffffffffffffffffffffffffffff16600660009054906101000a900473ffffffffffffffffffffffffffffffffffffffff1673ffffffffffffffffffffffffffffffffffffffff167fed8889f560326eb138920d842192f0eb3dd22b4f139c87a2c57538e05bae127860405160405180910390a350565b8280548282559060005260206000209081019282156121b2579160200282015b828111156121b1578251825591602001919060010190612196565b5b5090506121bf91906121c3565b5090565b5b808211156121dc5760008160009055506001016121c4565b5090565b600073ffffffffffffffffffffffffffffffffffffffff82169050919050565b600061220b826121e0565b9050919050565b61221b81612200565b82525050565b6000819050919050565b61223481612221565b82525050565b600060408201905061224f6000830185612212565b61225c602083018461222b565b9392505050565b60006020820190506122786000830184612212565b92915050565b6000604051905090565b600080fd5b600080fd5b61229b81612221565b81146122a657600080fd5b50565b6000813590506122b881612292565b92915050565b600080fd5b6000601f19601f8301169050919050565b7f4e487b7100000000000000000000000000000000000000000000000000000000600052604160045260246000fd5b61230c826122c3565b810181811067ffffffffffffffff8211171561232b5761232a6122d4565b5b80604052505050565b600061233e61227e565b905061234a8282612303565b919050565b600067ffffffffffffffff82111561236a576123696122d4565b5b602082029050602081019050919050565b600080fd5b600061239361238e8461234f565b612334565b905080838252602082019050602084028301858111156123b6576123b561237b565b5b835b818110156123df57806123cb88826122a9565b8452602084019350506020810190506123b8565b5050509392505050565b600082601f8301126123fe576123fd6122be565b5b813561240e848260208601612380565b91505092915050565b6000806040838503121561242e5761242d612288565b5b600061243c858286016122a9565b925050602083013567ffffffffffffffff81111561245d5761245c61228d565b5b612469858286016123e9565b9150509250929050565b60006020828403121561248957612488612288565b5b6000612497848285016122a9565b91505092915050565b60006124ab826121e0565b9050919050565b6124bb816124a0565b81146124c657600080fd5b50565b6000813590506124d8816124b2565b92915050565b6000602082840312156124f4576124f3612288565b5b6000612502848285016124c9565b91505092915050565b61251481612200565b811461251f57600080fd5b50565b6000813590506125318161250b565b92915050565b6000806040838503121561254e5761254d612288565b5b600061255c858286016122a9565b925050602061256d85828601612522565b9150509250929050565b60008115159050919050565b61258c81612577565b82525050565b60006040820190506125a76000830185612583565b6125b46020830184612583565b9392505050565b60006020820190506125d0600083018461222b565b92915050565b6000602082840312156125ec576125eb612288565b5b60006125fa84828501612522565b91505092915050565b600060ff82169050919050565b61261981612603565b82525050565b60006020820190506126346000830184612610565b92915050565b600081519050919050565b600082825260208201905092915050565b6000819050602082019050919050565b61266f81612221565b82525050565b60006126818383612666565b60208301905092915050565b6000602082019050919050565b60006126a58261263a565b6126af8185612645565b93506126ba83612656565b8060005b838110156126eb5781516126d28882612675565b97506126dd8361268d565b9250506001810190506126be565b5085935050505092915050565b600060408201905061270d6000830185612583565b818103602083015261271f818461269a565b90509392505050565b600060408201905061273d6000830185612212565b61274a6020830184612212565b9392505050565b7f4e487b7100000000000000000000000000000000000000000000000000000000600052601160045260246000fd5b600061278b82612221565b915061279683612221565b92508282039050818111156127ae576127ad612751565b5b92915050565b600082825260208201905092915050565b7f4e6f7420757020746f2061204461792100000000000000000000000000000000600082015250565b60006127fb6010836127b4565b9150612806826127c5565b602082019050919050565b6000602082019050818103600083015261282a816127ee565b9050919050565b7f4e487b7100000000000000000000000000000000000000000000000000000000600052603260045260246000fd5b600081905092915050565b50565b600061287b600083612860565b91506128868261286b565b600082019050919050565b600061289c8261286e565b9150819050919050565b7f4661696c656420746f2073656e6420496e6865726974616e636520746f206b6960008201527f6e2e000000000000000000000000000000000000000000000000000000000000602082015250565b60006129026022836127b4565b915061290d826128a6565b604082019050919050565b60006020820190508181036000830152612931816128f5565b9050919050565b6000819050919050565b600061295d612958612953846121e0565b612938565b6121e0565b9050919050565b600061296f82612942565b9050919050565b600061298182612964565b9050919050565b61299181612976565b82525050565b60006040820190506129ac6000830185612988565b6129b9602083018461222b565b9392505050565b60006129cb82612603565b915060ff82036129de576129dd612751565b5b600182019050919050565b7f4e6f7420757020746f2061205765656b21000000000000000000000000000000600082015250565b6000612a1f6011836127b4565b9150612a2a826129e9565b602082019050919050565b60006020820190508181036000830152612a4e81612a12565b9050919050565b7f416c726561647920726567697374657265642100000000000000000000000000600082015250565b6000612a8b6013836127b4565b9150612a9682612a55565b602082019050919050565b60006020820190508181036000830152612aba81612a7e565b9050919050565b7f4b696e20416464726573732063616e6e6f74206265206120736d61727420636f60008201527f6e74726163742100000000000000000000000000000000000000000000000000602082015250565b6000612b1d6027836127b4565b9150612b2882612ac1565b604082019050919050565b60006020820190508181036000830152612b4c81612b10565b9050919050565b7f4d696e696d756d20526567697374726174696f6e20697320302e303031204d4160008201527f5449430000000000000000000000000000000000000000000000000000000000602082015250565b6000612baf6023836127b4565b9150612bba82612b53565b604082019050919050565b60006020820190508181036000830152612bde81612ba2565b9050919050565b6000819050919050565b600061ffff82169050919050565b6000612c18612c13612c0e84612be5565b612938565b612bef565b9050919050565b612c2881612bfd565b82525050565b6000606082019050612c436000830186612212565b612c506020830185612212565b612c5d6040830184612c1f565b949350505050565b612c6e81612577565b8114612c7957600080fd5b50565b600081519050612c8b81612c65565b92915050565b600060208284031215612ca757612ca6612288565b5b6000612cb584828501612c7c565b91505092915050565b6000606082019050612cd36000830186612212565b612ce0602083018561222b565b612ced6040830184612212565b949350505050565b7f4d7573742062652070726f706f736564206f776e657200000000000000000000600082015250565b6000612d2b6016836127b4565b9150612d3682612cf5565b602082019050919050565b60006020820190508181036000830152612d5a81612d1e565b9050919050565b7f4e6f7420757020746f20616e20686f7572210000000000000000000000000000600082015250565b6000612d976012836127b4565b9150612da282612d61565b602082019050919050565b60006020820190508181036000830152612dc681612d8a565b9050919050565b7f55736572206973206e6f74207265676973746572656421000000000000000000600082015250565b6000612e036017836127b4565b9150612e0e82612dcd565b602082019050919050565b60006020820190508181036000830152612e3281612df6565b9050919050565b7f72657175657374206e6f7420666f756e64000000000000000000000000000000600082015250565b6000612e6f6011836127b4565b9150612e7a82612e39565b602082019050919050565b60006020820190508181036000830152612e9e81612e62565b9050919050565b6000819050919050565b612eb881612ea5565b82525050565b600067ffffffffffffffff82169050919050565b612edb81612ebe565b82525050565b612eea81612bef565b82525050565b600063ffffffff82169050919050565b612f0981612ef0565b82525050565b600060a082019050612f246000830188612eaf565b612f316020830187612ed2565b612f3e6040830186612ee1565b612f4b6060830185612f00565b612f586080830184612f00565b9695505050505050565b600081519050612f7181612292565b92915050565b600060208284031215612f8d57612f8c612288565b5b6000612f9b84828501612f62565b91505092915050565b6000604082019050612fb9600083018561222b565b612fc66020830184612f00565b9392505050565b6000604082019050612fe2600083018561222b565b8181036020830152612ff4818461269a565b90509392505050565b7f4f6e6c792063616c6c61626c65206279206f776e657200000000000000000000600082015250565b60006130336016836127b4565b915061303e82612ffd565b602082019050919050565b6000602082019050818103600083015261306281613026565b9050919050565b7f43616e6e6f74207472616e7366657220746f2073656c66000000000000000000600082015250565b600061309f6017836127b4565b91506130aa82613069565b602082019050919050565b600060208201905081810360008301526130ce81613092565b905091905056fea2646970667358221220c5ba8764fde2bac1831f277b8b0a1c67e99441069cfd0bdc431bdff2206944f564736f6c63430008110033",
  "linkReferences": {},
  "deployedLinkReferences": {}
}