{
  "_format": "hh-sol-artifact-1",
  "contractName": "SignatureVerifier",
  "sourceName": "contracts/SignatureVerifier.sol",
  "abi": [
    {
      "inputs": [
        {
          "internalType": "bytes32",
          "name": "_messageHash",
          "type": "bytes32"
        }
      ],
      "name": "getEthSignedMessageHash",
      "outputs": [
        {
          "internalType": "bytes32",
          "name": "",
          "type": "bytes32"
        }
      ],
      "stateMutability": "pure",
      "type": "function"
    },
    {
      "inputs": [
        {
          "internalType": "string",
          "name": "_message",
          "type": "string"
        }
      ],
      "name": "getMessageHash",
      "outputs": [
        {
          "internalType": "bytes32",
          "name": "",
          "type": "bytes32"
        }
      ],
      "stateMutability": "pure",
      "type": "function"
    },
    {
      "inputs": [
        {
          "internalType": "bytes32",
          "name": "_ethSignedMessageHash",
          "type": "bytes32"
        },
        {
          "internalType": "bytes",
          "name": "_signature",
          "type": "bytes"
        }
      ],
      "name": "recoverSigner",
      "outputs": [
        {
          "internalType": "address",
          "name": "",
          "type": "address"
        }
      ],
      "stateMutability": "pure",
      "type": "function"
    },
    {
      "inputs": [
        {
          "internalType": "bytes",
          "name": "sig",
          "type": "bytes"
        }
      ],
      "name": "splitSignature",
      "outputs": [
        {
          "internalType": "bytes32",
          "name": "r",
          "type": "bytes32"
        },
        {
          "internalType": "bytes32",
          "name": "s",
          "type": "bytes32"
        },
        {
          "internalType": "uint8",
          "name": "v",
          "type": "uint8"
        }
      ],
      "stateMutability": "pure",
      "type": "function"
    },
    {
      "inputs": [
        {
          "internalType": "address",
          "name": "_signer",
          "type": "address"
        },
        {
          "internalType": "bytes",
          "name": "signature",
          "type": "bytes"
        }
      ],
      "name": "verify",
      "outputs": [
        {
          "internalType": "bool",
          "name": "",
          "type": "bool"
        }
      ],
      "stateMutability": "view",
      "type": "function"
    }
  ],
  "bytecode": "0x608060405260405180610100016040528060ce815260200162000e7760ce9139600090816200002f9190620002be565b503480156200003d57600080fd5b50620003a5565b600081519050919050565b7f4e487b7100000000000000000000000000000000000000000000000000000000600052604160045260246000fd5b7f4e487b7100000000000000000000000000000000000000000000000000000000600052602260045260246000fd5b60006002820490506001821680620000c657607f821691505b602082108103620000dc57620000db6200007e565b5b50919050565b60008190508160005260206000209050919050565b60006020601f8301049050919050565b600082821b905092915050565b600060088302620001467fffffffffffffffffffffffffffffffffffffffffffffffffffffffffffffffff8262000107565b62000152868362000107565b95508019841693508086168417925050509392505050565b6000819050919050565b6000819050919050565b60006200019f6200019962000193846200016a565b62000174565b6200016a565b9050919050565b6000819050919050565b620001bb836200017e565b620001d3620001ca82620001a6565b84845462000114565b825550505050565b600090565b620001ea620001db565b620001f7818484620001b0565b505050565b5b818110156200021f5762000213600082620001e0565b600181019050620001fd565b5050565b601f8211156200026e576200023881620000e2565b6200024384620000f7565b8101602085101562000253578190505b6200026b6200026285620000f7565b830182620001fc565b50505b505050565b600082821c905092915050565b6000620002936000198460080262000273565b1980831691505092915050565b6000620002ae838362000280565b9150826002028217905092915050565b620002c98262000044565b67ffffffffffffffff811115620002e557620002e46200004f565b5b620002f18254620000ad565b620002fe82828562000223565b600060209050601f83116001811462000336576000841562000321578287015190505b6200032d8582620002a0565b8655506200039d565b601f1984166200034686620000e2565b60005b82811015620003705784890151825560018201915060208501945060208101905062000349565b868310156200039057848901516200038c601f89168262000280565b8355505b6001600288020188555050505b505050505050565b610ac280620003b56000396000f3fe608060405234801561001057600080fd5b50600436106100575760003560e01c80634a41d1ac1461005c57806397aba7f91461008c578063a7bb5803146100bc578063b446f3b2146100ee578063fa5408011461011e575b600080fd5b61007660048036038101906100719190610524565b61014e565b604051610083919061059b565b60405180910390f35b6100a660048036038101906100a191906105ec565b610235565b6040516100b39190610657565b60405180910390f35b6100d660048036038101906100d19190610672565b6102a4565b6040516100e5939291906106e6565b60405180910390f35b610108600480360381019061010391906107be565b61030c565b6040516101159190610807565b60405180910390f35b61013860048036038101906101339190610822565b61033c565b6040516101459190610807565b60405180910390f35b6000806101e4600080546101619061087e565b80601f016020809104026020016040519081016040528092919081815260200182805461018d9061087e565b80156101da5780601f106101af576101008083540402835291602001916101da565b820191906000526020600020905b8154815290600101906020018083116101bd57829003601f168201915b505050505061030c565b905060006101f18261033c565b90508473ffffffffffffffffffffffffffffffffffffffff166102148286610235565b73ffffffffffffffffffffffffffffffffffffffff16149250505092915050565b600080600080610244856102a4565b9250925092506001868285856040516000815260200160405260405161026d94939291906108af565b6020604051602081039080840390855afa15801561028f573d6000803e3d6000fd5b50505060206040510351935050505092915050565b600080600060418451146102ed576040517f08c379a00000000000000000000000000000000000000000000000000000000081526004016102e490610951565b60405180910390fd5b6020840151925060408401519150606084015160001a90509193909250565b60008160405160200161031f91906109e2565b604051602081830303815290604052805190602001209050919050565b60008160405160200161034f9190610a66565b604051602081830303815290604052805190602001209050919050565b6000604051905090565b600080fd5b600080fd5b600073ffffffffffffffffffffffffffffffffffffffff82169050919050565b60006103ab82610380565b9050919050565b6103bb816103a0565b81146103c657600080fd5b50565b6000813590506103d8816103b2565b92915050565b600080fd5b600080fd5b6000601f19601f8301169050919050565b7f4e487b7100000000000000000000000000000000000000000000000000000000600052604160045260246000fd5b610431826103e8565b810181811067ffffffffffffffff821117156104505761044f6103f9565b5b80604052505050565b600061046361036c565b905061046f8282610428565b919050565b600067ffffffffffffffff82111561048f5761048e6103f9565b5b610498826103e8565b9050602081019050919050565b82818337600083830152505050565b60006104c76104c284610474565b610459565b9050828152602081018484840111156104e3576104e26103e3565b5b6104ee8482856104a5565b509392505050565b600082601f83011261050b5761050a6103de565b5b813561051b8482602086016104b4565b91505092915050565b6000806040838503121561053b5761053a610376565b5b6000610549858286016103c9565b925050602083013567ffffffffffffffff81111561056a5761056961037b565b5b610576858286016104f6565b9150509250929050565b60008115159050919050565b61059581610580565b82525050565b60006020820190506105b0600083018461058c565b92915050565b6000819050919050565b6105c9816105b6565b81146105d457600080fd5b50565b6000813590506105e6816105c0565b92915050565b6000806040838503121561060357610602610376565b5b6000610611858286016105d7565b925050602083013567ffffffffffffffff8111156106325761063161037b565b5b61063e858286016104f6565b9150509250929050565b610651816103a0565b82525050565b600060208201905061066c6000830184610648565b92915050565b60006020828403121561068857610687610376565b5b600082013567ffffffffffffffff8111156106a6576106a561037b565b5b6106b2848285016104f6565b91505092915050565b6106c4816105b6565b82525050565b600060ff82169050919050565b6106e0816106ca565b82525050565b60006060820190506106fb60008301866106bb565b61070860208301856106bb565b61071560408301846106d7565b949350505050565b600067ffffffffffffffff821115610738576107376103f9565b5b610741826103e8565b9050602081019050919050565b600061076161075c8461071d565b610459565b90508281526020810184848401111561077d5761077c6103e3565b5b6107888482856104a5565b509392505050565b600082601f8301126107a5576107a46103de565b5b81356107b584826020860161074e565b91505092915050565b6000602082840312156107d4576107d3610376565b5b600082013567ffffffffffffffff8111156107f2576107f161037b565b5b6107fe84828501610790565b91505092915050565b600060208201905061081c60008301846106bb565b92915050565b60006020828403121561083857610837610376565b5b6000610846848285016105d7565b91505092915050565b7f4e487b7100000000000000000000000000000000000000000000000000000000600052602260045260246000fd5b6000600282049050600182168061089657607f821691505b6020821081036108a9576108a861084f565b5b50919050565b60006080820190506108c460008301876106bb565b6108d160208301866106d7565b6108de60408301856106bb565b6108eb60608301846106bb565b95945050505050565b600082825260208201905092915050565b7f696e76616c6964207369676e6174757265206c656e6774680000000000000000600082015250565b600061093b6018836108f4565b915061094682610905565b602082019050919050565b6000602082019050818103600083015261096a8161092e565b9050919050565b600081519050919050565b600081905092915050565b60005b838110156109a557808201518184015260208101905061098a565b60008484015250505050565b60006109bc82610971565b6109c6818561097c565b93506109d6818560208601610987565b80840191505092915050565b60006109ee82846109b1565b915081905092915050565b7f19457468657265756d205369676e6564204d6573736167653a0a333200000000600082015250565b6000610a2f601c8361097c565b9150610a3a826109f9565b601c82019050919050565b6000819050919050565b610a60610a5b826105b6565b610a45565b82525050565b6000610a7182610a22565b9150610a7d8284610a4f565b6020820191508190509291505056fea26469706673582212207ce7e456149807dd16394da1e5542b12a58f3e1002bce3ab75be2483d880bd2364736f6c63430008110033492068657265627920617574686f72697a65207468697320736d61727420636f6e747261637420746f2068617665206f776e657273686970206f766572206d79206465706f73697465642066756e647320616e64206772616e7420697420617574686f72697a6174696f6e20746f2073656e6420697420746f204f4e4c59206d792070726f7669646564204e657874206f66204b696e2061646472657373206966204920616d20756e61626c6520746f2070726f7669646520612076616c69646174696f6e206f66204c6966652e",
  "linkReferences": {},
  "deployedLinkReferences": {}
}