{
  "_format": "hh-sol-artifact-1",
  "contractName": "AliveAliveNFT",
  "sourceName": "contracts/AANft.sol",
  "abi": [
    {
      "inputs": [
        {
          "internalType": "string",
          "name": "_baseURIString",
          "type": "string"
        },
        {
          "internalType": "string",
          "name": "_mainTable",
          "type": "string"
        },
        {
          "internalType": "string",
          "name": "_attributesTable",
          "type": "string"
        }
      ],
      "stateMutability": "nonpayable",
      "type": "constructor"
    },
    {
      "anonymous": false,
      "inputs": [
        {
          "indexed": true,
          "internalType": "address",
          "name": "owner",
          "type": "address"
        },
        {
          "indexed": true,
          "internalType": "address",
          "name": "approved",
          "type": "address"
        },
        {
          "indexed": true,
          "internalType": "uint256",
          "name": "tokenId",
          "type": "uint256"
        }
      ],
      "name": "Approval",
      "type": "event"
    },
    {
      "anonymous": false,
      "inputs": [
        {
          "indexed": true,
          "internalType": "address",
          "name": "owner",
          "type": "address"
        },
        {
          "indexed": true,
          "internalType": "address",
          "name": "operator",
          "type": "address"
        },
        {
          "indexed": false,
          "internalType": "bool",
          "name": "approved",
          "type": "bool"
        }
      ],
      "name": "ApprovalForAll",
      "type": "event"
    },
    {
      "anonymous": false,
      "inputs": [
        {
          "indexed": true,
          "internalType": "address",
          "name": "from",
          "type": "address"
        },
        {
          "indexed": true,
          "internalType": "address",
          "name": "to",
          "type": "address"
        },
        {
          "indexed": true,
          "internalType": "uint256",
          "name": "tokenId",
          "type": "uint256"
        }
      ],
      "name": "Transfer",
      "type": "event"
    },
    {
      "inputs": [
        {
          "internalType": "address",
          "name": "to",
          "type": "address"
        },
        {
          "internalType": "uint256",
          "name": "tokenId",
          "type": "uint256"
        }
      ],
      "name": "approve",
      "outputs": [],
      "stateMutability": "nonpayable",
      "type": "function"
    },
    {
      "inputs": [],
      "name": "attributesTable",
      "outputs": [
        {
          "internalType": "string",
          "name": "",
          "type": "string"
        }
      ],
      "stateMutability": "view",
      "type": "function"
    },
    {
      "inputs": [
        {
          "internalType": "address",
          "name": "owner",
          "type": "address"
        }
      ],
      "name": "balanceOf",
      "outputs": [
        {
          "internalType": "uint256",
          "name": "",
          "type": "uint256"
        }
      ],
      "stateMutability": "view",
      "type": "function"
    },
    {
      "inputs": [],
      "name": "baseURIString",
      "outputs": [
        {
          "internalType": "string",
          "name": "",
          "type": "string"
        }
      ],
      "stateMutability": "view",
      "type": "function"
    },
    {
      "inputs": [
        {
          "internalType": "uint256",
          "name": "tokenId",
          "type": "uint256"
        }
      ],
      "name": "getApproved",
      "outputs": [
        {
          "internalType": "address",
          "name": "",
          "type": "address"
        }
      ],
      "stateMutability": "view",
      "type": "function"
    },
    {
      "inputs": [
        {
          "internalType": "address",
          "name": "owner",
          "type": "address"
        },
        {
          "internalType": "address",
          "name": "operator",
          "type": "address"
        }
      ],
      "name": "isApprovedForAll",
      "outputs": [
        {
          "internalType": "bool",
          "name": "",
          "type": "bool"
        }
      ],
      "stateMutability": "view",
      "type": "function"
    },
    {
      "inputs": [],
      "name": "mainTable",
      "outputs": [
        {
          "internalType": "string",
          "name": "",
          "type": "string"
        }
      ],
      "stateMutability": "view",
      "type": "function"
    },
    {
      "inputs": [],
      "name": "mint",
      "outputs": [],
      "stateMutability": "nonpayable",
      "type": "function"
    },
    {
      "inputs": [],
      "name": "name",
      "outputs": [
        {
          "internalType": "string",
          "name": "",
          "type": "string"
        }
      ],
      "stateMutability": "view",
      "type": "function"
    },
    {
      "inputs": [
        {
          "internalType": "uint256",
          "name": "tokenId",
          "type": "uint256"
        }
      ],
      "name": "ownerOf",
      "outputs": [
        {
          "internalType": "address",
          "name": "",
          "type": "address"
        }
      ],
      "stateMutability": "view",
      "type": "function"
    },
    {
      "inputs": [
        {
          "internalType": "address",
          "name": "from",
          "type": "address"
        },
        {
          "internalType": "address",
          "name": "to",
          "type": "address"
        },
        {
          "internalType": "uint256",
          "name": "tokenId",
          "type": "uint256"
        }
      ],
      "name": "safeTransferFrom",
      "outputs": [],
      "stateMutability": "nonpayable",
      "type": "function"
    },
    {
      "inputs": [
        {
          "internalType": "address",
          "name": "from",
          "type": "address"
        },
        {
          "internalType": "address",
          "name": "to",
          "type": "address"
        },
        {
          "internalType": "uint256",
          "name": "tokenId",
          "type": "uint256"
        },
        {
          "internalType": "bytes",
          "name": "data",
          "type": "bytes"
        }
      ],
      "name": "safeTransferFrom",
      "outputs": [],
      "stateMutability": "nonpayable",
      "type": "function"
    },
    {
      "inputs": [
        {
          "internalType": "address",
          "name": "operator",
          "type": "address"
        },
        {
          "internalType": "bool",
          "name": "approved",
          "type": "bool"
        }
      ],
      "name": "setApprovalForAll",
      "outputs": [],
      "stateMutability": "nonpayable",
      "type": "function"
    },
    {
      "inputs": [
        {
          "internalType": "bytes4",
          "name": "interfaceId",
          "type": "bytes4"
        }
      ],
      "name": "supportsInterface",
      "outputs": [
        {
          "internalType": "bool",
          "name": "",
          "type": "bool"
        }
      ],
      "stateMutability": "view",
      "type": "function"
    },
    {
      "inputs": [],
      "name": "symbol",
      "outputs": [
        {
          "internalType": "string",
          "name": "",
          "type": "string"
        }
      ],
      "stateMutability": "view",
      "type": "function"
    },
    {
      "inputs": [
        {
          "internalType": "uint256",
          "name": "tokenId",
          "type": "uint256"
        }
      ],
      "name": "tokenURI",
      "outputs": [
        {
          "internalType": "string",
          "name": "_tokenURI",
          "type": "string"
        }
      ],
      "stateMutability": "view",
      "type": "function"
    },
    {
      "inputs": [],
      "name": "totalSupply",
      "outputs": [
        {
          "internalType": "uint256",
          "name": "",
          "type": "uint256"
        }
      ],
      "stateMutability": "view",
      "type": "function"
    },
    {
      "inputs": [
        {
          "internalType": "address",
          "name": "from",
          "type": "address"
        },
        {
          "internalType": "address",
          "name": "to",
          "type": "address"
        },
        {
          "internalType": "uint256",
          "name": "tokenId",
          "type": "uint256"
        }
      ],
      "name": "transferFrom",
      "outputs": [],
      "stateMutability": "nonpayable",
      "type": "function"
    }
  ],
  "bytecode": "0x60806040523480156200001157600080fd5b5060405162003625380380620036258339818101604052810190620000379190620002ab565b6040518060400160405280600e81526020017f416c77617973416c6976654e46540000000000000000000000000000000000008152506040518060400160405280600581526020017f41414e46540000000000000000000000000000000000000000000000000000008152508160009081620000b49190620005af565b508060019081620000c69190620005af565b5050506000600781905550601e6008819055508260069081620000ea9190620005af565b508160099081620000fc9190620005af565b5080600a90816200010e9190620005af565b5050505062000696565b6000604051905090565b600080fd5b600080fd5b600080fd5b600080fd5b6000601f19601f8301169050919050565b7f4e487b7100000000000000000000000000000000000000000000000000000000600052604160045260246000fd5b620001818262000136565b810181811067ffffffffffffffff82111715620001a357620001a262000147565b5b80604052505050565b6000620001b862000118565b9050620001c6828262000176565b919050565b600067ffffffffffffffff821115620001e957620001e862000147565b5b620001f48262000136565b9050602081019050919050565b60005b838110156200022157808201518184015260208101905062000204565b60008484015250505050565b6000620002446200023e84620001cb565b620001ac565b90508281526020810184848401111562000263576200026262000131565b5b6200027084828562000201565b509392505050565b600082601f83011262000290576200028f6200012c565b5b8151620002a28482602086016200022d565b91505092915050565b600080600060608486031215620002c757620002c662000122565b5b600084015167ffffffffffffffff811115620002e857620002e762000127565b5b620002f68682870162000278565b935050602084015167ffffffffffffffff8111156200031a576200031962000127565b5b620003288682870162000278565b925050604084015167ffffffffffffffff8111156200034c576200034b62000127565b5b6200035a8682870162000278565b9150509250925092565b600081519050919050565b7f4e487b7100000000000000000000000000000000000000000000000000000000600052602260045260246000fd5b60006002820490506001821680620003b757607f821691505b602082108103620003cd57620003cc6200036f565b5b50919050565b60008190508160005260206000209050919050565b60006020601f8301049050919050565b600082821b905092915050565b600060088302620004377fffffffffffffffffffffffffffffffffffffffffffffffffffffffffffffffff82620003f8565b620004438683620003f8565b95508019841693508086168417925050509392505050565b6000819050919050565b6000819050919050565b6000620004906200048a62000484846200045b565b62000465565b6200045b565b9050919050565b6000819050919050565b620004ac836200046f565b620004c4620004bb8262000497565b84845462000405565b825550505050565b600090565b620004db620004cc565b620004e8818484620004a1565b505050565b5b81811015620005105762000504600082620004d1565b600181019050620004ee565b5050565b601f8211156200055f576200052981620003d3565b6200053484620003e8565b8101602085101562000544578190505b6200055c6200055385620003e8565b830182620004ed565b50505b505050565b600082821c905092915050565b6000620005846000198460080262000564565b1980831691505092915050565b60006200059f838362000571565b9150826002028217905092915050565b620005ba8262000364565b67ffffffffffffffff811115620005d657620005d562000147565b5b620005e282546200039e565b620005ef82828562000514565b600060209050601f83116001811462000627576000841562000612578287015190505b6200061e858262000591565b8655506200068e565b601f1984166200063786620003d3565b60005b8281101562000661578489015182556001820191506020850194506020810190506200063a565b868310156200068157848901516200067d601f89168262000571565b8355505b6001600288020188555050505b505050505050565b612f7f80620006a66000396000f3fe608060405234801561001057600080fd5b50600436106101165760003560e01c80636352211e116100a2578063a22cb46511610071578063a22cb465146102cf578063b88d4fde146102eb578063c87b56dd14610307578063cf76a15314610337578063e985e9c51461035557610116565b80636352211e1461023357806370a08231146102635780637bc53be91461029357806395d89b41146102b157610116565b80631249c58b116100e95780631249c58b146101b557806318160ddd146101bf57806323b872dd146101dd57806342842e0e146101f95780635d21260a1461021557610116565b806301ffc9a71461011b57806306fdde031461014b578063081812fc14610169578063095ea7b314610199575b600080fd5b61013560048036038101906101309190611c81565b610385565b6040516101429190611cc9565b60405180910390f35b610153610467565b6040516101609190611d74565b60405180910390f35b610183600480360381019061017e9190611dcc565b6104f9565b6040516101909190611e3a565b60405180910390f35b6101b360048036038101906101ae9190611e81565b61053f565b005b6101bd610656565b005b6101c76106c2565b6040516101d49190611ed0565b60405180910390f35b6101f760048036038101906101f29190611eeb565b6106cc565b005b610213600480360381019061020e9190611eeb565b61072c565b005b61021d61074c565b60405161022a9190611d74565b60405180910390f35b61024d60048036038101906102489190611dcc565b6107da565b60405161025a9190611e3a565b60405180910390f35b61027d60048036038101906102789190611f3e565b610860565b60405161028a9190611ed0565b60405180910390f35b61029b610917565b6040516102a89190611d74565b60405180910390f35b6102b96109a5565b6040516102c69190611d74565b60405180910390f35b6102e960048036038101906102e49190611f97565b610a37565b005b6103056004803603810190610300919061210c565b610a4d565b005b610321600480360381019061031c9190611dcc565b610aaf565b60405161032e9190611d74565b60405180910390f35b61033f610b8a565b60405161034c9190611d74565b60405180910390f35b61036f600480360381019061036a919061218f565b610c18565b60405161037c9190611cc9565b60405180910390f35b60007f80ac58cd000000000000000000000000000000000000000000000000000000007bffffffffffffffffffffffffffffffffffffffffffffffffffffffff1916827bffffffffffffffffffffffffffffffffffffffffffffffffffffffff1916148061045057507f5b5e139f000000000000000000000000000000000000000000000000000000007bffffffffffffffffffffffffffffffffffffffffffffffffffffffff1916827bffffffffffffffffffffffffffffffffffffffffffffffffffffffff1916145b80610460575061045f82610cac565b5b9050919050565b606060008054610476906121fe565b80601f01602080910402602001604051908101604052809291908181526020018280546104a2906121fe565b80156104ef5780601f106104c4576101008083540402835291602001916104ef565b820191906000526020600020905b8154815290600101906020018083116104d257829003601f168201915b5050505050905090565b600061050482610d16565b6004600083815260200190815260200160002060009054906101000a900473ffffffffffffffffffffffffffffffffffffffff169050919050565b600061054a826107da565b90508073ffffffffffffffffffffffffffffffffffffffff168373ffffffffffffffffffffffffffffffffffffffff16036105ba576040517f08c379a00000000000000000000000000000000000000000000000000000000081526004016105b1906122a1565b60405180910390fd5b8073ffffffffffffffffffffffffffffffffffffffff166105d9610d61565b73ffffffffffffffffffffffffffffffffffffffff161480610608575061060781610602610d61565b610c18565b5b610647576040517f08c379a000000000000000000000000000000000000000000000000000000000815260040161063e90612333565b60405180910390fd5b6106518383610d69565b505050565b6008546007541061069c576040517f08c379a0000000000000000000000000000000000000000000000000000000008152600401610693906123c5565b60405180910390fd5b6106a833600754610e22565b600760008154809291906106bb90612414565b9190505550565b6000600854905090565b6106dd6106d7610d61565b82610e40565b61071c576040517f08c379a0000000000000000000000000000000000000000000000000000000008152600401610713906124ce565b60405180910390fd5b610727838383610ed5565b505050565b61074783838360405180602001604052806000815250610a4d565b505050565b60098054610759906121fe565b80601f0160208091040260200160405190810160405280929190818152602001828054610785906121fe565b80156107d25780601f106107a7576101008083540402835291602001916107d2565b820191906000526020600020905b8154815290600101906020018083116107b557829003601f168201915b505050505081565b6000806107e6836111ce565b9050600073ffffffffffffffffffffffffffffffffffffffff168173ffffffffffffffffffffffffffffffffffffffff1603610857576040517f08c379a000000000000000000000000000000000000000000000000000000000815260040161084e9061253a565b60405180910390fd5b80915050919050565b60008073ffffffffffffffffffffffffffffffffffffffff168273ffffffffffffffffffffffffffffffffffffffff16036108d0576040517f08c379a00000000000000000000000000000000000000000000000000000000081526004016108c7906125cc565b60405180910390fd5b600360008373ffffffffffffffffffffffffffffffffffffffff1673ffffffffffffffffffffffffffffffffffffffff168152602001908152602001600020549050919050565b600a8054610924906121fe565b80601f0160208091040260200160405190810160405280929190818152602001828054610950906121fe565b801561099d5780601f106109725761010080835404028352916020019161099d565b820191906000526020600020905b81548152906001019060200180831161098057829003601f168201915b505050505081565b6060600180546109b4906121fe565b80601f01602080910402602001604051908101604052809291908181526020018280546109e0906121fe565b8015610a2d5780601f10610a0257610100808354040283529160200191610a2d565b820191906000526020600020905b815481529060010190602001808311610a1057829003601f168201915b5050505050905090565b610a49610a42610d61565b838361120b565b5050565b610a5e610a58610d61565b83610e40565b610a9d576040517f08c379a0000000000000000000000000000000000000000000000000000000008152600401610a94906124ce565b60405180910390fd5b610aa984848484611377565b50505050565b6060610aba826113d3565b610af9576040517f08c379a0000000000000000000000000000000000000000000000000000000008152600401610af09061265e565b60405180910390fd5b6000610b03611414565b90506000815103610b265760405180602001604052806000815250915050610b85565b60006009600a6009600a604051602001610b4394939291906129a7565b60405160208183030381529060405290508181610b5f866114a6565b604051602001610b7193929190612a99565b604051602081830303815290604052925050505b919050565b60068054610b97906121fe565b80601f0160208091040260200160405190810160405280929190818152602001828054610bc3906121fe565b8015610c105780601f10610be557610100808354040283529160200191610c10565b820191906000526020600020905b815481529060010190602001808311610bf357829003601f168201915b505050505081565b6000600560008473ffffffffffffffffffffffffffffffffffffffff1673ffffffffffffffffffffffffffffffffffffffff16815260200190815260200160002060008373ffffffffffffffffffffffffffffffffffffffff1673ffffffffffffffffffffffffffffffffffffffff16815260200190815260200160002060009054906101000a900460ff16905092915050565b60007f01ffc9a7000000000000000000000000000000000000000000000000000000007bffffffffffffffffffffffffffffffffffffffffffffffffffffffff1916827bffffffffffffffffffffffffffffffffffffffffffffffffffffffff1916149050919050565b610d1f816113d3565b610d5e576040517f08c379a0000000000000000000000000000000000000000000000000000000008152600401610d559061253a565b60405180910390fd5b50565b600033905090565b816004600083815260200190815260200160002060006101000a81548173ffffffffffffffffffffffffffffffffffffffff021916908373ffffffffffffffffffffffffffffffffffffffff160217905550808273ffffffffffffffffffffffffffffffffffffffff16610ddc836107da565b73ffffffffffffffffffffffffffffffffffffffff167f8c5be1e5ebec7d5bd14f71427d1e84f3dd0314c0f7b2291e5b200ac8c7c3b92560405160405180910390a45050565b610e3c828260405180602001604052806000815250611574565b5050565b600080610e4c836107da565b90508073ffffffffffffffffffffffffffffffffffffffff168473ffffffffffffffffffffffffffffffffffffffff161480610e8e5750610e8d8185610c18565b5b80610ecc57508373ffffffffffffffffffffffffffffffffffffffff16610eb4846104f9565b73ffffffffffffffffffffffffffffffffffffffff16145b91505092915050565b8273ffffffffffffffffffffffffffffffffffffffff16610ef5826107da565b73ffffffffffffffffffffffffffffffffffffffff1614610f4b576040517f08c379a0000000000000000000000000000000000000000000000000000000008152600401610f4290612b47565b60405180910390fd5b600073ffffffffffffffffffffffffffffffffffffffff168273ffffffffffffffffffffffffffffffffffffffff1603610fba576040517f08c379a0000000000000000000000000000000000000000000000000000000008152600401610fb190612bd9565b60405180910390fd5b610fc783838360016115cf565b8273ffffffffffffffffffffffffffffffffffffffff16610fe7826107da565b73ffffffffffffffffffffffffffffffffffffffff161461103d576040517f08c379a000000000000000000000000000000000000000000000000000000000815260040161103490612b47565b60405180910390fd5b6004600082815260200190815260200160002060006101000a81549073ffffffffffffffffffffffffffffffffffffffff02191690556001600360008573ffffffffffffffffffffffffffffffffffffffff1673ffffffffffffffffffffffffffffffffffffffff168152602001908152602001600020600082825403925050819055506001600360008473ffffffffffffffffffffffffffffffffffffffff1673ffffffffffffffffffffffffffffffffffffffff16815260200190815260200160002060008282540192505081905550816002600083815260200190815260200160002060006101000a81548173ffffffffffffffffffffffffffffffffffffffff021916908373ffffffffffffffffffffffffffffffffffffffff160217905550808273ffffffffffffffffffffffffffffffffffffffff168473ffffffffffffffffffffffffffffffffffffffff167fddf252ad1be2c89b69c2b068fc378daa952ba7f163c4a11628f55a4df523b3ef60405160405180910390a46111c983838360016116f5565b505050565b60006002600083815260200190815260200160002060009054906101000a900473ffffffffffffffffffffffffffffffffffffffff169050919050565b8173ffffffffffffffffffffffffffffffffffffffff168373ffffffffffffffffffffffffffffffffffffffff1603611279576040517f08c379a000000000000000000000000000000000000000000000000000000000815260040161127090612c45565b60405180910390fd5b80600560008573ffffffffffffffffffffffffffffffffffffffff1673ffffffffffffffffffffffffffffffffffffffff16815260200190815260200160002060008473ffffffffffffffffffffffffffffffffffffffff1673ffffffffffffffffffffffffffffffffffffffff16815260200190815260200160002060006101000a81548160ff0219169083151502179055508173ffffffffffffffffffffffffffffffffffffffff168373ffffffffffffffffffffffffffffffffffffffff167f17307eab39ab6107e8899845ad3d59bd9653f200f220920489ca2b5937696c318360405161136a9190611cc9565b60405180910390a3505050565b611382848484610ed5565b61138e848484846116fb565b6113cd576040517f08c379a00000000000000000000000000000000000000000000000000000000081526004016113c490612cd7565b60405180910390fd5b50505050565b60008073ffffffffffffffffffffffffffffffffffffffff166113f5836111ce565b73ffffffffffffffffffffffffffffffffffffffff1614159050919050565b606060068054611423906121fe565b80601f016020809104026020016040519081016040528092919081815260200182805461144f906121fe565b801561149c5780601f106114715761010080835404028352916020019161149c565b820191906000526020600020905b81548152906001019060200180831161147f57829003601f168201915b5050505050905090565b6060600060016114b584611882565b01905060008167ffffffffffffffff8111156114d4576114d3611fe1565b5b6040519080825280601f01601f1916602001820160405280156115065781602001600182028036833780820191505090505b509050600082602001820190505b600115611569578080600190039150507f3031323334353637383961626364656600000000000000000000000000000000600a86061a8153600a858161155d5761155c612cf7565b5b04945060008503611514575b819350505050919050565b61157e83836119d5565b61158b60008484846116fb565b6115ca576040517f08c379a00000000000000000000000000000000000000000000000000000000081526004016115c190612cd7565b60405180910390fd5b505050565b60018111156116ef57600073ffffffffffffffffffffffffffffffffffffffff168473ffffffffffffffffffffffffffffffffffffffff16146116635780600360008673ffffffffffffffffffffffffffffffffffffffff1673ffffffffffffffffffffffffffffffffffffffff168152602001908152602001600020600082825461165b9190612d26565b925050819055505b600073ffffffffffffffffffffffffffffffffffffffff168373ffffffffffffffffffffffffffffffffffffffff16146116ee5780600360008573ffffffffffffffffffffffffffffffffffffffff1673ffffffffffffffffffffffffffffffffffffffff16815260200190815260200160002060008282546116e69190612d5a565b925050819055505b5b50505050565b50505050565b600061171c8473ffffffffffffffffffffffffffffffffffffffff16611bf2565b15611875578373ffffffffffffffffffffffffffffffffffffffff1663150b7a02611745610d61565b8786866040518563ffffffff1660e01b81526004016117679493929190612de3565b6020604051808303816000875af19250505080156117a357506040513d601f19601f820116820180604052508101906117a09190612e44565b60015b611825573d80600081146117d3576040519150601f19603f3d011682016040523d82523d6000602084013e6117d8565b606091505b50600081510361181d576040517f08c379a000000000000000000000000000000000000000000000000000000000815260040161181490612cd7565b60405180910390fd5b805181602001fd5b63150b7a0260e01b7bffffffffffffffffffffffffffffffffffffffffffffffffffffffff1916817bffffffffffffffffffffffffffffffffffffffffffffffffffffffff19161491505061187a565b600190505b949350505050565b600080600090507a184f03e93ff9f4daa797ed6e38ed64bf6a1f01000000000000000083106118e0577a184f03e93ff9f4daa797ed6e38ed64bf6a1f01000000000000000083816118d6576118d5612cf7565b5b0492506040810190505b6d04ee2d6d415b85acef8100000000831061191d576d04ee2d6d415b85acef8100000000838161191357611912612cf7565b5b0492506020810190505b662386f26fc10000831061194c57662386f26fc10000838161194257611941612cf7565b5b0492506010810190505b6305f5e1008310611975576305f5e100838161196b5761196a612cf7565b5b0492506008810190505b612710831061199a5761271083816119905761198f612cf7565b5b0492506004810190505b606483106119bd57606483816119b3576119b2612cf7565b5b0492506002810190505b600a83106119cc576001810190505b80915050919050565b600073ffffffffffffffffffffffffffffffffffffffff168273ffffffffffffffffffffffffffffffffffffffff1603611a44576040517f08c379a0000000000000000000000000000000000000000000000000000000008152600401611a3b90612ebd565b60405180910390fd5b611a4d816113d3565b15611a8d576040517f08c379a0000000000000000000000000000000000000000000000000000000008152600401611a8490612f29565b60405180910390fd5b611a9b6000838360016115cf565b611aa4816113d3565b15611ae4576040517f08c379a0000000000000000000000000000000000000000000000000000000008152600401611adb90612f29565b60405180910390fd5b6001600360008473ffffffffffffffffffffffffffffffffffffffff1673ffffffffffffffffffffffffffffffffffffffff16815260200190815260200160002060008282540192505081905550816002600083815260200190815260200160002060006101000a81548173ffffffffffffffffffffffffffffffffffffffff021916908373ffffffffffffffffffffffffffffffffffffffff160217905550808273ffffffffffffffffffffffffffffffffffffffff16600073ffffffffffffffffffffffffffffffffffffffff167fddf252ad1be2c89b69c2b068fc378daa952ba7f163c4a11628f55a4df523b3ef60405160405180910390a4611bee6000838360016116f5565b5050565b6000808273ffffffffffffffffffffffffffffffffffffffff163b119050919050565b6000604051905090565b600080fd5b600080fd5b60007fffffffff0000000000000000000000000000000000000000000000000000000082169050919050565b611c5e81611c29565b8114611c6957600080fd5b50565b600081359050611c7b81611c55565b92915050565b600060208284031215611c9757611c96611c1f565b5b6000611ca584828501611c6c565b91505092915050565b60008115159050919050565b611cc381611cae565b82525050565b6000602082019050611cde6000830184611cba565b92915050565b600081519050919050565b600082825260208201905092915050565b60005b83811015611d1e578082015181840152602081019050611d03565b60008484015250505050565b6000601f19601f8301169050919050565b6000611d4682611ce4565b611d508185611cef565b9350611d60818560208601611d00565b611d6981611d2a565b840191505092915050565b60006020820190508181036000830152611d8e8184611d3b565b905092915050565b6000819050919050565b611da981611d96565b8114611db457600080fd5b50565b600081359050611dc681611da0565b92915050565b600060208284031215611de257611de1611c1f565b5b6000611df084828501611db7565b91505092915050565b600073ffffffffffffffffffffffffffffffffffffffff82169050919050565b6000611e2482611df9565b9050919050565b611e3481611e19565b82525050565b6000602082019050611e4f6000830184611e2b565b92915050565b611e5e81611e19565b8114611e6957600080fd5b50565b600081359050611e7b81611e55565b92915050565b60008060408385031215611e9857611e97611c1f565b5b6000611ea685828601611e6c565b9250506020611eb785828601611db7565b9150509250929050565b611eca81611d96565b82525050565b6000602082019050611ee56000830184611ec1565b92915050565b600080600060608486031215611f0457611f03611c1f565b5b6000611f1286828701611e6c565b9350506020611f2386828701611e6c565b9250506040611f3486828701611db7565b9150509250925092565b600060208284031215611f5457611f53611c1f565b5b6000611f6284828501611e6c565b91505092915050565b611f7481611cae565b8114611f7f57600080fd5b50565b600081359050611f9181611f6b565b92915050565b60008060408385031215611fae57611fad611c1f565b5b6000611fbc85828601611e6c565b9250506020611fcd85828601611f82565b9150509250929050565b600080fd5b600080fd5b7f4e487b7100000000000000000000000000000000000000000000000000000000600052604160045260246000fd5b61201982611d2a565b810181811067ffffffffffffffff8211171561203857612037611fe1565b5b80604052505050565b600061204b611c15565b90506120578282612010565b919050565b600067ffffffffffffffff82111561207757612076611fe1565b5b61208082611d2a565b9050602081019050919050565b82818337600083830152505050565b60006120af6120aa8461205c565b612041565b9050828152602081018484840111156120cb576120ca611fdc565b5b6120d684828561208d565b509392505050565b600082601f8301126120f3576120f2611fd7565b5b813561210384826020860161209c565b91505092915050565b6000806000806080858703121561212657612125611c1f565b5b600061213487828801611e6c565b945050602061214587828801611e6c565b935050604061215687828801611db7565b925050606085013567ffffffffffffffff81111561217757612176611c24565b5b612183878288016120de565b91505092959194509250565b600080604083850312156121a6576121a5611c1f565b5b60006121b485828601611e6c565b92505060206121c585828601611e6c565b9150509250929050565b7f4e487b7100000000000000000000000000000000000000000000000000000000600052602260045260246000fd5b6000600282049050600182168061221657607f821691505b602082108103612229576122286121cf565b5b50919050565b7f4552433732313a20617070726f76616c20746f2063757272656e74206f776e6560008201527f7200000000000000000000000000000000000000000000000000000000000000602082015250565b600061228b602183611cef565b91506122968261222f565b604082019050919050565b600060208201905081810360008301526122ba8161227e565b9050919050565b7f4552433732313a20617070726f76652063616c6c6572206973206e6f7420746f60008201527f6b656e206f776e6572206f7220617070726f76656420666f7220616c6c000000602082015250565b600061231d603d83611cef565b9150612328826122c1565b604082019050919050565b6000602082019050818103600083015261234c81612310565b9050919050565b7f4d6178696d756d206e756d626572206f6620746f6b656e73206861766520626560008201527f656e206d696e7465642e00000000000000000000000000000000000000000000602082015250565b60006123af602a83611cef565b91506123ba82612353565b604082019050919050565b600060208201905081810360008301526123de816123a2565b9050919050565b7f4e487b7100000000000000000000000000000000000000000000000000000000600052601160045260246000fd5b600061241f82611d96565b91507fffffffffffffffffffffffffffffffffffffffffffffffffffffffffffffffff8203612451576124506123e5565b5b600182019050919050565b7f4552433732313a2063616c6c6572206973206e6f7420746f6b656e206f776e6560008201527f72206f7220617070726f76656400000000000000000000000000000000000000602082015250565b60006124b8602d83611cef565b91506124c38261245c565b604082019050919050565b600060208201905081810360008301526124e7816124ab565b9050919050565b7f4552433732313a20696e76616c696420746f6b656e2049440000000000000000600082015250565b6000612524601883611cef565b915061252f826124ee565b602082019050919050565b6000602082019050818103600083015261255381612517565b9050919050565b7f4552433732313a2061646472657373207a65726f206973206e6f74206120766160008201527f6c6964206f776e65720000000000000000000000000000000000000000000000602082015250565b60006125b6602983611cef565b91506125c18261255a565b604082019050919050565b600060208201905081810360008301526125e5816125a9565b9050919050565b7f4552433732314d657461646174613a2055524920717565727920666f72206e6f60008201527f6e6578697374656e7420746f6b656e0000000000000000000000000000000000602082015250565b6000612648602f83611cef565b9150612653826125ec565b604082019050919050565b600060208201905081810360008301526126778161263b565b9050919050565b600081905092915050565b7f53454c4543542532306a736f6e5f6f626a65637425323825323769642532372560008201527f324369642532432532376e616d652532372532436e616d65253243253237696d60208201527f616765253237253243696d6167652532432532376465736372697074696f6e2560408201527f32372532436465736372697074696f6e2532432532376174747269627574657360608201527f2532372532436a736f6e5f67726f75705f61727261792532386a736f6e5f6f6260808201527f6a65637425323825323774726169745f7479706525323725324374726169745f60a08201527f7479706525324325323776616c756525323725324376616c756525323925323960c08201527f25323925323046524f4d2532300000000000000000000000000000000000000060e082015250565b60006127c960ed8361267e565b91506127d482612689565b60ed82019050919050565b60008190508160005260206000209050919050565b60008154612801816121fe565b61280b818661267e565b94506001821660008114612826576001811461283b5761286e565b60ff198316865281151582028601935061286e565b612844856127df565b60005b8381101561286657815481890152600182019150602081019050612847565b838801955050505b50505092915050565b7f2532304a4f494e25323000000000000000000000000000000000000000000000600082015250565b60006128ad600a8361267e565b91506128b882612877565b600a82019050919050565b7f2532304f4e253230000000000000000000000000000000000000000000000000600082015250565b60006128f960088361267e565b9150612904826128c3565b600882019050919050565b7f2532456964253230253344253230000000000000000000000000000000000000600082015250565b6000612945600e8361267e565b91506129508261290f565b600e82019050919050565b7f2532456d61696e5f696425323057484552452532306964253344000000000000600082015250565b6000612991601a8361267e565b915061299c8261295b565b601a82019050919050565b60006129b2826127bc565b91506129be82876127f4565b91506129c9826128a0565b91506129d582866127f4565b91506129e0826128ec565b91506129ec82856127f4565b91506129f782612938565b9150612a0382846127f4565b9150612a0e82612984565b915081905095945050505050565b6000612a2782611ce4565b612a31818561267e565b9350612a41818560208601611d00565b80840191505092915050565b7f25323067726f7570253230627925323069640000000000000000000000000000600082015250565b6000612a8360128361267e565b9150612a8e82612a4d565b601282019050919050565b6000612aa58286612a1c565b9150612ab18285612a1c565b9150612abd8284612a1c565b9150612ac882612a76565b9150819050949350505050565b7f4552433732313a207472616e736665722066726f6d20696e636f72726563742060008201527f6f776e6572000000000000000000000000000000000000000000000000000000602082015250565b6000612b31602583611cef565b9150612b3c82612ad5565b604082019050919050565b60006020820190508181036000830152612b6081612b24565b9050919050565b7f4552433732313a207472616e7366657220746f20746865207a65726f2061646460008201527f7265737300000000000000000000000000000000000000000000000000000000602082015250565b6000612bc3602483611cef565b9150612bce82612b67565b604082019050919050565b60006020820190508181036000830152612bf281612bb6565b9050919050565b7f4552433732313a20617070726f766520746f2063616c6c657200000000000000600082015250565b6000612c2f601983611cef565b9150612c3a82612bf9565b602082019050919050565b60006020820190508181036000830152612c5e81612c22565b9050919050565b7f4552433732313a207472616e7366657220746f206e6f6e20455243373231526560008201527f63656976657220696d706c656d656e7465720000000000000000000000000000602082015250565b6000612cc1603283611cef565b9150612ccc82612c65565b604082019050919050565b60006020820190508181036000830152612cf081612cb4565b9050919050565b7f4e487b7100000000000000000000000000000000000000000000000000000000600052601260045260246000fd5b6000612d3182611d96565b9150612d3c83611d96565b9250828203905081811115612d5457612d536123e5565b5b92915050565b6000612d6582611d96565b9150612d7083611d96565b9250828201905080821115612d8857612d876123e5565b5b92915050565b600081519050919050565b600082825260208201905092915050565b6000612db582612d8e565b612dbf8185612d99565b9350612dcf818560208601611d00565b612dd881611d2a565b840191505092915050565b6000608082019050612df86000830187611e2b565b612e056020830186611e2b565b612e126040830185611ec1565b8181036060830152612e248184612daa565b905095945050505050565b600081519050612e3e81611c55565b92915050565b600060208284031215612e5a57612e59611c1f565b5b6000612e6884828501612e2f565b91505092915050565b7f4552433732313a206d696e7420746f20746865207a65726f2061646472657373600082015250565b6000612ea7602083611cef565b9150612eb282612e71565b602082019050919050565b60006020820190508181036000830152612ed681612e9a565b9050919050565b7f4552433732313a20746f6b656e20616c7265616479206d696e74656400000000600082015250565b6000612f13601c83611cef565b9150612f1e82612edd565b602082019050919050565b60006020820190508181036000830152612f4281612f06565b905091905056fea264697066735822122089955372f3f6286c839b03aca2c43d3b404fea11ef90360e7ca66470a74beab764736f6c63430008110033",
  "linkReferences": {},
  "deployedLinkReferences": {}
}